{"contracts/SC6_DeliveryLifecycle.sol":{"SC6_DeliveryLifecycle":{"abi":[{"inputs":[{"internalType":"address","name":"sc1Addr","type":"address"},{"internalType":"address","name":"sc4Addr","type":"address"}],"stateMutability":"nonpayable","type":"constructor"},{"anonymous":false,"inputs":[{"indexed":true,"internalType":"uint256","name":"orderId","type":"uint256"},{"indexed":false,"internalType":"address","name":"patient","type":"address"},{"indexed":false,"internalType":"bool","name":"withinSLA","type":"bool"}],"name":"DeliveryConfirmed","type":"event"},{"anonymous":false,"inputs":[{"indexed":true,"internalType":"uint256","name":"orderId","type":"uint256"},{"indexed":true,"internalType":"address","name":"uav","type":"address"},{"indexed":true,"internalType":"address","name":"patient","type":"address"}],"name":"DeliveryCreated","type":"event"},{"anonymous":false,"inputs":[{"indexed":true,"internalType":"uint256","name":"orderId","type":"uint256"},{"indexed":false,"internalType":"address","name":"droneStation","type":"address"},{"indexed":false,"internalType":"string","name":"reason","type":"string"}],"name":"DeviationFlagged","type":"event"},{"anonymous":false,"inputs":[{"indexed":true,"internalType":"uint256","name":"orderId","type":"uint256"},{"indexed":false,"internalType":"string","name":"ipfsHash","type":"string"},{"indexed":false,"internalType":"uint256","name":"timestamp","type":"uint256"}],"name":"GPSUpdated","type":"event"},{"anonymous":false,"inputs":[{"indexed":true,"internalType":"uint256","name":"orderId","type":"uint256"},{"indexed":false,"internalType":"enum SC6_DeliveryLifecycle.DeliveryStatus","name":"newStatus","type":"uint8"}],"name":"StatusUpdated","type":"event"},{"inputs":[{"internalType":"uint256","name":"orderId","type":"uint256"}],"name":"confirmDelivery","outputs":[],"stateMutability":"nonpayable","type":"function"},{"inputs":[{"internalType":"uint256","name":"orderId","type":"uint256"},{"internalType":"address","name":"uav","type":"address"},{"internalType":"address","name":"patient","type":"address"},{"internalType":"uint256","name":"slaDeadline","type":"uint256"}],"name":"createDelivery","outputs":[],"stateMutability":"nonpayable","type":"function"},{"inputs":[{"internalType":"uint256","name":"","type":"uint256"}],"name":"deliveries","outputs":[{"internalType":"uint256","name":"orderId","type":"uint256"},{"internalType":"address","name":"assignedUAV","type":"address"},{"internalType":"address","name":"patient","type":"address"},{"internalType":"address","name":"droneStation","type":"address"},{"internalType":"enum SC6_DeliveryLifecycle.DeliveryStatus","name":"status","type":"uint8"},{"internalType":"uint256","name":"startedAt","type":"uint256"},{"internalType":"uint256","name":"deliveredAt","type":"uint256"},{"internalType":"bool","name":"withinSLA","type":"bool"},{"internalType":"uint256","name":"slaDeadline","type":"uint256"},{"internalType":"uint256","name":"gpsUpdateCount","type":"uint256"}],"stateMutability":"view","type":"function"},{"inputs":[{"internalType":"uint256","name":"","type":"uint256"}],"name":"deviationFlagged","outputs":[{"internalType":"bool","name":"","type":"bool"}],"stateMutability":"view","type":"function"},{"inputs":[{"internalType":"uint256","name":"orderId","type":"uint256"},{"internalType":"string","name":"reason","type":"string"}],"name":"flagDeviation","outputs":[],"stateMutability":"nonpayable","type":"function"},{"inputs":[{"internalType":"uint256","name":"orderId","type":"uint256"}],"name":"getDeliveryStatus","outputs":[{"internalType":"enum SC6_DeliveryLifecycle.DeliveryStatus","name":"status","type":"uint8"},{"internalType":"address","name":"uav","type":"address"},{"internalType":"uint256","name":"gpsUpdateCount","type":"uint256"},{"internalType":"bool","name":"withinSLA","type":"bool"},{"internalType":"bool","name":"deviated","type":"bool"}],"stateMutability":"view","type":"function"},{"inputs":[{"internalType":"uint256","name":"orderId","type":"uint256"}],"name":"getGPSLog","outputs":[{"internalType":"string[]","name":"hashes","type":"string[]"},{"internalType":"uint256[]","name":"timestamps","type":"uint256[]"}],"stateMutability":"view","type":"function"},{"inputs":[{"internalType":"uint256","name":"","type":"uint256"},{"internalType":"uint256","name":"","type":"uint256"}],"name":"gpsLogs","outputs":[{"internalType":"string","name":"ipfsHash","type":"string"},{"internalType":"uint256","name":"timestamp","type":"uint256"}],"stateMutability":"view","type":"function"},{"inputs":[{"internalType":"uint256","name":"orderId","type":"uint256"},{"internalType":"string","name":"ipfsHash","type":"string"}],"name":"logGPS","outputs":[],"stateMutability":"nonpayable","type":"function"},{"inputs":[],"name":"sc1","outputs":[{"internalType":"contract ISC1_v6","name":"","type":"address"}],"stateMutability":"view","type":"function"},{"inputs":[],"name":"sc4","outputs":[{"internalType":"contract ISC4","name":"","type":"address"}],"stateMutability":"view","type":"function"},{"inputs":[{"internalType":"uint256","name":"orderId","type":"uint256"}],"name":"setInFlight","outputs":[],"stateMutability":"nonpayable","type":"function"}],"evm":{"bytecode":{"linkReferences":{},"object":"608060405234801561001057600080fd5b50604051620016f7380380620016f78339810160408190526100319161007e565b600080546001600160a01b039384166001600160a01b031991821617909155600180549290931691161790556100b1565b80516001600160a01b038116811461007957600080fd5b919050565b6000806040838503121561009157600080fd5b61009a83610062565b91506100a860208401610062565b90509250929050565b61163680620000c16000396000f3fe608060405234801561001057600080fd5b50600436106100b45760003560e01c8063a9e4a32411610071578063a9e4a32414610186578063e25a875e14610210578063e785e34a14610234578063e87bb14a14610247578063ed708c551461025a578063fd84cb971461026d57600080fd5b80630c1f629d146100b9578063281b945a146100e957806349c13b901461010a57806375f3b0781461013d5780639a03580e14610152578063a5f5ed7914610165575b600080fd5b6000546100cc906001600160a01b031681565b6040516001600160a01b0390911681526020015b60405180910390f35b6100fc6100f73660046110ac565b610280565b6040516100e092919061110b565b61012d6101183660046110ac565b60046020526000908152604090205460ff1681565b60405190151581526020016100e0565b61015061014b3660046110ac565b6104c6565b005b6001546100cc906001600160a01b031681565b6101786101733660046111a6565b6105e0565b6040516100e09291906111c8565b6101fa6101943660046110ac565b600260208190526000918252604090912080546001820154928201546003830154600484015460058501546006860154600787015460089097015495976001600160a01b03908116979581169690851695600160a01b90950460ff90811695921691908a565b6040516100e09a99989796959493929190611222565b61022361021e3660046110ac565b6106a9565b6040516100e0959493929190611284565b6101506102423660046112dc565b6107b5565b610150610255366004611336565b610afb565b610150610268366004611336565b610cbf565b61015061027b3660046110ac565b610e27565b606080600060036000858152602001908152602001600020805480602002602001604051908101604052809291908181526020016000905b8282101561038657838290600052602060002090600202016040518060400160405290816000820180546102eb906113f1565b80601f0160208091040260200160405190810160405280929190818152602001828054610317906113f1565b80156103645780601f1061033957610100808354040283529160200191610364565b820191906000526020600020905b81548152906001019060200180831161034757829003601f168201915b50505050508152602001600182015481525050815260200190600101906102b8565b5050505090506000815167ffffffffffffffff8111156103a8576103a8611320565b6040519080825280602002602001820160405280156103db57816020015b60608152602001906001900390816103c65790505b5090506000825167ffffffffffffffff8111156103fa576103fa611320565b604051908082528060200260200182016040528015610423578160200160208202803683370190505b50905060005b83518110156104ba578381815181106104445761044461142b565b6020026020010151600001518382815181106104625761046261142b565b602002602001018190525083818151811061047f5761047f61142b565b60200260200101516020015182828151811061049d5761049d61142b565b6020908102919091010152806104b281611441565b915050610429565b50909590945092505050565b600081815260026020526040902060018101546001600160a01b0316331461052d5760405162461bcd60e51b815260206004820152601560248201527427b7363c903a34329030b9b9b4b3b732b2102aa0ab60591b60448201526064015b60405180910390fd5b60026003820154600160a01b900460ff16600681111561054f5761054f6111ea565b1461059c5760405162461bcd60e51b815260206004820152601760248201527f4e6f7420696e20444953504154434845442073746174650000000000000000006044820152606401610524565b6003818101805460ff60a01b1916600160a01b830217905550816000805160206115e183398151915260036040516105d49190611468565b60405180910390a25050565b600360205281600052604060002081815481106105fc57600080fd5b906000526020600020906002020160009150915050806000018054610620906113f1565b80601f016020809104026020016040519081016040528092919081815260200182805461064c906113f1565b80156106995780601f1061066e57610100808354040283529160200191610699565b820191906000526020600020905b81548152906001019060200180831161067c57829003601f168201915b5050505050908060010154905082565b60008181526002602081815260408084208151610140810183528154815260018201546001600160a01b03908116948201949094529381015483169184019190915260038101549182166060840152839283928392839283929091906080830190600160a01b900460ff166006811115610725576107256111ea565b6006811115610736576107366111ea565b81526004828101546020808401919091526005840154604080850191909152600685015460ff90811615156060860152600786015460808087019190915260089096015460a090950194909452938501518582015161012087015160e09097015160009e8f529390925293909b2054929b939950975016945092505050565b600054604051639f8a13d760e01b81523360048201526001600160a01b0390911690639f8a13d790602401602060405180830381865afa1580156107fd573d6000803e3d6000fd5b505050506040513d601f19601f82011682018060405250810190610821919061147c565b6108615760405162461bcd60e51b81526020600482015260116024820152701114c81b9bdd081c9959da5cdd195c9959607a1b6044820152606401610524565b600054604051639f8a13d760e01b81526001600160a01b03858116600483015290911690639f8a13d790602401602060405180830381865afa1580156108ab573d6000803e3d6000fd5b505050506040513d601f19601f820116820180604052508101906108cf919061147c565b6109105760405162461bcd60e51b8152602060048201526012602482015271155055881b9bdd081c9959da5cdd195c995960721b6044820152606401610524565b6000848152600260205260409020600401541561096f5760405162461bcd60e51b815260206004820152601860248201527f44656c697665727920616c7265616479206372656174656400000000000000006044820152606401610524565b60408051610140810182528581526001600160a01b03858116602080840191825286831684860190815233606086019081526002608087018181524260a0890152600060c0890181905260e0890181905261010089018b905261012089018190528d815294829052979093208651815593516001850180549187166001600160a01b031992831617905591519284018054938616938316939093179092559051600383018054919094169181168217845594519394919392916001600160a81b03191617600160a01b836006811115610a4a57610a4a6111ea565b021790555060a0820151600482015560c0820151600582015560e082015160068201805460ff19169115159190911790556101008201516007820155610120909101516008909101556040516001600160a01b03838116919085169086907f1092b421ed0121c8fe803583ee93e225c3cc63533b99978e661a36624037946590600090a4836000805160206115e18339815191526002604051610aed9190611468565b60405180910390a250505050565b600082815260026020526040902060038101546001600160a01b03163314610b585760405162461bcd60e51b815260206004820152601060248201526f4f6e6c792061737369676e656420445360801b6044820152606401610524565b600380820154600160a01b900460ff166006811115610b7957610b796111ea565b14610bba5760405162461bcd60e51b8152602060048201526011602482015270155055881b9bdd081a5b88199b1a59da1d607a1b6044820152606401610524565b60038101805460ff60a01b1916600560a01b1790556000838152600460208190526040808320805460ff191660019081179091558054908501548251636a08b51160e01b81526001600160a01b039182169481019490945260091960248501529151911692636a08b511926044808201939182900301818387803b158015610c4157600080fd5b505af1158015610c55573d6000803e3d6000fd5b50505050827fe2773da284a228351af9e62664cf151f754e06466d79ed0922b4a4b226e63a8f3384604051610c8b9291906114a5565b60405180910390a2826000805160206115e18339815191526005604051610cb29190611468565b60405180910390a2505050565b600082815260026020526040902060018101546001600160a01b03163314610d295760405162461bcd60e51b815260206004820152601d60248201527f4f6e6c792061737369676e6564205541562063616e206c6f67204750530000006044820152606401610524565b600380820154600160a01b900460ff166006811115610d4a57610d4a6111ea565b14610d8b5760405162461bcd60e51b8152602060048201526011602482015270155055881b9bdd081a5b88199b1a59da1d607a1b6044820152606401610524565b6000838152600360209081526040808320815180830190925285825242828401528054600181018255908452919092208251600290920201908190610dd09082611520565b5060209190910151600190910155600881018054906000610df083611441565b9190505550827f5470cd5f45a1af23a5d5ab13307345ecc9e294af289640f0bed06ce5845c20c78342604051610cb29291906111c8565b6000818152600260208190526040909120908101546001600160a01b03163314610ea15760405162461bcd60e51b815260206004820152602560248201527f4f6e6c79207468652070617469656e742063616e20636f6e6669726d2064656c604482015264697665727960d81b6064820152608401610524565b600380820154600160a01b900460ff166006811115610ec257610ec26111ea565b1480610eed575060026003820154600160a01b900460ff166006811115610eeb57610eeb6111ea565b145b610f395760405162461bcd60e51b815260206004820152601860248201527f44656c6976657279206e6f7420696e2070726f677265737300000000000000006044820152606401610524565b60038101805460ff60a01b1916600160a21b1790554260058201819055600782015460068301805460ff191691909211801591821790925590610fe5576001805490830154604051636a08b51160e01b81526001600160a01b03918216600482015260056024820152911690636a08b51190604401600060405180830381600087803b158015610fc857600080fd5b505af1158015610fdc573d6000803e3d6000fd5b50505050611051565b6001805490830154604051636a08b51160e01b81526001600160a01b0391821660048201526004196024820152911690636a08b51190604401600060405180830381600087803b15801561103857600080fd5b505af115801561104c573d6000803e3d6000fd5b505050505b60408051338152821515602082015284917f4e98168ee01f9ba12c4872c54973ff61e5fe06c7d7edf27903d41cf47830a646910160405180910390a2826000805160206115e18339815191526004604051610cb29190611468565b6000602082840312156110be57600080fd5b5035919050565b6000815180845260005b818110156110eb576020818501810151868301820152016110cf565b506000602082860101526020601f19601f83011685010191505092915050565b6000604082016040835280855180835260608501915060608160051b8601019250602080880160005b8381101561116257605f198887030185526111508683516110c5565b95509382019390820190600101611134565b50508584038187015286518085528782019482019350915060005b828110156111995784518452938101939281019260010161117d565b5091979650505050505050565b600080604083850312156111b957600080fd5b50508035926020909101359150565b6040815260006111db60408301856110c5565b90508260208301529392505050565b634e487b7160e01b600052602160045260246000fd5b6007811061121e57634e487b7160e01b600052602160045260246000fd5b9052565b8a81526001600160a01b038a8116602083015289811660408301528816606082015261014081016112566080830189611200565b60a082019690965260c081019490945291151560e08401526101008301526101209091015295945050505050565b60a081016112928288611200565b6001600160a01b03959095166020820152604081019390935290151560608301521515608090910152919050565b80356001600160a01b03811681146112d757600080fd5b919050565b600080600080608085870312156112f257600080fd5b84359350611302602086016112c0565b9250611310604086016112c0565b9396929550929360600135925050565b634e487b7160e01b600052604160045260246000fd5b6000806040838503121561134957600080fd5b82359150602083013567ffffffffffffffff8082111561136857600080fd5b818501915085601f83011261137c57600080fd5b81358181111561138e5761138e611320565b604051601f8201601f19908116603f011681019083821181831017156113b6576113b6611320565b816040528281528860208487010111156113cf57600080fd5b8260208601602083013760006020848301015280955050505050509250929050565b600181811c9082168061140557607f821691505b60208210810361142557634e487b7160e01b600052602260045260246000fd5b50919050565b634e487b7160e01b600052603260045260246000fd5b60006001820161146157634e487b7160e01b600052601160045260246000fd5b5060010190565b602081016114768284611200565b92915050565b60006020828403121561148e57600080fd5b8151801515811461149e57600080fd5b9392505050565b6001600160a01b03831681526040602082018190526000906114c9908301846110c5565b949350505050565b601f82111561151b57600081815260208120601f850160051c810160208610156114f85750805b601f850160051c820191505b8181101561151757828155600101611504565b5050505b505050565b815167ffffffffffffffff81111561153a5761153a611320565b61154e8161154884546113f1565b846114d1565b602080601f831160018114611583576000841561156b5750858301515b600019600386901b1c1916600185901b178555611517565b600085815260208120601f198616915b828110156115b257888601518255948401946001909101908401611593565b50858210156115d05787850151600019600388901b60f8161c191681555b5050505050600190811b0190555056fe2da7b23ca63c1eb969eee5fae4acb98186abecf5358b0354a82a5183ebca6b2aa2646970667358221220d18a48fd69ceb6c35a7c2852912e5e6618741663848f5f618724052e99f6ebfa64736f6c63430008140033","opcodes":"PUSH1 0x80 PUSH1 0x40 MSTORE CALLVALUE DUP1 ISZERO PUSH2 0x10 JUMPI PUSH1 0x0 DUP1 REVERT JUMPDEST POP PUSH1 0x40 MLOAD PUSH3 0x16F7 CODESIZE SUB DUP1 PUSH3 0x16F7 DUP4 CODECOPY DUP2 ADD PUSH1 0x40 DUP2 SWAP1 MSTORE PUSH2 0x31 SWAP2 PUSH2 0x7E JUMP JUMPDEST PUSH1 0x0 DUP1 SLOAD PUSH1 0x1 PUSH1 0x1 PUSH1 0xA0 SHL SUB SWAP4 DUP5 AND PUSH1 0x1 PUSH1 0x1 PUSH1 0xA0 SHL SUB NOT SWAP2 DUP3 AND OR SWAP1 SWAP2 SSTORE PUSH1 0x1 DUP1 SLOAD SWAP3 SWAP1 SWAP4 AND SWAP2 AND OR SWAP1 SSTORE PUSH2 0xB1 JUMP JUMPDEST DUP1 MLOAD PUSH1 0x1 PUSH1 0x1 PUSH1 0xA0 SHL SUB DUP2 AND DUP2 EQ PUSH2 0x79 JUMPI PUSH1 0x0 DUP1 REVERT JUMPDEST SWAP2 SWAP1 POP JUMP JUMPDEST PUSH1 0x0 DUP1 PUSH1 0x40 DUP4 DUP6 SUB SLT ISZERO PUSH2 0x91 JUMPI PUSH1 0x0 DUP1 REVERT JUMPDEST PUSH2 0x9A DUP4 PUSH2 0x62 JUMP JUMPDEST SWAP2 POP PUSH2 0xA8 PUSH1 0x20 DUP5 ADD PUSH2 0x62 JUMP JUMPDEST SWAP1 POP SWAP3 POP SWAP3 SWAP1 POP JUMP JUMPDEST PUSH2 0x1636 DUP1 PUSH3 0xC1 PUSH1 0x0 CODECOPY PUSH1 0x0 RETURN INVALID PUSH1 0x80 PUSH1 0x40 MSTORE CALLVALUE DUP1 ISZERO PUSH2 0x10 JUMPI PUSH1 0x0 DUP1 REVERT JUMPDEST POP PUSH1 0x4 CALLDATASIZE LT PUSH2 0xB4 JUMPI PUSH1 0x0 CALLDATALOAD PUSH1 0xE0 SHR DUP1 PUSH4 0xA9E4A324 GT PUSH2 0x71 JUMPI DUP1 PUSH4 0xA9E4A324 EQ PUSH2 0x186 JUMPI DUP1 PUSH4 0xE25A875E EQ PUSH2 0x210 JUMPI DUP1 PUSH4 0xE785E34A EQ PUSH2 0x234 JUMPI DUP1 PUSH4 0xE87BB14A EQ PUSH2 0x247 JUMPI DUP1 PUSH4 0xED708C55 EQ PUSH2 0x25A JUMPI DUP1 PUSH4 0xFD84CB97 EQ PUSH2 0x26D JUMPI PUSH1 0x0 DUP1 REVERT JUMPDEST DUP1 PUSH4 0xC1F629D EQ PUSH2 0xB9 JUMPI DUP1 PUSH4 0x281B945A EQ PUSH2 0xE9 JUMPI DUP1 PUSH4 0x49C13B90 EQ PUSH2 0x10A JUMPI DUP1 PUSH4 0x75F3B078 EQ PUSH2 0x13D JUMPI DUP1 PUSH4 0x9A03580E EQ PUSH2 0x152 JUMPI DUP1 PUSH4 0xA5F5ED79 EQ PUSH2 0x165 JUMPI JUMPDEST PUSH1 0x0 DUP1 REVERT JUMPDEST PUSH1 0x0 SLOAD PUSH2 0xCC SWAP1 PUSH1 0x1 PUSH1 0x1 PUSH1 0xA0 SHL SUB AND DUP2 JUMP JUMPDEST PUSH1 0x40 MLOAD PUSH1 0x1 PUSH1 0x1 PUSH1 0xA0 SHL SUB SWAP1 SWAP2 AND DUP2 MSTORE PUSH1 0x20 ADD JUMPDEST PUSH1 0x40 MLOAD DUP1 SWAP2 SUB SWAP1 RETURN JUMPDEST PUSH2 0xFC PUSH2 0xF7 CALLDATASIZE PUSH1 0x4 PUSH2 0x10AC JUMP JUMPDEST PUSH2 0x280 JUMP JUMPDEST PUSH1 0x40 MLOAD PUSH2 0xE0 SWAP3 SWAP2 SWAP1 PUSH2 0x110B JUMP JUMPDEST PUSH2 0x12D PUSH2 0x118 CALLDATASIZE PUSH1 0x4 PUSH2 0x10AC JUMP JUMPDEST PUSH1 0x4 PUSH1 0x20 MSTORE PUSH1 0x0 SWAP1 DUP2 MSTORE PUSH1 0x40 SWAP1 KECCAK256 SLOAD PUSH1 0xFF AND DUP2 JUMP JUMPDEST PUSH1 0x40 MLOAD SWAP1 ISZERO ISZERO DUP2 MSTORE PUSH1 0x20 ADD PUSH2 0xE0 JUMP JUMPDEST PUSH2 0x150 PUSH2 0x14B CALLDATASIZE PUSH1 0x4 PUSH2 0x10AC JUMP JUMPDEST PUSH2 0x4C6 JUMP JUMPDEST STOP JUMPDEST PUSH1 0x1 SLOAD PUSH2 0xCC SWAP1 PUSH1 0x1 PUSH1 0x1 PUSH1 0xA0 SHL SUB AND DUP2 JUMP JUMPDEST PUSH2 0x178 PUSH2 0x173 CALLDATASIZE PUSH1 0x4 PUSH2 0x11A6 JUMP JUMPDEST PUSH2 0x5E0 JUMP JUMPDEST PUSH1 0x40 MLOAD PUSH2 0xE0 SWAP3 SWAP2 SWAP1 PUSH2 0x11C8 JUMP JUMPDEST PUSH2 0x1FA PUSH2 0x194 CALLDATASIZE PUSH1 0x4 PUSH2 0x10AC JUMP JUMPDEST PUSH1 0x2 PUSH1 0x20 DUP2 SWAP1 MSTORE PUSH1 0x0 SWAP2 DUP3 MSTORE PUSH1 0x40 SWAP1 SWAP2 KECCAK256 DUP1 SLOAD PUSH1 0x1 DUP3 ADD SLOAD SWAP3 DUP3 ADD SLOAD PUSH1 0x3 DUP4 ADD SLOAD PUSH1 0x4 DUP5 ADD SLOAD PUSH1 0x5 DUP6 ADD SLOAD PUSH1 0x6 DUP7 ADD SLOAD PUSH1 0x7 DUP8 ADD SLOAD PUSH1 0x8 SWAP1 SWAP8 ADD SLOAD SWAP6 SWAP8 PUSH1 0x1 PUSH1 0x1 PUSH1 0xA0 SHL SUB SWAP1 DUP2 AND SWAP8 SWAP6 DUP2 AND SWAP7 SWAP1 DUP6 AND SWAP6 PUSH1 0x1 PUSH1 0xA0 SHL SWAP1 SWAP6 DIV PUSH1 0xFF SWAP1 DUP2 AND SWAP6 SWAP3 AND SWAP2 SWAP1 DUP11 JUMP JUMPDEST PUSH1 0x40 MLOAD PUSH2 0xE0 SWAP11 SWAP10 SWAP9 SWAP8 SWAP7 SWAP6 SWAP5 SWAP4 SWAP3 SWAP2 SWAP1 PUSH2 0x1222 JUMP JUMPDEST PUSH2 0x223 PUSH2 0x21E CALLDATASIZE PUSH1 0x4 PUSH2 0x10AC JUMP JUMPDEST PUSH2 0x6A9 JUMP JUMPDEST PUSH1 0x40 MLOAD PUSH2 0xE0 SWAP6 SWAP5 SWAP4 SWAP3 SWAP2 SWAP1 PUSH2 0x1284 JUMP JUMPDEST PUSH2 0x150 PUSH2 0x242 CALLDATASIZE PUSH1 0x4 PUSH2 0x12DC JUMP JUMPDEST PUSH2 0x7B5 JUMP JUMPDEST PUSH2 0x150 PUSH2 0x255 CALLDATASIZE PUSH1 0x4 PUSH2 0x1336 JUMP JUMPDEST PUSH2 0xAFB JUMP JUMPDEST PUSH2 0x150 PUSH2 0x268 CALLDATASIZE PUSH1 0x4 PUSH2 0x1336 JUMP JUMPDEST PUSH2 0xCBF JUMP JUMPDEST PUSH2 0x150 PUSH2 0x27B CALLDATASIZE PUSH1 0x4 PUSH2 0x10AC JUMP JUMPDEST PUSH2 0xE27 JUMP JUMPDEST PUSH1 0x60 DUP1 PUSH1 0x0 PUSH1 0x3 PUSH1 0x0 DUP6 DUP2 MSTORE PUSH1 0x20 ADD SWAP1 DUP2 MSTORE PUSH1 0x20 ADD PUSH1 0x0 KECCAK256 DUP1 SLOAD DUP1 PUSH1 0x20 MUL PUSH1 0x20 ADD PUSH1 0x40 MLOAD SWAP1 DUP2 ADD PUSH1 0x40 MSTORE DUP1 SWAP3 SWAP2 SWAP1 DUP2 DUP2 MSTORE PUSH1 0x20 ADD PUSH1 0x0 SWAP1 JUMPDEST DUP3 DUP3 LT ISZERO PUSH2 0x386 JUMPI DUP4 DUP3 SWAP1 PUSH1 0x0 MSTORE PUSH1 0x20 PUSH1 0x0 KECCAK256 SWAP1 PUSH1 0x2 MUL ADD PUSH1 0x40 MLOAD DUP1 PUSH1 0x40 ADD PUSH1 0x40 MSTORE SWAP1 DUP2 PUSH1 0x0 DUP3 ADD DUP1 SLOAD PUSH2 0x2EB SWAP1 PUSH2 0x13F1 JUMP JUMPDEST DUP1 PUSH1 0x1F ADD PUSH1 0x20 DUP1 SWAP2 DIV MUL PUSH1 0x20 ADD PUSH1 0x40 MLOAD SWAP1 DUP2 ADD PUSH1 0x40 MSTORE DUP1 SWAP3 SWAP2 SWAP1 DUP2 DUP2 MSTORE PUSH1 0x20 ADD DUP3 DUP1 SLOAD PUSH2 0x317 SWAP1 PUSH2 0x13F1 JUMP JUMPDEST DUP1 ISZERO PUSH2 0x364 JUMPI DUP1 PUSH1 0x1F LT PUSH2 0x339 JUMPI PUSH2 0x100 DUP1 DUP4 SLOAD DIV MUL DUP4 MSTORE SWAP2 PUSH1 0x20 ADD SWAP2 PUSH2 0x364 JUMP JUMPDEST DUP3 ADD SWAP2 SWAP1 PUSH1 0x0 MSTORE PUSH1 0x20 PUSH1 0x0 KECCAK256 SWAP1 JUMPDEST DUP2 SLOAD DUP2 MSTORE SWAP1 PUSH1 0x1 ADD SWAP1 PUSH1 0x20 ADD DUP1 DUP4 GT PUSH2 0x347 JUMPI DUP3 SWAP1 SUB PUSH1 0x1F AND DUP3 ADD SWAP2 JUMPDEST POP POP POP POP POP DUP2 MSTORE PUSH1 0x20 ADD PUSH1 0x1 DUP3 ADD SLOAD DUP2 MSTORE POP POP DUP2 MSTORE PUSH1 0x20 ADD SWAP1 PUSH1 0x1 ADD SWAP1 PUSH2 0x2B8 JUMP JUMPDEST POP POP POP POP SWAP1 POP PUSH1 0x0 DUP2 MLOAD PUSH8 0xFFFFFFFFFFFFFFFF DUP2 GT ISZERO PUSH2 0x3A8 JUMPI PUSH2 0x3A8 PUSH2 0x1320 JUMP JUMPDEST PUSH1 0x40 MLOAD SWAP1 DUP1 DUP3 MSTORE DUP1 PUSH1 0x20 MUL PUSH1 0x20 ADD DUP3 ADD PUSH1 0x40 MSTORE DUP1 ISZERO PUSH2 0x3DB JUMPI DUP2 PUSH1 0x20 ADD JUMPDEST PUSH1 0x60 DUP2 MSTORE PUSH1 0x20 ADD SWAP1 PUSH1 0x1 SWAP1 SUB SWAP1 DUP2 PUSH2 0x3C6 JUMPI SWAP1 POP JUMPDEST POP SWAP1 POP PUSH1 0x0 DUP3 MLOAD PUSH8 0xFFFFFFFFFFFFFFFF DUP2 GT ISZERO PUSH2 0x3FA JUMPI PUSH2 0x3FA PUSH2 0x1320 JUMP JUMPDEST PUSH1 0x40 MLOAD SWAP1 DUP1 DUP3 MSTORE DUP1 PUSH1 0x20 MUL PUSH1 0x20 ADD DUP3 ADD PUSH1 0x40 MSTORE DUP1 ISZERO PUSH2 0x423 JUMPI DUP2 PUSH1 0x20 ADD PUSH1 0x20 DUP3 MUL DUP1 CALLDATASIZE DUP4 CALLDATACOPY ADD SWAP1 POP JUMPDEST POP SWAP1 POP PUSH1 0x0 JUMPDEST DUP4 MLOAD DUP2 LT ISZERO PUSH2 0x4BA JUMPI DUP4 DUP2 DUP2 MLOAD DUP2 LT PUSH2 0x444 JUMPI PUSH2 0x444 PUSH2 0x142B JUMP JUMPDEST PUSH1 0x20 MUL PUSH1 0x20 ADD ADD MLOAD PUSH1 0x0 ADD MLOAD DUP4 DUP3 DUP2 MLOAD DUP2 LT PUSH2 0x462 JUMPI PUSH2 0x462 PUSH2 0x142B JUMP JUMPDEST PUSH1 0x20 MUL PUSH1 0x20 ADD ADD DUP2 SWAP1 MSTORE POP DUP4 DUP2 DUP2 MLOAD DUP2 LT PUSH2 0x47F JUMPI PUSH2 0x47F PUSH2 0x142B JUMP JUMPDEST PUSH1 0x20 MUL PUSH1 0x20 ADD ADD MLOAD PUSH1 0x20 ADD MLOAD DUP3 DUP3 DUP2 MLOAD DUP2 LT PUSH2 0x49D JUMPI PUSH2 0x49D PUSH2 0x142B JUMP JUMPDEST PUSH1 0x20 SWAP1 DUP2 MUL SWAP2 SWAP1 SWAP2 ADD ADD MSTORE DUP1 PUSH2 0x4B2 DUP2 PUSH2 0x1441 JUMP JUMPDEST SWAP2 POP POP PUSH2 0x429 JUMP JUMPDEST POP SWAP1 SWAP6 SWAP1 SWAP5 POP SWAP3 POP POP POP JUMP JUMPDEST PUSH1 0x0 DUP2 DUP2 MSTORE PUSH1 0x2 PUSH1 0x20 MSTORE PUSH1 0x40 SWAP1 KECCAK256 PUSH1 0x1 DUP2 ADD SLOAD PUSH1 0x1 PUSH1 0x1 PUSH1 0xA0 SHL SUB AND CALLER EQ PUSH2 0x52D JUMPI PUSH1 0x40 MLOAD PUSH3 0x461BCD PUSH1 0xE5 SHL DUP2 MSTORE PUSH1 0x20 PUSH1 0x4 DUP3 ADD MSTORE PUSH1 0x15 PUSH1 0x24 DUP3 ADD MSTORE PUSH21 0x27B7363C903A34329030B9B9B4B3B732B2102AA0AB PUSH1 0x59 SHL PUSH1 0x44 DUP3 ADD MSTORE PUSH1 0x64 ADD JUMPDEST PUSH1 0x40 MLOAD DUP1 SWAP2 SUB SWAP1 REVERT JUMPDEST PUSH1 0x2 PUSH1 0x3 DUP3 ADD SLOAD PUSH1 0x1 PUSH1 0xA0 SHL SWAP1 DIV PUSH1 0xFF AND PUSH1 0x6 DUP2 GT ISZERO PUSH2 0x54F JUMPI PUSH2 0x54F PUSH2 0x11EA JUMP JUMPDEST EQ PUSH2 0x59C JUMPI PUSH1 0x40 MLOAD PUSH3 0x461BCD PUSH1 0xE5 SHL DUP2 MSTORE PUSH1 0x20 PUSH1 0x4 DUP3 ADD MSTORE PUSH1 0x17 PUSH1 0x24 DUP3 ADD MSTORE PUSH32 0x4E6F7420696E2044495350415443484544207374617465000000000000000000 PUSH1 0x44 DUP3 ADD MSTORE PUSH1 0x64 ADD PUSH2 0x524 JUMP JUMPDEST PUSH1 0x3 DUP2 DUP2 ADD DUP1 SLOAD PUSH1 0xFF PUSH1 0xA0 SHL NOT AND PUSH1 0x1 PUSH1 0xA0 SHL DUP4 MUL OR SWAP1 SSTORE POP DUP2 PUSH1 0x0 DUP1 MLOAD PUSH1 0x20 PUSH2 0x15E1 DUP4 CODECOPY DUP2 MLOAD SWAP2 MSTORE PUSH1 0x3 PUSH1 0x40 MLOAD PUSH2 0x5D4 SWAP2 SWAP1 PUSH2 0x1468 JUMP JUMPDEST PUSH1 0x40 MLOAD DUP1 SWAP2 SUB SWAP1 LOG2 POP POP JUMP JUMPDEST PUSH1 0x3 PUSH1 0x20 MSTORE DUP2 PUSH1 0x0 MSTORE PUSH1 0x40 PUSH1 0x0 KECCAK256 DUP2 DUP2 SLOAD DUP2 LT PUSH2 0x5FC JUMPI PUSH1 0x0 DUP1 REVERT JUMPDEST SWAP1 PUSH1 0x0 MSTORE PUSH1 0x20 PUSH1 0x0 KECCAK256 SWAP1 PUSH1 0x2 MUL ADD PUSH1 0x0 SWAP2 POP SWAP2 POP POP DUP1 PUSH1 0x0 ADD DUP1 SLOAD PUSH2 0x620 SWAP1 PUSH2 0x13F1 JUMP JUMPDEST DUP1 PUSH1 0x1F ADD PUSH1 0x20 DUP1 SWAP2 DIV MUL PUSH1 0x20 ADD PUSH1 0x40 MLOAD SWAP1 DUP2 ADD PUSH1 0x40 MSTORE DUP1 SWAP3 SWAP2 SWAP1 DUP2 DUP2 MSTORE PUSH1 0x20 ADD DUP3 DUP1 SLOAD PUSH2 0x64C SWAP1 PUSH2 0x13F1 JUMP JUMPDEST DUP1 ISZERO PUSH2 0x699 JUMPI DUP1 PUSH1 0x1F LT PUSH2 0x66E JUMPI PUSH2 0x100 DUP1 DUP4 SLOAD DIV MUL DUP4 MSTORE SWAP2 PUSH1 0x20 ADD SWAP2 PUSH2 0x699 JUMP JUMPDEST DUP3 ADD SWAP2 SWAP1 PUSH1 0x0 MSTORE PUSH1 0x20 PUSH1 0x0 KECCAK256 SWAP1 JUMPDEST DUP2 SLOAD DUP2 MSTORE SWAP1 PUSH1 0x1 ADD SWAP1 PUSH1 0x20 ADD DUP1 DUP4 GT PUSH2 0x67C JUMPI DUP3 SWAP1 SUB PUSH1 0x1F AND DUP3 ADD SWAP2 JUMPDEST POP POP POP POP POP SWAP1 DUP1 PUSH1 0x1 ADD SLOAD SWAP1 POP DUP3 JUMP JUMPDEST PUSH1 0x0 DUP2 DUP2 MSTORE PUSH1 0x2 PUSH1 0x20 DUP2 DUP2 MSTORE PUSH1 0x40 DUP1 DUP5 KECCAK256 DUP2 MLOAD PUSH2 0x140 DUP2 ADD DUP4 MSTORE DUP2 SLOAD DUP2 MSTORE PUSH1 0x1 DUP3 ADD SLOAD PUSH1 0x1 PUSH1 0x1 PUSH1 0xA0 SHL SUB SWAP1 DUP2 AND SWAP5 DUP3 ADD SWAP5 SWAP1 SWAP5 MSTORE SWAP4 DUP2 ADD SLOAD DUP4 AND SWAP2 DUP5 ADD SWAP2 SWAP1 SWAP2 MSTORE PUSH1 0x3 DUP2 ADD SLOAD SWAP2 DUP3 AND PUSH1 0x60 DUP5 ADD MSTORE DUP4 SWAP3 DUP4 SWAP3 DUP4 SWAP3 DUP4 SWAP3 DUP4 SWAP3 SWAP1 SWAP2 SWAP1 PUSH1 0x80 DUP4 ADD SWAP1 PUSH1 0x1 PUSH1 0xA0 SHL SWAP1 DIV PUSH1 0xFF AND PUSH1 0x6 DUP2 GT ISZERO PUSH2 0x725 JUMPI PUSH2 0x725 PUSH2 0x11EA JUMP JUMPDEST PUSH1 0x6 DUP2 GT ISZERO PUSH2 0x736 JUMPI PUSH2 0x736 PUSH2 0x11EA JUMP JUMPDEST DUP2 MSTORE PUSH1 0x4 DUP3 DUP2 ADD SLOAD PUSH1 0x20 DUP1 DUP5 ADD SWAP2 SWAP1 SWAP2 MSTORE PUSH1 0x5 DUP5 ADD SLOAD PUSH1 0x40 DUP1 DUP6 ADD SWAP2 SWAP1 SWAP2 MSTORE PUSH1 0x6 DUP6 ADD SLOAD PUSH1 0xFF SWAP1 DUP2 AND ISZERO ISZERO PUSH1 0x60 DUP7 ADD MSTORE PUSH1 0x7 DUP7 ADD SLOAD PUSH1 0x80 DUP1 DUP8 ADD SWAP2 SWAP1 SWAP2 MSTORE PUSH1 0x8 SWAP1 SWAP7 ADD SLOAD PUSH1 0xA0 SWAP1 SWAP6 ADD SWAP5 SWAP1 SWAP5 MSTORE SWAP4 DUP6 ADD MLOAD DUP6 DUP3 ADD MLOAD PUSH2 0x120 DUP8 ADD MLOAD PUSH1 0xE0 SWAP1 SWAP8 ADD MLOAD PUSH1 0x0 SWAP15 DUP16 MSTORE SWAP4 SWAP1 SWAP3 MSTORE SWAP4 SWAP1 SWAP12 KECCAK256 SLOAD SWAP3 SWAP12 SWAP4 SWAP10 POP SWAP8 POP AND SWAP5 POP SWAP3 POP POP POP JUMP JUMPDEST PUSH1 0x0 SLOAD PUSH1 0x40 MLOAD PUSH4 0x9F8A13D7 PUSH1 0xE0 SHL DUP2 MSTORE CALLER PUSH1 0x4 DUP3 ADD MSTORE PUSH1 0x1 PUSH1 0x1 PUSH1 0xA0 SHL SUB SWAP1 SWAP2 AND SWAP1 PUSH4 0x9F8A13D7 SWAP1 PUSH1 0x24 ADD PUSH1 0x20 PUSH1 0x40 MLOAD DUP1 DUP4 SUB DUP2 DUP7 GAS STATICCALL ISZERO DUP1 ISZERO PUSH2 0x7FD JUMPI RETURNDATASIZE PUSH1 0x0 DUP1 RETURNDATACOPY RETURNDATASIZE PUSH1 0x0 REVERT JUMPDEST POP POP POP POP PUSH1 0x40 MLOAD RETURNDATASIZE PUSH1 0x1F NOT PUSH1 0x1F DUP3 ADD AND DUP3 ADD DUP1 PUSH1 0x40 MSTORE POP DUP2 ADD SWAP1 PUSH2 0x821 SWAP2 SWAP1 PUSH2 0x147C JUMP JUMPDEST PUSH2 0x861 JUMPI PUSH1 0x40 MLOAD PUSH3 0x461BCD PUSH1 0xE5 SHL DUP2 MSTORE PUSH1 0x20 PUSH1 0x4 DUP3 ADD MSTORE PUSH1 0x11 PUSH1 0x24 DUP3 ADD MSTORE PUSH17 0x1114C81B9BDD081C9959DA5CDD195C9959 PUSH1 0x7A SHL PUSH1 0x44 DUP3 ADD MSTORE PUSH1 0x64 ADD PUSH2 0x524 JUMP JUMPDEST PUSH1 0x0 SLOAD PUSH1 0x40 MLOAD PUSH4 0x9F8A13D7 PUSH1 0xE0 SHL DUP2 MSTORE PUSH1 0x1 PUSH1 0x1 PUSH1 0xA0 SHL SUB DUP6 DUP2 AND PUSH1 0x4 DUP4 ADD MSTORE SWAP1 SWAP2 AND SWAP1 PUSH4 0x9F8A13D7 SWAP1 PUSH1 0x24 ADD PUSH1 0x20 PUSH1 0x40 MLOAD DUP1 DUP4 SUB DUP2 DUP7 GAS STATICCALL ISZERO DUP1 ISZERO PUSH2 0x8AB JUMPI RETURNDATASIZE PUSH1 0x0 DUP1 RETURNDATACOPY RETURNDATASIZE PUSH1 0x0 REVERT JUMPDEST POP POP POP POP PUSH1 0x40 MLOAD RETURNDATASIZE PUSH1 0x1F NOT PUSH1 0x1F DUP3 ADD AND DUP3 ADD DUP1 PUSH1 0x40 MSTORE POP DUP2 ADD SWAP1 PUSH2 0x8CF SWAP2 SWAP1 PUSH2 0x147C JUMP JUMPDEST PUSH2 0x910 JUMPI PUSH1 0x40 MLOAD PUSH3 0x461BCD PUSH1 0xE5 SHL DUP2 MSTORE PUSH1 0x20 PUSH1 0x4 DUP3 ADD MSTORE PUSH1 0x12 PUSH1 0x24 DUP3 ADD MSTORE PUSH18 0x155055881B9BDD081C9959DA5CDD195C9959 PUSH1 0x72 SHL PUSH1 0x44 DUP3 ADD MSTORE PUSH1 0x64 ADD PUSH2 0x524 JUMP JUMPDEST PUSH1 0x0 DUP5 DUP2 MSTORE PUSH1 0x2 PUSH1 0x20 MSTORE PUSH1 0x40 SWAP1 KECCAK256 PUSH1 0x4 ADD SLOAD ISZERO PUSH2 0x96F JUMPI PUSH1 0x40 MLOAD PUSH3 0x461BCD PUSH1 0xE5 SHL DUP2 MSTORE PUSH1 0x20 PUSH1 0x4 DUP3 ADD MSTORE PUSH1 0x18 PUSH1 0x24 DUP3 ADD MSTORE PUSH32 0x44656C697665727920616C726561647920637265617465640000000000000000 PUSH1 0x44 DUP3 ADD MSTORE PUSH1 0x64 ADD PUSH2 0x524 JUMP JUMPDEST PUSH1 0x40 DUP1 MLOAD PUSH2 0x140 DUP2 ADD DUP3 MSTORE DUP6 DUP2 MSTORE PUSH1 0x1 PUSH1 0x1 PUSH1 0xA0 SHL SUB DUP6 DUP2 AND PUSH1 0x20 DUP1 DUP5 ADD SWAP2 DUP3 MSTORE DUP7 DUP4 AND DUP5 DUP7 ADD SWAP1 DUP2 MSTORE CALLER PUSH1 0x60 DUP7 ADD SWAP1 DUP2 MSTORE PUSH1 0x2 PUSH1 0x80 DUP8 ADD DUP2 DUP2 MSTORE TIMESTAMP PUSH1 0xA0 DUP10 ADD MSTORE PUSH1 0x0 PUSH1 0xC0 DUP10 ADD DUP2 SWAP1 MSTORE PUSH1 0xE0 DUP10 ADD DUP2 SWAP1 MSTORE PUSH2 0x100 DUP10 ADD DUP12 SWAP1 MSTORE PUSH2 0x120 DUP10 ADD DUP2 SWAP1 MSTORE DUP14 DUP2 MSTORE SWAP5 DUP3 SWAP1 MSTORE SWAP8 SWAP1 SWAP4 KECCAK256 DUP7 MLOAD DUP2 SSTORE SWAP4 MLOAD PUSH1 0x1 DUP6 ADD DUP1 SLOAD SWAP2 DUP8 AND PUSH1 0x1 PUSH1 0x1 PUSH1 0xA0 SHL SUB NOT SWAP3 DUP4 AND OR SWAP1 SSTORE SWAP2 MLOAD SWAP3 DUP5 ADD DUP1 SLOAD SWAP4 DUP7 AND SWAP4 DUP4 AND SWAP4 SWAP1 SWAP4 OR SWAP1 SWAP3 SSTORE SWAP1 MLOAD PUSH1 0x3 DUP4 ADD DUP1 SLOAD SWAP2 SWAP1 SWAP5 AND SWAP2 DUP2 AND DUP3 OR DUP5 SSTORE SWAP5 MLOAD SWAP4 SWAP5 SWAP2 SWAP4 SWAP3 SWAP2 PUSH1 0x1 PUSH1 0x1 PUSH1 0xA8 SHL SUB NOT AND OR PUSH1 0x1 PUSH1 0xA0 SHL DUP4 PUSH1 0x6 DUP2 GT ISZERO PUSH2 0xA4A JUMPI PUSH2 0xA4A PUSH2 0x11EA JUMP JUMPDEST MUL OR SWAP1 SSTORE POP PUSH1 0xA0 DUP3 ADD MLOAD PUSH1 0x4 DUP3 ADD SSTORE PUSH1 0xC0 DUP3 ADD MLOAD PUSH1 0x5 DUP3 ADD SSTORE PUSH1 0xE0 DUP3 ADD MLOAD PUSH1 0x6 DUP3 ADD DUP1 SLOAD PUSH1 0xFF NOT AND SWAP2 ISZERO ISZERO SWAP2 SWAP1 SWAP2 OR SWAP1 SSTORE PUSH2 0x100 DUP3 ADD MLOAD PUSH1 0x7 DUP3 ADD SSTORE PUSH2 0x120 SWAP1 SWAP2 ADD MLOAD PUSH1 0x8 SWAP1 SWAP2 ADD SSTORE PUSH1 0x40 MLOAD PUSH1 0x1 PUSH1 0x1 PUSH1 0xA0 SHL SUB DUP4 DUP2 AND SWAP2 SWAP1 DUP6 AND SWAP1 DUP7 SWAP1 PUSH32 0x1092B421ED0121C8FE803583EE93E225C3CC63533B99978E661A366240379465 SWAP1 PUSH1 0x0 SWAP1 LOG4 DUP4 PUSH1 0x0 DUP1 MLOAD PUSH1 0x20 PUSH2 0x15E1 DUP4 CODECOPY DUP2 MLOAD SWAP2 MSTORE PUSH1 0x2 PUSH1 0x40 MLOAD PUSH2 0xAED SWAP2 SWAP1 PUSH2 0x1468 JUMP JUMPDEST PUSH1 0x40 MLOAD DUP1 SWAP2 SUB SWAP1 LOG2 POP POP POP POP JUMP JUMPDEST PUSH1 0x0 DUP3 DUP2 MSTORE PUSH1 0x2 PUSH1 0x20 MSTORE PUSH1 0x40 SWAP1 KECCAK256 PUSH1 0x3 DUP2 ADD SLOAD PUSH1 0x1 PUSH1 0x1 PUSH1 0xA0 SHL SUB AND CALLER EQ PUSH2 0xB58 JUMPI PUSH1 0x40 MLOAD PUSH3 0x461BCD PUSH1 0xE5 SHL DUP2 MSTORE PUSH1 0x20 PUSH1 0x4 DUP3 ADD MSTORE PUSH1 0x10 PUSH1 0x24 DUP3 ADD MSTORE PUSH16 0x4F6E6C792061737369676E6564204453 PUSH1 0x80 SHL PUSH1 0x44 DUP3 ADD MSTORE PUSH1 0x64 ADD PUSH2 0x524 JUMP JUMPDEST PUSH1 0x3 DUP1 DUP3 ADD SLOAD PUSH1 0x1 PUSH1 0xA0 SHL SWAP1 DIV PUSH1 0xFF AND PUSH1 0x6 DUP2 GT ISZERO PUSH2 0xB79 JUMPI PUSH2 0xB79 PUSH2 0x11EA JUMP JUMPDEST EQ PUSH2 0xBBA JUMPI PUSH1 0x40 MLOAD PUSH3 0x461BCD PUSH1 0xE5 SHL DUP2 MSTORE PUSH1 0x20 PUSH1 0x4 DUP3 ADD MSTORE PUSH1 0x11 PUSH1 0x24 DUP3 ADD MSTORE PUSH17 0x155055881B9BDD081A5B88199B1A59DA1D PUSH1 0x7A SHL PUSH1 0x44 DUP3 ADD MSTORE PUSH1 0x64 ADD PUSH2 0x524 JUMP JUMPDEST PUSH1 0x3 DUP2 ADD DUP1 SLOAD PUSH1 0xFF PUSH1 0xA0 SHL NOT AND PUSH1 0x5 PUSH1 0xA0 SHL OR SWAP1 SSTORE PUSH1 0x0 DUP4 DUP2 MSTORE PUSH1 0x4 PUSH1 0x20 DUP2 SWAP1 MSTORE PUSH1 0x40 DUP1 DUP4 KECCAK256 DUP1 SLOAD PUSH1 0xFF NOT AND PUSH1 0x1 SWAP1 DUP2 OR SWAP1 SWAP2 SSTORE DUP1 SLOAD SWAP1 DUP6 ADD SLOAD DUP3 MLOAD PUSH4 0x6A08B511 PUSH1 0xE0 SHL DUP2 MSTORE PUSH1 0x1 PUSH1 0x1 PUSH1 0xA0 SHL SUB SWAP2 DUP3 AND SWAP5 DUP2 ADD SWAP5 SWAP1 SWAP5 MSTORE PUSH1 0x9 NOT PUSH1 0x24 DUP6 ADD MSTORE SWAP2 MLOAD SWAP2 AND SWAP3 PUSH4 0x6A08B511 SWAP3 PUSH1 0x44 DUP1 DUP3 ADD SWAP4 SWAP2 DUP3 SWAP1 SUB ADD DUP2 DUP4 DUP8 DUP1 EXTCODESIZE ISZERO DUP1 ISZERO PUSH2 0xC41 JUMPI PUSH1 0x0 DUP1 REVERT JUMPDEST POP GAS CALL ISZERO DUP1 ISZERO PUSH2 0xC55 JUMPI RETURNDATASIZE PUSH1 0x0 DUP1 RETURNDATACOPY RETURNDATASIZE PUSH1 0x0 REVERT JUMPDEST POP POP POP POP DUP3 PUSH32 0xE2773DA284A228351AF9E62664CF151F754E06466D79ED0922B4A4B226E63A8F CALLER DUP5 PUSH1 0x40 MLOAD PUSH2 0xC8B SWAP3 SWAP2 SWAP1 PUSH2 0x14A5 JUMP JUMPDEST PUSH1 0x40 MLOAD DUP1 SWAP2 SUB SWAP1 LOG2 DUP3 PUSH1 0x0 DUP1 MLOAD PUSH1 0x20 PUSH2 0x15E1 DUP4 CODECOPY DUP2 MLOAD SWAP2 MSTORE PUSH1 0x5 PUSH1 0x40 MLOAD PUSH2 0xCB2 SWAP2 SWAP1 PUSH2 0x1468 JUMP JUMPDEST PUSH1 0x40 MLOAD DUP1 SWAP2 SUB SWAP1 LOG2 POP POP POP JUMP JUMPDEST PUSH1 0x0 DUP3 DUP2 MSTORE PUSH1 0x2 PUSH1 0x20 MSTORE PUSH1 0x40 SWAP1 KECCAK256 PUSH1 0x1 DUP2 ADD SLOAD PUSH1 0x1 PUSH1 0x1 PUSH1 0xA0 SHL SUB AND CALLER EQ PUSH2 0xD29 JUMPI PUSH1 0x40 MLOAD PUSH3 0x461BCD PUSH1 0xE5 SHL DUP2 MSTORE PUSH1 0x20 PUSH1 0x4 DUP3 ADD MSTORE PUSH1 0x1D PUSH1 0x24 DUP3 ADD MSTORE PUSH32 0x4F6E6C792061737369676E6564205541562063616E206C6F6720475053000000 PUSH1 0x44 DUP3 ADD MSTORE PUSH1 0x64 ADD PUSH2 0x524 JUMP JUMPDEST PUSH1 0x3 DUP1 DUP3 ADD SLOAD PUSH1 0x1 PUSH1 0xA0 SHL SWAP1 DIV PUSH1 0xFF AND PUSH1 0x6 DUP2 GT ISZERO PUSH2 0xD4A JUMPI PUSH2 0xD4A PUSH2 0x11EA JUMP JUMPDEST EQ PUSH2 0xD8B JUMPI PUSH1 0x40 MLOAD PUSH3 0x461BCD PUSH1 0xE5 SHL DUP2 MSTORE PUSH1 0x20 PUSH1 0x4 DUP3 ADD MSTORE PUSH1 0x11 PUSH1 0x24 DUP3 ADD MSTORE PUSH17 0x155055881B9BDD081A5B88199B1A59DA1D PUSH1 0x7A SHL PUSH1 0x44 DUP3 ADD MSTORE PUSH1 0x64 ADD PUSH2 0x524 JUMP JUMPDEST PUSH1 0x0 DUP4 DUP2 MSTORE PUSH1 0x3 PUSH1 0x20 SWAP1 DUP2 MSTORE PUSH1 0x40 DUP1 DUP4 KECCAK256 DUP2 MLOAD DUP1 DUP4 ADD SWAP1 SWAP3 MSTORE DUP6 DUP3 MSTORE TIMESTAMP DUP3 DUP5 ADD MSTORE DUP1 SLOAD PUSH1 0x1 DUP2 ADD DUP3 SSTORE SWAP1 DUP5 MSTORE SWAP2 SWAP1 SWAP3 KECCAK256 DUP3 MLOAD PUSH1 0x2 SWAP1 SWAP3 MUL ADD SWAP1 DUP2 SWAP1 PUSH2 0xDD0 SWAP1 DUP3 PUSH2 0x1520 JUMP JUMPDEST POP PUSH1 0x20 SWAP2 SWAP1 SWAP2 ADD MLOAD PUSH1 0x1 SWAP1 SWAP2 ADD SSTORE PUSH1 0x8 DUP2 ADD DUP1 SLOAD SWAP1 PUSH1 0x0 PUSH2 0xDF0 DUP4 PUSH2 0x1441 JUMP JUMPDEST SWAP2 SWAP1 POP SSTORE POP DUP3 PUSH32 0x5470CD5F45A1AF23A5D5AB13307345ECC9E294AF289640F0BED06CE5845C20C7 DUP4 TIMESTAMP PUSH1 0x40 MLOAD PUSH2 0xCB2 SWAP3 SWAP2 SWAP1 PUSH2 0x11C8 JUMP JUMPDEST PUSH1 0x0 DUP2 DUP2 MSTORE PUSH1 0x2 PUSH1 0x20 DUP2 SWAP1 MSTORE PUSH1 0x40 SWAP1 SWAP2 KECCAK256 SWAP1 DUP2 ADD SLOAD PUSH1 0x1 PUSH1 0x1 PUSH1 0xA0 SHL SUB AND CALLER EQ PUSH2 0xEA1 JUMPI PUSH1 0x40 MLOAD PUSH3 0x461BCD PUSH1 0xE5 SHL DUP2 MSTORE PUSH1 0x20 PUSH1 0x4 DUP3 ADD MSTORE PUSH1 0x25 PUSH1 0x24 DUP3 ADD MSTORE PUSH32 0x4F6E6C79207468652070617469656E742063616E20636F6E6669726D2064656C PUSH1 0x44 DUP3 ADD MSTORE PUSH5 0x6976657279 PUSH1 0xD8 SHL PUSH1 0x64 DUP3 ADD MSTORE PUSH1 0x84 ADD PUSH2 0x524 JUMP JUMPDEST PUSH1 0x3 DUP1 DUP3 ADD SLOAD PUSH1 0x1 PUSH1 0xA0 SHL SWAP1 DIV PUSH1 0xFF AND PUSH1 0x6 DUP2 GT ISZERO PUSH2 0xEC2 JUMPI PUSH2 0xEC2 PUSH2 0x11EA JUMP JUMPDEST EQ DUP1 PUSH2 0xEED JUMPI POP PUSH1 0x2 PUSH1 0x3 DUP3 ADD SLOAD PUSH1 0x1 PUSH1 0xA0 SHL SWAP1 DIV PUSH1 0xFF AND PUSH1 0x6 DUP2 GT ISZERO PUSH2 0xEEB JUMPI PUSH2 0xEEB PUSH2 0x11EA JUMP JUMPDEST EQ JUMPDEST PUSH2 0xF39 JUMPI PUSH1 0x40 MLOAD PUSH3 0x461BCD PUSH1 0xE5 SHL DUP2 MSTORE PUSH1 0x20 PUSH1 0x4 DUP3 ADD MSTORE PUSH1 0x18 PUSH1 0x24 DUP3 ADD MSTORE PUSH32 0x44656C6976657279206E6F7420696E2070726F67726573730000000000000000 PUSH1 0x44 DUP3 ADD MSTORE PUSH1 0x64 ADD PUSH2 0x524 JUMP JUMPDEST PUSH1 0x3 DUP2 ADD DUP1 SLOAD PUSH1 0xFF PUSH1 0xA0 SHL NOT AND PUSH1 0x1 PUSH1 0xA2 SHL OR SWAP1 SSTORE TIMESTAMP PUSH1 0x5 DUP3 ADD DUP2 SWAP1 SSTORE PUSH1 0x7 DUP3 ADD SLOAD PUSH1 0x6 DUP4 ADD DUP1 SLOAD PUSH1 0xFF NOT AND SWAP2 SWAP1 SWAP3 GT DUP1 ISZERO SWAP2 DUP3 OR SWAP1 SWAP3 SSTORE SWAP1 PUSH2 0xFE5 JUMPI PUSH1 0x1 DUP1 SLOAD SWAP1 DUP4 ADD SLOAD PUSH1 0x40 MLOAD PUSH4 0x6A08B511 PUSH1 0xE0 SHL DUP2 MSTORE PUSH1 0x1 PUSH1 0x1 PUSH1 0xA0 SHL SUB SWAP2 DUP3 AND PUSH1 0x4 DUP3 ADD MSTORE PUSH1 0x5 PUSH1 0x24 DUP3 ADD MSTORE SWAP2 AND SWAP1 PUSH4 0x6A08B511 SWAP1 PUSH1 0x44 ADD PUSH1 0x0 PUSH1 0x40 MLOAD DUP1 DUP4 SUB DUP2 PUSH1 0x0 DUP8 DUP1 EXTCODESIZE ISZERO DUP1 ISZERO PUSH2 0xFC8 JUMPI PUSH1 0x0 DUP1 REVERT JUMPDEST POP GAS CALL ISZERO DUP1 ISZERO PUSH2 0xFDC JUMPI RETURNDATASIZE PUSH1 0x0 DUP1 RETURNDATACOPY RETURNDATASIZE PUSH1 0x0 REVERT JUMPDEST POP POP POP POP PUSH2 0x1051 JUMP JUMPDEST PUSH1 0x1 DUP1 SLOAD SWAP1 DUP4 ADD SLOAD PUSH1 0x40 MLOAD PUSH4 0x6A08B511 PUSH1 0xE0 SHL DUP2 MSTORE PUSH1 0x1 PUSH1 0x1 PUSH1 0xA0 SHL SUB SWAP2 DUP3 AND PUSH1 0x4 DUP3 ADD MSTORE PUSH1 0x4 NOT PUSH1 0x24 DUP3 ADD MSTORE SWAP2 AND SWAP1 PUSH4 0x6A08B511 SWAP1 PUSH1 0x44 ADD PUSH1 0x0 PUSH1 0x40 MLOAD DUP1 DUP4 SUB DUP2 PUSH1 0x0 DUP8 DUP1 EXTCODESIZE ISZERO DUP1 ISZERO PUSH2 0x1038 JUMPI PUSH1 0x0 DUP1 REVERT JUMPDEST POP GAS CALL ISZERO DUP1 ISZERO PUSH2 0x104C JUMPI RETURNDATASIZE PUSH1 0x0 DUP1 RETURNDATACOPY RETURNDATASIZE PUSH1 0x0 REVERT JUMPDEST POP POP POP POP JUMPDEST PUSH1 0x40 DUP1 MLOAD CALLER DUP2 MSTORE DUP3 ISZERO ISZERO PUSH1 0x20 DUP3 ADD MSTORE DUP5 SWAP2 PUSH32 0x4E98168EE01F9BA12C4872C54973FF61E5FE06C7D7EDF27903D41CF47830A646 SWAP2 ADD PUSH1 0x40 MLOAD DUP1 SWAP2 SUB SWAP1 LOG2 DUP3 PUSH1 0x0 DUP1 MLOAD PUSH1 0x20 PUSH2 0x15E1 DUP4 CODECOPY DUP2 MLOAD SWAP2 MSTORE PUSH1 0x4 PUSH1 0x40 MLOAD PUSH2 0xCB2 SWAP2 SWAP1 PUSH2 0x1468 JUMP JUMPDEST PUSH1 0x0 PUSH1 0x20 DUP3 DUP5 SUB SLT ISZERO PUSH2 0x10BE JUMPI PUSH1 0x0 DUP1 REVERT JUMPDEST POP CALLDATALOAD SWAP2 SWAP1 POP JUMP JUMPDEST PUSH1 0x0 DUP2 MLOAD DUP1 DUP5 MSTORE PUSH1 0x0 JUMPDEST DUP2 DUP2 LT ISZERO PUSH2 0x10EB JUMPI PUSH1 0x20 DUP2 DUP6 ADD DUP2 ADD MLOAD DUP7 DUP4 ADD DUP3 ADD MSTORE ADD PUSH2 0x10CF JUMP JUMPDEST POP PUSH1 0x0 PUSH1 0x20 DUP3 DUP7 ADD ADD MSTORE PUSH1 0x20 PUSH1 0x1F NOT PUSH1 0x1F DUP4 ADD AND DUP6 ADD ADD SWAP2 POP POP SWAP3 SWAP2 POP POP JUMP JUMPDEST PUSH1 0x0 PUSH1 0x40 DUP3 ADD PUSH1 0x40 DUP4 MSTORE DUP1 DUP6 MLOAD DUP1 DUP4 MSTORE PUSH1 0x60 DUP6 ADD SWAP2 POP PUSH1 0x60 DUP2 PUSH1 0x5 SHL DUP7 ADD ADD SWAP3 POP PUSH1 0x20 DUP1 DUP9 ADD PUSH1 0x0 JUMPDEST DUP4 DUP2 LT ISZERO PUSH2 0x1162 JUMPI PUSH1 0x5F NOT DUP9 DUP8 SUB ADD DUP6 MSTORE PUSH2 0x1150 DUP7 DUP4 MLOAD PUSH2 0x10C5 JUMP JUMPDEST SWAP6 POP SWAP4 DUP3 ADD SWAP4 SWAP1 DUP3 ADD SWAP1 PUSH1 0x1 ADD PUSH2 0x1134 JUMP JUMPDEST POP POP DUP6 DUP5 SUB DUP2 DUP8 ADD MSTORE DUP7 MLOAD DUP1 DUP6 MSTORE DUP8 DUP3 ADD SWAP5 DUP3 ADD SWAP4 POP SWAP2 POP PUSH1 0x0 JUMPDEST DUP3 DUP2 LT ISZERO PUSH2 0x1199 JUMPI DUP5 MLOAD DUP5 MSTORE SWAP4 DUP2 ADD SWAP4 SWAP3 DUP2 ADD SWAP3 PUSH1 0x1 ADD PUSH2 0x117D JUMP JUMPDEST POP SWAP2 SWAP8 SWAP7 POP POP POP POP POP POP POP JUMP JUMPDEST PUSH1 0x0 DUP1 PUSH1 0x40 DUP4 DUP6 SUB SLT ISZERO PUSH2 0x11B9 JUMPI PUSH1 0x0 DUP1 REVERT JUMPDEST POP POP DUP1 CALLDATALOAD SWAP3 PUSH1 0x20 SWAP1 SWAP2 ADD CALLDATALOAD SWAP2 POP JUMP JUMPDEST PUSH1 0x40 DUP2 MSTORE PUSH1 0x0 PUSH2 0x11DB PUSH1 0x40 DUP4 ADD DUP6 PUSH2 0x10C5 JUMP JUMPDEST SWAP1 POP DUP3 PUSH1 0x20 DUP4 ADD MSTORE SWAP4 SWAP3 POP POP POP JUMP JUMPDEST PUSH4 0x4E487B71 PUSH1 0xE0 SHL PUSH1 0x0 MSTORE PUSH1 0x21 PUSH1 0x4 MSTORE PUSH1 0x24 PUSH1 0x0 REVERT JUMPDEST PUSH1 0x7 DUP2 LT PUSH2 0x121E JUMPI PUSH4 0x4E487B71 PUSH1 0xE0 SHL PUSH1 0x0 MSTORE PUSH1 0x21 PUSH1 0x4 MSTORE PUSH1 0x24 PUSH1 0x0 REVERT JUMPDEST SWAP1 MSTORE JUMP JUMPDEST DUP11 DUP2 MSTORE PUSH1 0x1 PUSH1 0x1 PUSH1 0xA0 SHL SUB DUP11 DUP2 AND PUSH1 0x20 DUP4 ADD MSTORE DUP10 DUP2 AND PUSH1 0x40 DUP4 ADD MSTORE DUP9 AND PUSH1 0x60 DUP3 ADD MSTORE PUSH2 0x140 DUP2 ADD PUSH2 0x1256 PUSH1 0x80 DUP4 ADD DUP10 PUSH2 0x1200 JUMP JUMPDEST PUSH1 0xA0 DUP3 ADD SWAP7 SWAP1 SWAP7 MSTORE PUSH1 0xC0 DUP2 ADD SWAP5 SWAP1 SWAP5 MSTORE SWAP2 ISZERO ISZERO PUSH1 0xE0 DUP5 ADD MSTORE PUSH2 0x100 DUP4 ADD MSTORE PUSH2 0x120 SWAP1 SWAP2 ADD MSTORE SWAP6 SWAP5 POP POP POP POP POP JUMP JUMPDEST PUSH1 0xA0 DUP2 ADD PUSH2 0x1292 DUP3 DUP9 PUSH2 0x1200 JUMP JUMPDEST PUSH1 0x1 PUSH1 0x1 PUSH1 0xA0 SHL SUB SWAP6 SWAP1 SWAP6 AND PUSH1 0x20 DUP3 ADD MSTORE PUSH1 0x40 DUP2 ADD SWAP4 SWAP1 SWAP4 MSTORE SWAP1 ISZERO ISZERO PUSH1 0x60 DUP4 ADD MSTORE ISZERO ISZERO PUSH1 0x80 SWAP1 SWAP2 ADD MSTORE SWAP2 SWAP1 POP JUMP JUMPDEST DUP1 CALLDATALOAD PUSH1 0x1 PUSH1 0x1 PUSH1 0xA0 SHL SUB DUP2 AND DUP2 EQ PUSH2 0x12D7 JUMPI PUSH1 0x0 DUP1 REVERT JUMPDEST SWAP2 SWAP1 POP JUMP JUMPDEST PUSH1 0x0 DUP1 PUSH1 0x0 DUP1 PUSH1 0x80 DUP6 DUP8 SUB SLT ISZERO PUSH2 0x12F2 JUMPI PUSH1 0x0 DUP1 REVERT JUMPDEST DUP5 CALLDATALOAD SWAP4 POP PUSH2 0x1302 PUSH1 0x20 DUP7 ADD PUSH2 0x12C0 JUMP JUMPDEST SWAP3 POP PUSH2 0x1310 PUSH1 0x40 DUP7 ADD PUSH2 0x12C0 JUMP JUMPDEST SWAP4 SWAP7 SWAP3 SWAP6 POP SWAP3 SWAP4 PUSH1 0x60 ADD CALLDATALOAD SWAP3 POP POP JUMP JUMPDEST PUSH4 0x4E487B71 PUSH1 0xE0 SHL PUSH1 0x0 MSTORE PUSH1 0x41 PUSH1 0x4 MSTORE PUSH1 0x24 PUSH1 0x0 REVERT JUMPDEST PUSH1 0x0 DUP1 PUSH1 0x40 DUP4 DUP6 SUB SLT ISZERO PUSH2 0x1349 JUMPI PUSH1 0x0 DUP1 REVERT JUMPDEST DUP3 CALLDATALOAD SWAP2 POP PUSH1 0x20 DUP4 ADD CALLDATALOAD PUSH8 0xFFFFFFFFFFFFFFFF DUP1 DUP3 GT ISZERO PUSH2 0x1368 JUMPI PUSH1 0x0 DUP1 REVERT JUMPDEST DUP2 DUP6 ADD SWAP2 POP DUP6 PUSH1 0x1F DUP4 ADD SLT PUSH2 0x137C JUMPI PUSH1 0x0 DUP1 REVERT JUMPDEST DUP2 CALLDATALOAD DUP2 DUP2 GT ISZERO PUSH2 0x138E JUMPI PUSH2 0x138E PUSH2 0x1320 JUMP JUMPDEST PUSH1 0x40 MLOAD PUSH1 0x1F DUP3 ADD PUSH1 0x1F NOT SWAP1 DUP2 AND PUSH1 0x3F ADD AND DUP2 ADD SWAP1 DUP4 DUP3 GT DUP2 DUP4 LT OR ISZERO PUSH2 0x13B6 JUMPI PUSH2 0x13B6 PUSH2 0x1320 JUMP JUMPDEST DUP2 PUSH1 0x40 MSTORE DUP3 DUP2 MSTORE DUP9 PUSH1 0x20 DUP5 DUP8 ADD ADD GT ISZERO PUSH2 0x13CF JUMPI PUSH1 0x0 DUP1 REVERT JUMPDEST DUP3 PUSH1 0x20 DUP7 ADD PUSH1 0x20 DUP4 ADD CALLDATACOPY PUSH1 0x0 PUSH1 0x20 DUP5 DUP4 ADD ADD MSTORE DUP1 SWAP6 POP POP POP POP POP POP SWAP3 POP SWAP3 SWAP1 POP JUMP JUMPDEST PUSH1 0x1 DUP2 DUP2 SHR SWAP1 DUP3 AND DUP1 PUSH2 0x1405 JUMPI PUSH1 0x7F DUP3 AND SWAP2 POP JUMPDEST PUSH1 0x20 DUP3 LT DUP2 SUB PUSH2 0x1425 JUMPI PUSH4 0x4E487B71 PUSH1 0xE0 SHL PUSH1 0x0 MSTORE PUSH1 0x22 PUSH1 0x4 MSTORE PUSH1 0x24 PUSH1 0x0 REVERT JUMPDEST POP SWAP2 SWAP1 POP JUMP JUMPDEST PUSH4 0x4E487B71 PUSH1 0xE0 SHL PUSH1 0x0 MSTORE PUSH1 0x32 PUSH1 0x4 MSTORE PUSH1 0x24 PUSH1 0x0 REVERT JUMPDEST PUSH1 0x0 PUSH1 0x1 DUP3 ADD PUSH2 0x1461 JUMPI PUSH4 0x4E487B71 PUSH1 0xE0 SHL PUSH1 0x0 MSTORE PUSH1 0x11 PUSH1 0x4 MSTORE PUSH1 0x24 PUSH1 0x0 REVERT JUMPDEST POP PUSH1 0x1 ADD SWAP1 JUMP JUMPDEST PUSH1 0x20 DUP2 ADD PUSH2 0x1476 DUP3 DUP5 PUSH2 0x1200 JUMP JUMPDEST SWAP3 SWAP2 POP POP JUMP JUMPDEST PUSH1 0x0 PUSH1 0x20 DUP3 DUP5 SUB SLT ISZERO PUSH2 0x148E JUMPI PUSH1 0x0 DUP1 REVERT JUMPDEST DUP2 MLOAD DUP1 ISZERO ISZERO DUP2 EQ PUSH2 0x149E JUMPI PUSH1 0x0 DUP1 REVERT JUMPDEST SWAP4 SWAP3 POP POP POP JUMP JUMPDEST PUSH1 0x1 PUSH1 0x1 PUSH1 0xA0 SHL SUB DUP4 AND DUP2 MSTORE PUSH1 0x40 PUSH1 0x20 DUP3 ADD DUP2 SWAP1 MSTORE PUSH1 0x0 SWAP1 PUSH2 0x14C9 SWAP1 DUP4 ADD DUP5 PUSH2 0x10C5 JUMP JUMPDEST SWAP5 SWAP4 POP POP POP POP JUMP JUMPDEST PUSH1 0x1F DUP3 GT ISZERO PUSH2 0x151B JUMPI PUSH1 0x0 DUP2 DUP2 MSTORE PUSH1 0x20 DUP2 KECCAK256 PUSH1 0x1F DUP6 ADD PUSH1 0x5 SHR DUP2 ADD PUSH1 0x20 DUP7 LT ISZERO PUSH2 0x14F8 JUMPI POP DUP1 JUMPDEST PUSH1 0x1F DUP6 ADD PUSH1 0x5 SHR DUP3 ADD SWAP2 POP JUMPDEST DUP2 DUP2 LT ISZERO PUSH2 0x1517 JUMPI DUP3 DUP2 SSTORE PUSH1 0x1 ADD PUSH2 0x1504 JUMP JUMPDEST POP POP POP JUMPDEST POP POP POP JUMP JUMPDEST DUP2 MLOAD PUSH8 0xFFFFFFFFFFFFFFFF DUP2 GT ISZERO PUSH2 0x153A JUMPI PUSH2 0x153A PUSH2 0x1320 JUMP JUMPDEST PUSH2 0x154E DUP2 PUSH2 0x1548 DUP5 SLOAD PUSH2 0x13F1 JUMP JUMPDEST DUP5 PUSH2 0x14D1 JUMP JUMPDEST PUSH1 0x20 DUP1 PUSH1 0x1F DUP4 GT PUSH1 0x1 DUP2 EQ PUSH2 0x1583 JUMPI PUSH1 0x0 DUP5 ISZERO PUSH2 0x156B JUMPI POP DUP6 DUP4 ADD MLOAD JUMPDEST PUSH1 0x0 NOT PUSH1 0x3 DUP7 SWAP1 SHL SHR NOT AND PUSH1 0x1 DUP6 SWAP1 SHL OR DUP6 SSTORE PUSH2 0x1517 JUMP JUMPDEST PUSH1 0x0 DUP6 DUP2 MSTORE PUSH1 0x20 DUP2 KECCAK256 PUSH1 0x1F NOT DUP7 AND SWAP2 JUMPDEST DUP3 DUP2 LT ISZERO PUSH2 0x15B2 JUMPI DUP9 DUP7 ADD MLOAD DUP3 SSTORE SWAP5 DUP5 ADD SWAP5 PUSH1 0x1 SWAP1 SWAP2 ADD SWAP1 DUP5 ADD PUSH2 0x1593 JUMP JUMPDEST POP DUP6 DUP3 LT ISZERO PUSH2 0x15D0 JUMPI DUP8 DUP6 ADD MLOAD PUSH1 0x0 NOT PUSH1 0x3 DUP9 SWAP1 SHL PUSH1 0xF8 AND SHR NOT AND DUP2 SSTORE JUMPDEST POP POP POP POP POP PUSH1 0x1 SWAP1 DUP2 SHL ADD SWAP1 SSTORE POP JUMP INVALID 0x2D 0xA7 0xB2 EXTCODECOPY 0xA6 EXTCODECOPY 0x1E 0xB9 PUSH10 0xEEE5FAE4ACB98186ABEC CREATE2 CALLDATALOAD DUP12 SUB SLOAD 0xA8 0x2A MLOAD DUP4 0xEB 0xCA PUSH12 0x2AA2646970667358221220D1 DUP11 BASEFEE REVERT PUSH10 0xCEB6C35A7C2852912E5E PUSH7 0x18741663848F5F PUSH2 0x8724 SDIV 0x2E SWAP10 0xF6 0xEB STATICCALL PUSH5 0x736F6C6343 STOP ADDMOD EQ STOP CALLER "},"methodIdentifiers":{"confirmDelivery(uint256)":"fd84cb97","createDelivery(uint256,address,address,uint256)":"e785e34a","deliveries(uint256)":"a9e4a324","deviationFlagged(uint256)":"49c13b90","flagDeviation(uint256,string)":"e87bb14a","getDeliveryStatus(uint256)":"e25a875e","getGPSLog(uint256)":"281b945a","gpsLogs(uint256,uint256)":"a5f5ed79","logGPS(uint256,string)":"ed708c55","sc1()":"0c1f629d","sc4()":"9a03580e","setInFlight(uint256)":"75f3b078"}}}}}