{"contracts/SC4_DCSScoring.sol":{"SC4_DCSScoring":{"abi":[{"inputs":[{"internalType":"address","name":"sc1Addr","type":"address"}],"stateMutability":"nonpayable","type":"constructor"},{"anonymous":false,"inputs":[{"indexed":true,"internalType":"address","name":"uav","type":"address"},{"indexed":false,"internalType":"int256","name":"delta","type":"int256"},{"indexed":false,"internalType":"int256","name":"newScore","type":"int256"}],"name":"ReputationUpdated","type":"event"},{"anonymous":false,"inputs":[{"indexed":true,"internalType":"uint256","name":"roundId","type":"uint256"},{"indexed":false,"internalType":"uint256","name":"orderId","type":"uint256"},{"indexed":false,"internalType":"address","name":"droneStation","type":"address"}],"name":"RoundOpened","type":"event"},{"anonymous":false,"inputs":[{"indexed":true,"internalType":"uint256","name":"roundId","type":"uint256"},{"indexed":true,"internalType":"address","name":"uav","type":"address"},{"indexed":false,"internalType":"uint256","name":"score","type":"uint256"}],"name":"ScoreSubmitted","type":"event"},{"anonymous":false,"inputs":[{"indexed":true,"internalType":"uint256","name":"roundId","type":"uint256"},{"indexed":true,"internalType":"address","name":"winner","type":"address"},{"indexed":false,"internalType":"uint256","name":"score","type":"uint256"}],"name":"WinnerSelected","type":"event"},{"inputs":[{"internalType":"uint256","name":"roundId","type":"uint256"}],"name":"closeRound","outputs":[],"stateMutability":"nonpayable","type":"function"},{"inputs":[{"internalType":"uint256","name":"speed","type":"uint256"},{"internalType":"uint256","name":"payload","type":"uint256"},{"internalType":"uint256","name":"battery","type":"uint256"},{"internalType":"uint256","name":"cpu","type":"uint256"},{"internalType":"uint256","name":"ram","type":"uint256"}],"name":"computeScore","outputs":[{"internalType":"uint256","name":"","type":"uint256"}],"stateMutability":"pure","type":"function"},{"inputs":[{"internalType":"uint256","name":"roundId","type":"uint256"}],"name":"getWinner","outputs":[{"internalType":"address","name":"winner","type":"address"},{"internalType":"uint256","name":"score","type":"uint256"}],"stateMutability":"view","type":"function"},{"inputs":[{"internalType":"address","name":"_sc6","type":"address"}],"name":"linkSC6","outputs":[],"stateMutability":"nonpayable","type":"function"},{"inputs":[{"internalType":"uint256","name":"orderId","type":"uint256"}],"name":"openRound","outputs":[{"internalType":"uint256","name":"roundId","type":"uint256"}],"stateMutability":"nonpayable","type":"function"},{"inputs":[{"internalType":"address","name":"","type":"address"}],"name":"reputationScore","outputs":[{"internalType":"int256","name":"","type":"int256"}],"stateMutability":"view","type":"function"},{"inputs":[],"name":"roundCount","outputs":[{"internalType":"uint256","name":"","type":"uint256"}],"stateMutability":"view","type":"function"},{"inputs":[{"internalType":"uint256","name":"","type":"uint256"},{"internalType":"uint256","name":"","type":"uint256"}],"name":"roundParticipants","outputs":[{"internalType":"address","name":"","type":"address"}],"stateMutability":"view","type":"function"},{"inputs":[{"internalType":"uint256","name":"","type":"uint256"}],"name":"rounds","outputs":[{"internalType":"uint256","name":"orderId","type":"uint256"},{"internalType":"address","name":"droneStation","type":"address"},{"internalType":"bool","name":"isOpen","type":"bool"},{"internalType":"address","name":"winner","type":"address"},{"internalType":"uint256","name":"winnerScore","type":"uint256"},{"internalType":"uint256","name":"submissionCount","type":"uint256"}],"stateMutability":"view","type":"function"},{"inputs":[],"name":"sc1","outputs":[{"internalType":"contract ISC1_v4","name":"","type":"address"}],"stateMutability":"view","type":"function"},{"inputs":[],"name":"sc6Address","outputs":[{"internalType":"address","name":"","type":"address"}],"stateMutability":"view","type":"function"},{"inputs":[{"internalType":"uint256","name":"","type":"uint256"},{"internalType":"address","name":"","type":"address"}],"name":"submissions","outputs":[{"internalType":"address","name":"uavAddress","type":"address"},{"internalType":"uint256","name":"score","type":"uint256"},{"internalType":"uint256","name":"submittedAt","type":"uint256"},{"internalType":"bool","name":"verified","type":"bool"}],"stateMutability":"view","type":"function"},{"inputs":[{"internalType":"uint256","name":"roundId","type":"uint256"},{"internalType":"uint256","name":"score","type":"uint256"}],"name":"submitScore","outputs":[],"stateMutability":"nonpayable","type":"function"},{"inputs":[{"internalType":"address","name":"uav","type":"address"},{"internalType":"int256","name":"delta","type":"int256"}],"name":"updateReputation","outputs":[],"stateMutability":"nonpayable","type":"function"}],"evm":{"bytecode":{"linkReferences":{},"object":"608060405234801561001057600080fd5b5060405161113538038061113583398101604081905261002f91610054565b600080546001600160a01b0319166001600160a01b0392909216919091179055610084565b60006020828403121561006657600080fd5b81516001600160a01b038116811461007d57600080fd5b9392505050565b6110a2806100936000396000f3fe608060405234801561001057600080fd5b50600436106100ea5760003560e01c8063574d64231161008c57806388e01a981161006657806388e01a98146102615780638c65c81f14610274578063bde22ae014610306578063de26eadf1461031957600080fd5b8063574d6423146102265780636a08b5111461023b5780638358ba081461024e57600080fd5b8063127f0b3f116100c8578063127f0b3f146101aa5780632efd5658146101c15780634129b2c9146101d457806350d061cb1461020657600080fd5b806307f3b426146100ef5780630c1f629d1461011f5780630e4dbf5c14610132575b600080fd5b600154610102906001600160a01b031681565b6040516001600160a01b0390911681526020015b60405180910390f35b600054610102906001600160a01b031681565b61017e610140366004610e9d565b6003602081815260009384526040808520909152918352912080546001820154600283015492909301546001600160a01b0390911692919060ff1684565b604080516001600160a01b03909516855260208501939093529183015215156060820152608001610116565b6101b360065481565b604051908152602001610116565b6101b36101cf366004610ec9565b61032c565b6101e76101e2366004610f04565b610465565b604080516001600160a01b039093168352602083019190915201610116565b6101b3610214366004610f1d565b60056020526000908152604090205481565b610239610234366004610f1d565b6104ee565b005b610239610249366004610f3f565b6105a6565b61023961025c366004610f69565b61070d565b61023961026f366004610f04565b6109c4565b6102c9610282366004610f04565b60026020819052600091825260409091208054600182015492820154600383015460049093015491936001600160a01b0380821694600160a01b90920460ff169392169186565b604080519687526001600160a01b0395861660208801529315159386019390935292166060840152608083019190915260a082015260c001610116565b6101b3610314366004610f04565b610c80565b610102610327366004610f69565b610e49565b600060648611158015610340575060648511155b801561034d575060648411155b6103965760405162461bcd60e51b815260206004820152601560248201527404d657472696373206d75737420626520302d31303605c1b60448201526064015b60405180910390fd5b606483111580156103a8575060648211155b6103ec5760405162461bcd60e51b815260206004820152601560248201527404d657472696373206d75737420626520302d31303605c1b604482015260640161038d565b60006103f983600a610fa1565b61040485600f610fa1565b61040f876014610fa1565b61041a896019610fa1565b6104258b601e610fa1565b61042f9190610fbe565b6104399190610fbe565b6104439190610fbe565b61044d9190610fbe565b905061045a606482610fd1565b979650505050505050565b6000818152600260205260408120600101548190600160a01b900460ff16156104c35760405162461bcd60e51b815260206004820152601060248201526f2937bab7321039ba34b6361037b832b760811b604482015260640161038d565b50506000908152600260208190526040909120908101546003909101546001600160a01b0390911691565b6001546001600160a01b03161561053c5760405162461bcd60e51b815260206004820152601260248201527114d0cd88185b1c9958591e481b1a5b9ad95960721b604482015260640161038d565b6001600160a01b0381166105845760405162461bcd60e51b815260206004820152600f60248201526e496e76616c6964206164647265737360881b604482015260640161038d565b600180546001600160a01b0319166001600160a01b0392909216919091179055565b600054604051639f8a13d760e01b81523360048201526001600160a01b0390911690639f8a13d790602401602060405180830381865afa1580156105ee573d6000803e3d6000fd5b505050506040513d601f19601f820116820180604052508101906106129190610ff3565b8061062757506001546001600160a01b031633145b61068b5760405162461bcd60e51b815260206004820152602f60248201527f43616c6c6572206e6f7420617574686f72697a656420286e6f7420696e20534360448201526e2d3120616e64206e6f74205343362960881b606482015260840161038d565b6001600160a01b038216600090815260056020526040812080548392906106b3908490611015565b90915550506001600160a01b038216600081815260056020908152604091829020548251858152918201527f16d27e2cff7b6c62796ec35e40b30e11f94675cc9fded1762c7c11aaa15cb220910160405180910390a25050565b600054604051639f8a13d760e01b81523360048201526001600160a01b0390911690639f8a13d790602401602060405180830381865afa158015610755573d6000803e3d6000fd5b505050506040513d601f19601f820116820180604052508101906107799190610ff3565b6107c55760405162461bcd60e51b815260206004820152601a60248201527f554156206e6f74207265676973746572656420696e2053432d31000000000000604482015260640161038d565b600082815260026020526040902060010154600160a01b900460ff1661081f5760405162461bcd60e51b815260206004820152600f60248201526e149bdd5b99081a5cc818db1bdcd959608a1b604482015260640161038d565b60648111156108665760405162461bcd60e51b8152602060048201526013602482015272053636f7265206d75737420626520302d31303606c1b604482015260640161038d565b6000828152600360209081526040808320338452909152902060020154156108c45760405162461bcd60e51b8152602060048201526011602482015270105b1c9958591e481cdd589b5a5d1d1959607a1b604482015260640161038d565b604080516080810182523380825260208083018581524284860190815260016060860181815260008a815260038087528982208883528752898220985189546001600160a01b03919091166001600160a01b0319918216178a5595518985015593516002808a0191909155915197909301805497151560ff1990981697909717909655888252600480855287832080549283018155835284832090910180549093169094179091558681529290529181209091018054916109848361103d565b9091555050604051818152339083907ffdeaad9f62c24dd107d87ba2c0b144114dec62d178cad522394390f1d233a62c9060200160405180910390a35050565b600081815260026020526040902060018101546001600160a01b03163314610a395760405162461bcd60e51b815260206004820152602260248201527f4f6e6c79207468652044532074686174206f70656e6564207468697320726f756044820152611b9960f21b606482015260840161038d565b6001810154600160a01b900460ff16610a8b5760405162461bcd60e51b8152602060048201526014602482015273149bdd5b9908185b1c9958591e4818db1bdcd95960621b604482015260640161038d565b6000816004015411610ad55760405162461bcd60e51b8152602060048201526013602482015272139bc81cd8dbdc995cc81cdd589b5a5d1d1959606a1b604482015260640161038d565b6000828152600460209081526040808320805482518185028101850190935280835284938493929190830182828015610b3757602002820191906000526020600020905b81546001600160a01b03168152600190910190602001808311610b19575b5050505050905060005b8151811015610c0d57600086815260036020526040812083518290859085908110610b6e57610b6e611056565b6020908102919091018101516001600160a01b039081168352828201939093526040918201600020825160808101845281549094168452600181015491840182905260028101549284019290925260039091015460ff1615156060830152909150841015610bfa5780602001519350828281518110610bef57610bef611056565b602002602001015194505b5080610c058161103d565b915050610b41565b5060018401805460ff60a01b191690556002840180546001600160a01b0319166001600160a01b0385169081179091556003850183905560405183815286907ffee5b04775e1cd2311ed22cd00f5d2403aff38ff6f71d6d393f51854ed6bc9869060200160405180910390a35050505050565b60008054604051639f8a13d760e01b81523360048201526001600160a01b0390911690639f8a13d790602401602060405180830381865afa158015610cc9573d6000803e3d6000fd5b505050506040513d601f19601f82011682018060405250810190610ced9190610ff3565b610d395760405162461bcd60e51b815260206004820152601d60248201527f43616c6c6572206e6f74207265676973746572656420696e2053432d31000000604482015260640161038d565b60068054906000610d498361103d565b90915550506040805160c08101825283815233602080830182815260018486018181526000606087018181526080880182815260a08901838152600680548552600298899052938b902099518a559551948901805494511515600160a01b026001600160a81b03199095166001600160a01b039687161794909417909355519487018054959093166001600160a01b0319959095169490941790915551600385015551600490930192909255905491517f0a6ee14496bdbd5dffe8d949d4f0a1d6e4065975b72515af71629623acb8e56c91610e39918691909182526001600160a01b0316602082015260400190565b60405180910390a2505060065490565b60046020528160005260406000208181548110610e6557600080fd5b6000918252602090912001546001600160a01b03169150829050565b80356001600160a01b0381168114610e9857600080fd5b919050565b60008060408385031215610eb057600080fd5b82359150610ec060208401610e81565b90509250929050565b600080600080600060a08688031215610ee157600080fd5b505083359560208501359550604085013594606081013594506080013592509050565b600060208284031215610f1657600080fd5b5035919050565b600060208284031215610f2f57600080fd5b610f3882610e81565b9392505050565b60008060408385031215610f5257600080fd5b610f5b83610e81565b946020939093013593505050565b60008060408385031215610f7c57600080fd5b50508035926020909101359150565b634e487b7160e01b600052601160045260246000fd5b8082028115828204841417610fb857610fb8610f8b565b92915050565b80820180821115610fb857610fb8610f8b565b600082610fee57634e487b7160e01b600052601260045260246000fd5b500490565b60006020828403121561100557600080fd5b81518015158114610f3857600080fd5b808201828112600083128015821682158216171561103557611035610f8b565b505092915050565b60006001820161104f5761104f610f8b565b5060010190565b634e487b7160e01b600052603260045260246000fdfea26469706673582212208b27d96fb6eea768dcd363faa4547ad90bc1df85b2bf55b4effaac98e5db8dbc64736f6c63430008140033","opcodes":"PUSH1 0x80 PUSH1 0x40 MSTORE CALLVALUE DUP1 ISZERO PUSH2 0x10 JUMPI PUSH1 0x0 DUP1 REVERT JUMPDEST POP PUSH1 0x40 MLOAD PUSH2 0x1135 CODESIZE SUB DUP1 PUSH2 0x1135 DUP4 CODECOPY DUP2 ADD PUSH1 0x40 DUP2 SWAP1 MSTORE PUSH2 0x2F SWAP2 PUSH2 0x54 JUMP JUMPDEST PUSH1 0x0 DUP1 SLOAD PUSH1 0x1 PUSH1 0x1 PUSH1 0xA0 SHL SUB NOT AND PUSH1 0x1 PUSH1 0x1 PUSH1 0xA0 SHL SUB SWAP3 SWAP1 SWAP3 AND SWAP2 SWAP1 SWAP2 OR SWAP1 SSTORE PUSH2 0x84 JUMP JUMPDEST PUSH1 0x0 PUSH1 0x20 DUP3 DUP5 SUB SLT ISZERO PUSH2 0x66 JUMPI PUSH1 0x0 DUP1 REVERT JUMPDEST DUP2 MLOAD PUSH1 0x1 PUSH1 0x1 PUSH1 0xA0 SHL SUB DUP2 AND DUP2 EQ PUSH2 0x7D JUMPI PUSH1 0x0 DUP1 REVERT JUMPDEST SWAP4 SWAP3 POP POP POP JUMP JUMPDEST PUSH2 0x10A2 DUP1 PUSH2 0x93 PUSH1 0x0 CODECOPY PUSH1 0x0 RETURN INVALID PUSH1 0x80 PUSH1 0x40 MSTORE CALLVALUE DUP1 ISZERO PUSH2 0x10 JUMPI PUSH1 0x0 DUP1 REVERT JUMPDEST POP PUSH1 0x4 CALLDATASIZE LT PUSH2 0xEA JUMPI PUSH1 0x0 CALLDATALOAD PUSH1 0xE0 SHR DUP1 PUSH4 0x574D6423 GT PUSH2 0x8C JUMPI DUP1 PUSH4 0x88E01A98 GT PUSH2 0x66 JUMPI DUP1 PUSH4 0x88E01A98 EQ PUSH2 0x261 JUMPI DUP1 PUSH4 0x8C65C81F EQ PUSH2 0x274 JUMPI DUP1 PUSH4 0xBDE22AE0 EQ PUSH2 0x306 JUMPI DUP1 PUSH4 0xDE26EADF EQ PUSH2 0x319 JUMPI PUSH1 0x0 DUP1 REVERT JUMPDEST DUP1 PUSH4 0x574D6423 EQ PUSH2 0x226 JUMPI DUP1 PUSH4 0x6A08B511 EQ PUSH2 0x23B JUMPI DUP1 PUSH4 0x8358BA08 EQ PUSH2 0x24E JUMPI PUSH1 0x0 DUP1 REVERT JUMPDEST DUP1 PUSH4 0x127F0B3F GT PUSH2 0xC8 JUMPI DUP1 PUSH4 0x127F0B3F EQ PUSH2 0x1AA JUMPI DUP1 PUSH4 0x2EFD5658 EQ PUSH2 0x1C1 JUMPI DUP1 PUSH4 0x4129B2C9 EQ PUSH2 0x1D4 JUMPI DUP1 PUSH4 0x50D061CB EQ PUSH2 0x206 JUMPI PUSH1 0x0 DUP1 REVERT JUMPDEST DUP1 PUSH4 0x7F3B426 EQ PUSH2 0xEF JUMPI DUP1 PUSH4 0xC1F629D EQ PUSH2 0x11F JUMPI DUP1 PUSH4 0xE4DBF5C EQ PUSH2 0x132 JUMPI JUMPDEST PUSH1 0x0 DUP1 REVERT JUMPDEST PUSH1 0x1 SLOAD PUSH2 0x102 SWAP1 PUSH1 0x1 PUSH1 0x1 PUSH1 0xA0 SHL SUB AND DUP2 JUMP JUMPDEST PUSH1 0x40 MLOAD PUSH1 0x1 PUSH1 0x1 PUSH1 0xA0 SHL SUB SWAP1 SWAP2 AND DUP2 MSTORE PUSH1 0x20 ADD JUMPDEST PUSH1 0x40 MLOAD DUP1 SWAP2 SUB SWAP1 RETURN JUMPDEST PUSH1 0x0 SLOAD PUSH2 0x102 SWAP1 PUSH1 0x1 PUSH1 0x1 PUSH1 0xA0 SHL SUB AND DUP2 JUMP JUMPDEST PUSH2 0x17E PUSH2 0x140 CALLDATASIZE PUSH1 0x4 PUSH2 0xE9D JUMP JUMPDEST PUSH1 0x3 PUSH1 0x20 DUP2 DUP2 MSTORE PUSH1 0x0 SWAP4 DUP5 MSTORE PUSH1 0x40 DUP1 DUP6 KECCAK256 SWAP1 SWAP2 MSTORE SWAP2 DUP4 MSTORE SWAP2 KECCAK256 DUP1 SLOAD PUSH1 0x1 DUP3 ADD SLOAD PUSH1 0x2 DUP4 ADD SLOAD SWAP3 SWAP1 SWAP4 ADD SLOAD PUSH1 0x1 PUSH1 0x1 PUSH1 0xA0 SHL SUB SWAP1 SWAP2 AND SWAP3 SWAP2 SWAP1 PUSH1 0xFF AND DUP5 JUMP JUMPDEST PUSH1 0x40 DUP1 MLOAD PUSH1 0x1 PUSH1 0x1 PUSH1 0xA0 SHL SUB SWAP1 SWAP6 AND DUP6 MSTORE PUSH1 0x20 DUP6 ADD SWAP4 SWAP1 SWAP4 MSTORE SWAP2 DUP4 ADD MSTORE ISZERO ISZERO PUSH1 0x60 DUP3 ADD MSTORE PUSH1 0x80 ADD PUSH2 0x116 JUMP JUMPDEST PUSH2 0x1B3 PUSH1 0x6 SLOAD DUP2 JUMP JUMPDEST PUSH1 0x40 MLOAD SWAP1 DUP2 MSTORE PUSH1 0x20 ADD PUSH2 0x116 JUMP JUMPDEST PUSH2 0x1B3 PUSH2 0x1CF CALLDATASIZE PUSH1 0x4 PUSH2 0xEC9 JUMP JUMPDEST PUSH2 0x32C JUMP JUMPDEST PUSH2 0x1E7 PUSH2 0x1E2 CALLDATASIZE PUSH1 0x4 PUSH2 0xF04 JUMP JUMPDEST PUSH2 0x465 JUMP JUMPDEST PUSH1 0x40 DUP1 MLOAD PUSH1 0x1 PUSH1 0x1 PUSH1 0xA0 SHL SUB SWAP1 SWAP4 AND DUP4 MSTORE PUSH1 0x20 DUP4 ADD SWAP2 SWAP1 SWAP2 MSTORE ADD PUSH2 0x116 JUMP JUMPDEST PUSH2 0x1B3 PUSH2 0x214 CALLDATASIZE PUSH1 0x4 PUSH2 0xF1D JUMP JUMPDEST PUSH1 0x5 PUSH1 0x20 MSTORE PUSH1 0x0 SWAP1 DUP2 MSTORE PUSH1 0x40 SWAP1 KECCAK256 SLOAD DUP2 JUMP JUMPDEST PUSH2 0x239 PUSH2 0x234 CALLDATASIZE PUSH1 0x4 PUSH2 0xF1D JUMP JUMPDEST PUSH2 0x4EE JUMP JUMPDEST STOP JUMPDEST PUSH2 0x239 PUSH2 0x249 CALLDATASIZE PUSH1 0x4 PUSH2 0xF3F JUMP JUMPDEST PUSH2 0x5A6 JUMP JUMPDEST PUSH2 0x239 PUSH2 0x25C CALLDATASIZE PUSH1 0x4 PUSH2 0xF69 JUMP JUMPDEST PUSH2 0x70D JUMP JUMPDEST PUSH2 0x239 PUSH2 0x26F CALLDATASIZE PUSH1 0x4 PUSH2 0xF04 JUMP JUMPDEST PUSH2 0x9C4 JUMP JUMPDEST PUSH2 0x2C9 PUSH2 0x282 CALLDATASIZE PUSH1 0x4 PUSH2 0xF04 JUMP JUMPDEST PUSH1 0x2 PUSH1 0x20 DUP2 SWAP1 MSTORE PUSH1 0x0 SWAP2 DUP3 MSTORE PUSH1 0x40 SWAP1 SWAP2 KECCAK256 DUP1 SLOAD PUSH1 0x1 DUP3 ADD SLOAD SWAP3 DUP3 ADD SLOAD PUSH1 0x3 DUP4 ADD SLOAD PUSH1 0x4 SWAP1 SWAP4 ADD SLOAD SWAP2 SWAP4 PUSH1 0x1 PUSH1 0x1 PUSH1 0xA0 SHL SUB DUP1 DUP3 AND SWAP5 PUSH1 0x1 PUSH1 0xA0 SHL SWAP1 SWAP3 DIV PUSH1 0xFF AND SWAP4 SWAP3 AND SWAP2 DUP7 JUMP JUMPDEST PUSH1 0x40 DUP1 MLOAD SWAP7 DUP8 MSTORE PUSH1 0x1 PUSH1 0x1 PUSH1 0xA0 SHL SUB SWAP6 DUP7 AND PUSH1 0x20 DUP9 ADD MSTORE SWAP4 ISZERO ISZERO SWAP4 DUP7 ADD SWAP4 SWAP1 SWAP4 MSTORE SWAP3 AND PUSH1 0x60 DUP5 ADD MSTORE PUSH1 0x80 DUP4 ADD SWAP2 SWAP1 SWAP2 MSTORE PUSH1 0xA0 DUP3 ADD MSTORE PUSH1 0xC0 ADD PUSH2 0x116 JUMP JUMPDEST PUSH2 0x1B3 PUSH2 0x314 CALLDATASIZE PUSH1 0x4 PUSH2 0xF04 JUMP JUMPDEST PUSH2 0xC80 JUMP JUMPDEST PUSH2 0x102 PUSH2 0x327 CALLDATASIZE PUSH1 0x4 PUSH2 0xF69 JUMP JUMPDEST PUSH2 0xE49 JUMP JUMPDEST PUSH1 0x0 PUSH1 0x64 DUP7 GT ISZERO DUP1 ISZERO PUSH2 0x340 JUMPI POP PUSH1 0x64 DUP6 GT ISZERO JUMPDEST DUP1 ISZERO PUSH2 0x34D JUMPI POP PUSH1 0x64 DUP5 GT ISZERO JUMPDEST PUSH2 0x396 JUMPI PUSH1 0x40 MLOAD PUSH3 0x461BCD PUSH1 0xE5 SHL DUP2 MSTORE PUSH1 0x20 PUSH1 0x4 DUP3 ADD MSTORE PUSH1 0x15 PUSH1 0x24 DUP3 ADD MSTORE PUSH21 0x4D657472696373206D75737420626520302D31303 PUSH1 0x5C SHL PUSH1 0x44 DUP3 ADD MSTORE PUSH1 0x64 ADD JUMPDEST PUSH1 0x40 MLOAD DUP1 SWAP2 SUB SWAP1 REVERT JUMPDEST PUSH1 0x64 DUP4 GT ISZERO DUP1 ISZERO PUSH2 0x3A8 JUMPI POP PUSH1 0x64 DUP3 GT ISZERO JUMPDEST PUSH2 0x3EC JUMPI PUSH1 0x40 MLOAD PUSH3 0x461BCD PUSH1 0xE5 SHL DUP2 MSTORE PUSH1 0x20 PUSH1 0x4 DUP3 ADD MSTORE PUSH1 0x15 PUSH1 0x24 DUP3 ADD MSTORE PUSH21 0x4D657472696373206D75737420626520302D31303 PUSH1 0x5C SHL PUSH1 0x44 DUP3 ADD MSTORE PUSH1 0x64 ADD PUSH2 0x38D JUMP JUMPDEST PUSH1 0x0 PUSH2 0x3F9 DUP4 PUSH1 0xA PUSH2 0xFA1 JUMP JUMPDEST PUSH2 0x404 DUP6 PUSH1 0xF PUSH2 0xFA1 JUMP JUMPDEST PUSH2 0x40F DUP8 PUSH1 0x14 PUSH2 0xFA1 JUMP JUMPDEST PUSH2 0x41A DUP10 PUSH1 0x19 PUSH2 0xFA1 JUMP JUMPDEST PUSH2 0x425 DUP12 PUSH1 0x1E PUSH2 0xFA1 JUMP JUMPDEST PUSH2 0x42F SWAP2 SWAP1 PUSH2 0xFBE JUMP JUMPDEST PUSH2 0x439 SWAP2 SWAP1 PUSH2 0xFBE JUMP JUMPDEST PUSH2 0x443 SWAP2 SWAP1 PUSH2 0xFBE JUMP JUMPDEST PUSH2 0x44D SWAP2 SWAP1 PUSH2 0xFBE JUMP JUMPDEST SWAP1 POP PUSH2 0x45A PUSH1 0x64 DUP3 PUSH2 0xFD1 JUMP JUMPDEST SWAP8 SWAP7 POP POP POP POP POP POP POP JUMP JUMPDEST PUSH1 0x0 DUP2 DUP2 MSTORE PUSH1 0x2 PUSH1 0x20 MSTORE PUSH1 0x40 DUP2 KECCAK256 PUSH1 0x1 ADD SLOAD DUP2 SWAP1 PUSH1 0x1 PUSH1 0xA0 SHL SWAP1 DIV PUSH1 0xFF AND ISZERO PUSH2 0x4C3 JUMPI PUSH1 0x40 MLOAD PUSH3 0x461BCD PUSH1 0xE5 SHL DUP2 MSTORE PUSH1 0x20 PUSH1 0x4 DUP3 ADD MSTORE PUSH1 0x10 PUSH1 0x24 DUP3 ADD MSTORE PUSH16 0x2937BAB7321039BA34B6361037B832B7 PUSH1 0x81 SHL PUSH1 0x44 DUP3 ADD MSTORE PUSH1 0x64 ADD PUSH2 0x38D JUMP JUMPDEST POP POP PUSH1 0x0 SWAP1 DUP2 MSTORE PUSH1 0x2 PUSH1 0x20 DUP2 SWAP1 MSTORE PUSH1 0x40 SWAP1 SWAP2 KECCAK256 SWAP1 DUP2 ADD SLOAD PUSH1 0x3 SWAP1 SWAP2 ADD SLOAD PUSH1 0x1 PUSH1 0x1 PUSH1 0xA0 SHL SUB SWAP1 SWAP2 AND SWAP2 JUMP JUMPDEST PUSH1 0x1 SLOAD PUSH1 0x1 PUSH1 0x1 PUSH1 0xA0 SHL SUB AND ISZERO PUSH2 0x53C JUMPI PUSH1 0x40 MLOAD PUSH3 0x461BCD PUSH1 0xE5 SHL DUP2 MSTORE PUSH1 0x20 PUSH1 0x4 DUP3 ADD MSTORE PUSH1 0x12 PUSH1 0x24 DUP3 ADD MSTORE PUSH18 0x14D0CD88185B1C9958591E481B1A5B9AD959 PUSH1 0x72 SHL PUSH1 0x44 DUP3 ADD MSTORE PUSH1 0x64 ADD PUSH2 0x38D JUMP JUMPDEST PUSH1 0x1 PUSH1 0x1 PUSH1 0xA0 SHL SUB DUP2 AND PUSH2 0x584 JUMPI PUSH1 0x40 MLOAD PUSH3 0x461BCD PUSH1 0xE5 SHL DUP2 MSTORE PUSH1 0x20 PUSH1 0x4 DUP3 ADD MSTORE PUSH1 0xF PUSH1 0x24 DUP3 ADD MSTORE PUSH15 0x496E76616C69642061646472657373 PUSH1 0x88 SHL PUSH1 0x44 DUP3 ADD MSTORE PUSH1 0x64 ADD PUSH2 0x38D JUMP JUMPDEST PUSH1 0x1 DUP1 SLOAD PUSH1 0x1 PUSH1 0x1 PUSH1 0xA0 SHL SUB NOT AND PUSH1 0x1 PUSH1 0x1 PUSH1 0xA0 SHL SUB SWAP3 SWAP1 SWAP3 AND SWAP2 SWAP1 SWAP2 OR SWAP1 SSTORE JUMP JUMPDEST PUSH1 0x0 SLOAD PUSH1 0x40 MLOAD PUSH4 0x9F8A13D7 PUSH1 0xE0 SHL DUP2 MSTORE CALLER PUSH1 0x4 DUP3 ADD MSTORE PUSH1 0x1 PUSH1 0x1 PUSH1 0xA0 SHL SUB SWAP1 SWAP2 AND SWAP1 PUSH4 0x9F8A13D7 SWAP1 PUSH1 0x24 ADD PUSH1 0x20 PUSH1 0x40 MLOAD DUP1 DUP4 SUB DUP2 DUP7 GAS STATICCALL ISZERO DUP1 ISZERO PUSH2 0x5EE JUMPI RETURNDATASIZE PUSH1 0x0 DUP1 RETURNDATACOPY RETURNDATASIZE PUSH1 0x0 REVERT JUMPDEST POP POP POP POP PUSH1 0x40 MLOAD RETURNDATASIZE PUSH1 0x1F NOT PUSH1 0x1F DUP3 ADD AND DUP3 ADD DUP1 PUSH1 0x40 MSTORE POP DUP2 ADD SWAP1 PUSH2 0x612 SWAP2 SWAP1 PUSH2 0xFF3 JUMP JUMPDEST DUP1 PUSH2 0x627 JUMPI POP PUSH1 0x1 SLOAD PUSH1 0x1 PUSH1 0x1 PUSH1 0xA0 SHL SUB AND CALLER EQ JUMPDEST PUSH2 0x68B JUMPI PUSH1 0x40 MLOAD PUSH3 0x461BCD PUSH1 0xE5 SHL DUP2 MSTORE PUSH1 0x20 PUSH1 0x4 DUP3 ADD MSTORE PUSH1 0x2F PUSH1 0x24 DUP3 ADD MSTORE PUSH32 0x43616C6C6572206E6F7420617574686F72697A656420286E6F7420696E205343 PUSH1 0x44 DUP3 ADD MSTORE PUSH15 0x2D3120616E64206E6F742053433629 PUSH1 0x88 SHL PUSH1 0x64 DUP3 ADD MSTORE PUSH1 0x84 ADD PUSH2 0x38D JUMP JUMPDEST PUSH1 0x1 PUSH1 0x1 PUSH1 0xA0 SHL SUB DUP3 AND PUSH1 0x0 SWAP1 DUP2 MSTORE PUSH1 0x5 PUSH1 0x20 MSTORE PUSH1 0x40 DUP2 KECCAK256 DUP1 SLOAD DUP4 SWAP3 SWAP1 PUSH2 0x6B3 SWAP1 DUP5 SWAP1 PUSH2 0x1015 JUMP JUMPDEST SWAP1 SWAP2 SSTORE POP POP PUSH1 0x1 PUSH1 0x1 PUSH1 0xA0 SHL SUB DUP3 AND PUSH1 0x0 DUP2 DUP2 MSTORE PUSH1 0x5 PUSH1 0x20 SWAP1 DUP2 MSTORE PUSH1 0x40 SWAP2 DUP3 SWAP1 KECCAK256 SLOAD DUP3 MLOAD DUP6 DUP2 MSTORE SWAP2 DUP3 ADD MSTORE PUSH32 0x16D27E2CFF7B6C62796EC35E40B30E11F94675CC9FDED1762C7C11AAA15CB220 SWAP2 ADD PUSH1 0x40 MLOAD DUP1 SWAP2 SUB SWAP1 LOG2 POP POP JUMP JUMPDEST PUSH1 0x0 SLOAD PUSH1 0x40 MLOAD PUSH4 0x9F8A13D7 PUSH1 0xE0 SHL DUP2 MSTORE CALLER PUSH1 0x4 DUP3 ADD MSTORE PUSH1 0x1 PUSH1 0x1 PUSH1 0xA0 SHL SUB SWAP1 SWAP2 AND SWAP1 PUSH4 0x9F8A13D7 SWAP1 PUSH1 0x24 ADD PUSH1 0x20 PUSH1 0x40 MLOAD DUP1 DUP4 SUB DUP2 DUP7 GAS STATICCALL ISZERO DUP1 ISZERO PUSH2 0x755 JUMPI RETURNDATASIZE PUSH1 0x0 DUP1 RETURNDATACOPY RETURNDATASIZE PUSH1 0x0 REVERT JUMPDEST POP POP POP POP PUSH1 0x40 MLOAD RETURNDATASIZE PUSH1 0x1F NOT PUSH1 0x1F DUP3 ADD AND DUP3 ADD DUP1 PUSH1 0x40 MSTORE POP DUP2 ADD SWAP1 PUSH2 0x779 SWAP2 SWAP1 PUSH2 0xFF3 JUMP JUMPDEST PUSH2 0x7C5 JUMPI PUSH1 0x40 MLOAD PUSH3 0x461BCD PUSH1 0xE5 SHL DUP2 MSTORE PUSH1 0x20 PUSH1 0x4 DUP3 ADD MSTORE PUSH1 0x1A PUSH1 0x24 DUP3 ADD MSTORE PUSH32 0x554156206E6F74207265676973746572656420696E2053432D31000000000000 PUSH1 0x44 DUP3 ADD MSTORE PUSH1 0x64 ADD PUSH2 0x38D JUMP JUMPDEST PUSH1 0x0 DUP3 DUP2 MSTORE PUSH1 0x2 PUSH1 0x20 MSTORE PUSH1 0x40 SWAP1 KECCAK256 PUSH1 0x1 ADD SLOAD PUSH1 0x1 PUSH1 0xA0 SHL SWAP1 DIV PUSH1 0xFF AND PUSH2 0x81F JUMPI PUSH1 0x40 MLOAD PUSH3 0x461BCD PUSH1 0xE5 SHL DUP2 MSTORE PUSH1 0x20 PUSH1 0x4 DUP3 ADD MSTORE PUSH1 0xF PUSH1 0x24 DUP3 ADD MSTORE PUSH15 0x149BDD5B99081A5CC818DB1BDCD959 PUSH1 0x8A SHL PUSH1 0x44 DUP3 ADD MSTORE PUSH1 0x64 ADD PUSH2 0x38D JUMP JUMPDEST PUSH1 0x64 DUP2 GT ISZERO PUSH2 0x866 JUMPI PUSH1 0x40 MLOAD PUSH3 0x461BCD PUSH1 0xE5 SHL DUP2 MSTORE PUSH1 0x20 PUSH1 0x4 DUP3 ADD MSTORE PUSH1 0x13 PUSH1 0x24 DUP3 ADD MSTORE PUSH19 0x53636F7265206D75737420626520302D31303 PUSH1 0x6C SHL PUSH1 0x44 DUP3 ADD MSTORE PUSH1 0x64 ADD PUSH2 0x38D JUMP JUMPDEST PUSH1 0x0 DUP3 DUP2 MSTORE PUSH1 0x3 PUSH1 0x20 SWAP1 DUP2 MSTORE PUSH1 0x40 DUP1 DUP4 KECCAK256 CALLER DUP5 MSTORE SWAP1 SWAP2 MSTORE SWAP1 KECCAK256 PUSH1 0x2 ADD SLOAD ISZERO PUSH2 0x8C4 JUMPI PUSH1 0x40 MLOAD PUSH3 0x461BCD PUSH1 0xE5 SHL DUP2 MSTORE PUSH1 0x20 PUSH1 0x4 DUP3 ADD MSTORE PUSH1 0x11 PUSH1 0x24 DUP3 ADD MSTORE PUSH17 0x105B1C9958591E481CDD589B5A5D1D1959 PUSH1 0x7A SHL PUSH1 0x44 DUP3 ADD MSTORE PUSH1 0x64 ADD PUSH2 0x38D JUMP JUMPDEST PUSH1 0x40 DUP1 MLOAD PUSH1 0x80 DUP2 ADD DUP3 MSTORE CALLER DUP1 DUP3 MSTORE PUSH1 0x20 DUP1 DUP4 ADD DUP6 DUP2 MSTORE TIMESTAMP DUP5 DUP7 ADD SWAP1 DUP2 MSTORE PUSH1 0x1 PUSH1 0x60 DUP7 ADD DUP2 DUP2 MSTORE PUSH1 0x0 DUP11 DUP2 MSTORE PUSH1 0x3 DUP1 DUP8 MSTORE DUP10 DUP3 KECCAK256 DUP9 DUP4 MSTORE DUP8 MSTORE DUP10 DUP3 KECCAK256 SWAP9 MLOAD DUP10 SLOAD PUSH1 0x1 PUSH1 0x1 PUSH1 0xA0 SHL SUB SWAP2 SWAP1 SWAP2 AND PUSH1 0x1 PUSH1 0x1 PUSH1 0xA0 SHL SUB NOT SWAP2 DUP3 AND OR DUP11 SSTORE SWAP6 MLOAD DUP10 DUP6 ADD SSTORE SWAP4 MLOAD PUSH1 0x2 DUP1 DUP11 ADD SWAP2 SWAP1 SWAP2 SSTORE SWAP2 MLOAD SWAP8 SWAP1 SWAP4 ADD DUP1 SLOAD SWAP8 ISZERO ISZERO PUSH1 0xFF NOT SWAP1 SWAP9 AND SWAP8 SWAP1 SWAP8 OR SWAP1 SWAP7 SSTORE DUP9 DUP3 MSTORE PUSH1 0x4 DUP1 DUP6 MSTORE DUP8 DUP4 KECCAK256 DUP1 SLOAD SWAP3 DUP4 ADD DUP2 SSTORE DUP4 MSTORE DUP5 DUP4 KECCAK256 SWAP1 SWAP2 ADD DUP1 SLOAD SWAP1 SWAP4 AND SWAP1 SWAP5 OR SWAP1 SWAP2 SSTORE DUP7 DUP2 MSTORE SWAP3 SWAP1 MSTORE SWAP2 DUP2 KECCAK256 SWAP1 SWAP2 ADD DUP1 SLOAD SWAP2 PUSH2 0x984 DUP4 PUSH2 0x103D JUMP JUMPDEST SWAP1 SWAP2 SSTORE POP POP PUSH1 0x40 MLOAD DUP2 DUP2 MSTORE CALLER SWAP1 DUP4 SWAP1 PUSH32 0xFDEAAD9F62C24DD107D87BA2C0B144114DEC62D178CAD522394390F1D233A62C SWAP1 PUSH1 0x20 ADD PUSH1 0x40 MLOAD DUP1 SWAP2 SUB SWAP1 LOG3 POP POP JUMP JUMPDEST PUSH1 0x0 DUP2 DUP2 MSTORE PUSH1 0x2 PUSH1 0x20 MSTORE PUSH1 0x40 SWAP1 KECCAK256 PUSH1 0x1 DUP2 ADD SLOAD PUSH1 0x1 PUSH1 0x1 PUSH1 0xA0 SHL SUB AND CALLER EQ PUSH2 0xA39 JUMPI PUSH1 0x40 MLOAD PUSH3 0x461BCD PUSH1 0xE5 SHL DUP2 MSTORE PUSH1 0x20 PUSH1 0x4 DUP3 ADD MSTORE PUSH1 0x22 PUSH1 0x24 DUP3 ADD MSTORE PUSH32 0x4F6E6C79207468652044532074686174206F70656E6564207468697320726F75 PUSH1 0x44 DUP3 ADD MSTORE PUSH2 0x1B99 PUSH1 0xF2 SHL PUSH1 0x64 DUP3 ADD MSTORE PUSH1 0x84 ADD PUSH2 0x38D JUMP JUMPDEST PUSH1 0x1 DUP2 ADD SLOAD PUSH1 0x1 PUSH1 0xA0 SHL SWAP1 DIV PUSH1 0xFF AND PUSH2 0xA8B JUMPI PUSH1 0x40 MLOAD PUSH3 0x461BCD PUSH1 0xE5 SHL DUP2 MSTORE PUSH1 0x20 PUSH1 0x4 DUP3 ADD MSTORE PUSH1 0x14 PUSH1 0x24 DUP3 ADD MSTORE PUSH20 0x149BDD5B9908185B1C9958591E4818DB1BDCD959 PUSH1 0x62 SHL PUSH1 0x44 DUP3 ADD MSTORE PUSH1 0x64 ADD PUSH2 0x38D JUMP JUMPDEST PUSH1 0x0 DUP2 PUSH1 0x4 ADD SLOAD GT PUSH2 0xAD5 JUMPI PUSH1 0x40 MLOAD PUSH3 0x461BCD PUSH1 0xE5 SHL DUP2 MSTORE PUSH1 0x20 PUSH1 0x4 DUP3 ADD MSTORE PUSH1 0x13 PUSH1 0x24 DUP3 ADD MSTORE PUSH19 0x139BC81CD8DBDC995CC81CDD589B5A5D1D1959 PUSH1 0x6A SHL PUSH1 0x44 DUP3 ADD MSTORE PUSH1 0x64 ADD PUSH2 0x38D JUMP JUMPDEST PUSH1 0x0 DUP3 DUP2 MSTORE PUSH1 0x4 PUSH1 0x20 SWAP1 DUP2 MSTORE PUSH1 0x40 DUP1 DUP4 KECCAK256 DUP1 SLOAD DUP3 MLOAD DUP2 DUP6 MUL DUP2 ADD DUP6 ADD SWAP1 SWAP4 MSTORE DUP1 DUP4 MSTORE DUP5 SWAP4 DUP5 SWAP4 SWAP3 SWAP2 SWAP1 DUP4 ADD DUP3 DUP3 DUP1 ISZERO PUSH2 0xB37 JUMPI PUSH1 0x20 MUL DUP3 ADD SWAP2 SWAP1 PUSH1 0x0 MSTORE PUSH1 0x20 PUSH1 0x0 KECCAK256 SWAP1 JUMPDEST DUP2 SLOAD PUSH1 0x1 PUSH1 0x1 PUSH1 0xA0 SHL SUB AND DUP2 MSTORE PUSH1 0x1 SWAP1 SWAP2 ADD SWAP1 PUSH1 0x20 ADD DUP1 DUP4 GT PUSH2 0xB19 JUMPI JUMPDEST POP POP POP POP POP SWAP1 POP PUSH1 0x0 JUMPDEST DUP2 MLOAD DUP2 LT ISZERO PUSH2 0xC0D JUMPI PUSH1 0x0 DUP7 DUP2 MSTORE PUSH1 0x3 PUSH1 0x20 MSTORE PUSH1 0x40 DUP2 KECCAK256 DUP4 MLOAD DUP3 SWAP1 DUP6 SWAP1 DUP6 SWAP1 DUP2 LT PUSH2 0xB6E JUMPI PUSH2 0xB6E PUSH2 0x1056 JUMP JUMPDEST PUSH1 0x20 SWAP1 DUP2 MUL SWAP2 SWAP1 SWAP2 ADD DUP2 ADD MLOAD PUSH1 0x1 PUSH1 0x1 PUSH1 0xA0 SHL SUB SWAP1 DUP2 AND DUP4 MSTORE DUP3 DUP3 ADD SWAP4 SWAP1 SWAP4 MSTORE PUSH1 0x40 SWAP2 DUP3 ADD PUSH1 0x0 KECCAK256 DUP3 MLOAD PUSH1 0x80 DUP2 ADD DUP5 MSTORE DUP2 SLOAD SWAP1 SWAP5 AND DUP5 MSTORE PUSH1 0x1 DUP2 ADD SLOAD SWAP2 DUP5 ADD DUP3 SWAP1 MSTORE PUSH1 0x2 DUP2 ADD SLOAD SWAP3 DUP5 ADD SWAP3 SWAP1 SWAP3 MSTORE PUSH1 0x3 SWAP1 SWAP2 ADD SLOAD PUSH1 0xFF AND ISZERO ISZERO PUSH1 0x60 DUP4 ADD MSTORE SWAP1 SWAP2 POP DUP5 LT ISZERO PUSH2 0xBFA JUMPI DUP1 PUSH1 0x20 ADD MLOAD SWAP4 POP DUP3 DUP3 DUP2 MLOAD DUP2 LT PUSH2 0xBEF JUMPI PUSH2 0xBEF PUSH2 0x1056 JUMP JUMPDEST PUSH1 0x20 MUL PUSH1 0x20 ADD ADD MLOAD SWAP5 POP JUMPDEST POP DUP1 PUSH2 0xC05 DUP2 PUSH2 0x103D JUMP JUMPDEST SWAP2 POP POP PUSH2 0xB41 JUMP JUMPDEST POP PUSH1 0x1 DUP5 ADD DUP1 SLOAD PUSH1 0xFF PUSH1 0xA0 SHL NOT AND SWAP1 SSTORE PUSH1 0x2 DUP5 ADD DUP1 SLOAD PUSH1 0x1 PUSH1 0x1 PUSH1 0xA0 SHL SUB NOT AND PUSH1 0x1 PUSH1 0x1 PUSH1 0xA0 SHL SUB DUP6 AND SWAP1 DUP2 OR SWAP1 SWAP2 SSTORE PUSH1 0x3 DUP6 ADD DUP4 SWAP1 SSTORE PUSH1 0x40 MLOAD DUP4 DUP2 MSTORE DUP7 SWAP1 PUSH32 0xFEE5B04775E1CD2311ED22CD00F5D2403AFF38FF6F71D6D393F51854ED6BC986 SWAP1 PUSH1 0x20 ADD PUSH1 0x40 MLOAD DUP1 SWAP2 SUB SWAP1 LOG3 POP POP POP POP POP JUMP JUMPDEST PUSH1 0x0 DUP1 SLOAD PUSH1 0x40 MLOAD PUSH4 0x9F8A13D7 PUSH1 0xE0 SHL DUP2 MSTORE CALLER PUSH1 0x4 DUP3 ADD MSTORE PUSH1 0x1 PUSH1 0x1 PUSH1 0xA0 SHL SUB SWAP1 SWAP2 AND SWAP1 PUSH4 0x9F8A13D7 SWAP1 PUSH1 0x24 ADD PUSH1 0x20 PUSH1 0x40 MLOAD DUP1 DUP4 SUB DUP2 DUP7 GAS STATICCALL ISZERO DUP1 ISZERO PUSH2 0xCC9 JUMPI RETURNDATASIZE PUSH1 0x0 DUP1 RETURNDATACOPY RETURNDATASIZE PUSH1 0x0 REVERT JUMPDEST POP POP POP POP PUSH1 0x40 MLOAD RETURNDATASIZE PUSH1 0x1F NOT PUSH1 0x1F DUP3 ADD AND DUP3 ADD DUP1 PUSH1 0x40 MSTORE POP DUP2 ADD SWAP1 PUSH2 0xCED SWAP2 SWAP1 PUSH2 0xFF3 JUMP JUMPDEST PUSH2 0xD39 JUMPI PUSH1 0x40 MLOAD PUSH3 0x461BCD PUSH1 0xE5 SHL DUP2 MSTORE PUSH1 0x20 PUSH1 0x4 DUP3 ADD MSTORE PUSH1 0x1D PUSH1 0x24 DUP3 ADD MSTORE PUSH32 0x43616C6C6572206E6F74207265676973746572656420696E2053432D31000000 PUSH1 0x44 DUP3 ADD MSTORE PUSH1 0x64 ADD PUSH2 0x38D JUMP JUMPDEST PUSH1 0x6 DUP1 SLOAD SWAP1 PUSH1 0x0 PUSH2 0xD49 DUP4 PUSH2 0x103D JUMP JUMPDEST SWAP1 SWAP2 SSTORE POP POP PUSH1 0x40 DUP1 MLOAD PUSH1 0xC0 DUP2 ADD DUP3 MSTORE DUP4 DUP2 MSTORE CALLER PUSH1 0x20 DUP1 DUP4 ADD DUP3 DUP2 MSTORE PUSH1 0x1 DUP5 DUP7 ADD DUP2 DUP2 MSTORE PUSH1 0x0 PUSH1 0x60 DUP8 ADD DUP2 DUP2 MSTORE PUSH1 0x80 DUP9 ADD DUP3 DUP2 MSTORE PUSH1 0xA0 DUP10 ADD DUP4 DUP2 MSTORE PUSH1 0x6 DUP1 SLOAD DUP6 MSTORE PUSH1 0x2 SWAP9 DUP10 SWAP1 MSTORE SWAP4 DUP12 SWAP1 KECCAK256 SWAP10 MLOAD DUP11 SSTORE SWAP6 MLOAD SWAP5 DUP10 ADD DUP1 SLOAD SWAP5 MLOAD ISZERO ISZERO PUSH1 0x1 PUSH1 0xA0 SHL MUL PUSH1 0x1 PUSH1 0x1 PUSH1 0xA8 SHL SUB NOT SWAP1 SWAP6 AND PUSH1 0x1 PUSH1 0x1 PUSH1 0xA0 SHL SUB SWAP7 DUP8 AND OR SWAP5 SWAP1 SWAP5 OR SWAP1 SWAP4 SSTORE MLOAD SWAP5 DUP8 ADD DUP1 SLOAD SWAP6 SWAP1 SWAP4 AND PUSH1 0x1 PUSH1 0x1 PUSH1 0xA0 SHL SUB NOT SWAP6 SWAP1 SWAP6 AND SWAP5 SWAP1 SWAP5 OR SWAP1 SWAP2 SSTORE MLOAD PUSH1 0x3 DUP6 ADD SSTORE MLOAD PUSH1 0x4 SWAP1 SWAP4 ADD SWAP3 SWAP1 SWAP3 SSTORE SWAP1 SLOAD SWAP2 MLOAD PUSH32 0xA6EE14496BDBD5DFFE8D949D4F0A1D6E4065975B72515AF71629623ACB8E56C SWAP2 PUSH2 0xE39 SWAP2 DUP7 SWAP2 SWAP1 SWAP2 DUP3 MSTORE PUSH1 0x1 PUSH1 0x1 PUSH1 0xA0 SHL SUB AND PUSH1 0x20 DUP3 ADD MSTORE PUSH1 0x40 ADD SWAP1 JUMP JUMPDEST PUSH1 0x40 MLOAD DUP1 SWAP2 SUB SWAP1 LOG2 POP POP PUSH1 0x6 SLOAD SWAP1 JUMP JUMPDEST PUSH1 0x4 PUSH1 0x20 MSTORE DUP2 PUSH1 0x0 MSTORE PUSH1 0x40 PUSH1 0x0 KECCAK256 DUP2 DUP2 SLOAD DUP2 LT PUSH2 0xE65 JUMPI PUSH1 0x0 DUP1 REVERT JUMPDEST PUSH1 0x0 SWAP2 DUP3 MSTORE PUSH1 0x20 SWAP1 SWAP2 KECCAK256 ADD SLOAD PUSH1 0x1 PUSH1 0x1 PUSH1 0xA0 SHL SUB AND SWAP2 POP DUP3 SWAP1 POP JUMP JUMPDEST DUP1 CALLDATALOAD PUSH1 0x1 PUSH1 0x1 PUSH1 0xA0 SHL SUB DUP2 AND DUP2 EQ PUSH2 0xE98 JUMPI PUSH1 0x0 DUP1 REVERT JUMPDEST SWAP2 SWAP1 POP JUMP JUMPDEST PUSH1 0x0 DUP1 PUSH1 0x40 DUP4 DUP6 SUB SLT ISZERO PUSH2 0xEB0 JUMPI PUSH1 0x0 DUP1 REVERT JUMPDEST DUP3 CALLDATALOAD SWAP2 POP PUSH2 0xEC0 PUSH1 0x20 DUP5 ADD PUSH2 0xE81 JUMP JUMPDEST SWAP1 POP SWAP3 POP SWAP3 SWAP1 POP JUMP JUMPDEST PUSH1 0x0 DUP1 PUSH1 0x0 DUP1 PUSH1 0x0 PUSH1 0xA0 DUP7 DUP9 SUB SLT ISZERO PUSH2 0xEE1 JUMPI PUSH1 0x0 DUP1 REVERT JUMPDEST POP POP DUP4 CALLDATALOAD SWAP6 PUSH1 0x20 DUP6 ADD CALLDATALOAD SWAP6 POP PUSH1 0x40 DUP6 ADD CALLDATALOAD SWAP5 PUSH1 0x60 DUP2 ADD CALLDATALOAD SWAP5 POP PUSH1 0x80 ADD CALLDATALOAD SWAP3 POP SWAP1 POP JUMP JUMPDEST PUSH1 0x0 PUSH1 0x20 DUP3 DUP5 SUB SLT ISZERO PUSH2 0xF16 JUMPI PUSH1 0x0 DUP1 REVERT JUMPDEST POP CALLDATALOAD SWAP2 SWAP1 POP JUMP JUMPDEST PUSH1 0x0 PUSH1 0x20 DUP3 DUP5 SUB SLT ISZERO PUSH2 0xF2F JUMPI PUSH1 0x0 DUP1 REVERT JUMPDEST PUSH2 0xF38 DUP3 PUSH2 0xE81 JUMP JUMPDEST SWAP4 SWAP3 POP POP POP JUMP JUMPDEST PUSH1 0x0 DUP1 PUSH1 0x40 DUP4 DUP6 SUB SLT ISZERO PUSH2 0xF52 JUMPI PUSH1 0x0 DUP1 REVERT JUMPDEST PUSH2 0xF5B DUP4 PUSH2 0xE81 JUMP JUMPDEST SWAP5 PUSH1 0x20 SWAP4 SWAP1 SWAP4 ADD CALLDATALOAD SWAP4 POP POP POP JUMP JUMPDEST PUSH1 0x0 DUP1 PUSH1 0x40 DUP4 DUP6 SUB SLT ISZERO PUSH2 0xF7C JUMPI PUSH1 0x0 DUP1 REVERT JUMPDEST POP POP DUP1 CALLDATALOAD SWAP3 PUSH1 0x20 SWAP1 SWAP2 ADD CALLDATALOAD SWAP2 POP JUMP JUMPDEST PUSH4 0x4E487B71 PUSH1 0xE0 SHL PUSH1 0x0 MSTORE PUSH1 0x11 PUSH1 0x4 MSTORE PUSH1 0x24 PUSH1 0x0 REVERT JUMPDEST DUP1 DUP3 MUL DUP2 ISZERO DUP3 DUP3 DIV DUP5 EQ OR PUSH2 0xFB8 JUMPI PUSH2 0xFB8 PUSH2 0xF8B JUMP JUMPDEST SWAP3 SWAP2 POP POP JUMP JUMPDEST DUP1 DUP3 ADD DUP1 DUP3 GT ISZERO PUSH2 0xFB8 JUMPI PUSH2 0xFB8 PUSH2 0xF8B JUMP JUMPDEST PUSH1 0x0 DUP3 PUSH2 0xFEE JUMPI PUSH4 0x4E487B71 PUSH1 0xE0 SHL PUSH1 0x0 MSTORE PUSH1 0x12 PUSH1 0x4 MSTORE PUSH1 0x24 PUSH1 0x0 REVERT JUMPDEST POP DIV SWAP1 JUMP JUMPDEST PUSH1 0x0 PUSH1 0x20 DUP3 DUP5 SUB SLT ISZERO PUSH2 0x1005 JUMPI PUSH1 0x0 DUP1 REVERT JUMPDEST DUP2 MLOAD DUP1 ISZERO ISZERO DUP2 EQ PUSH2 0xF38 JUMPI PUSH1 0x0 DUP1 REVERT JUMPDEST DUP1 DUP3 ADD DUP3 DUP2 SLT PUSH1 0x0 DUP4 SLT DUP1 ISZERO DUP3 AND DUP3 ISZERO DUP3 AND OR ISZERO PUSH2 0x1035 JUMPI PUSH2 0x1035 PUSH2 0xF8B JUMP JUMPDEST POP POP SWAP3 SWAP2 POP POP JUMP JUMPDEST PUSH1 0x0 PUSH1 0x1 DUP3 ADD PUSH2 0x104F JUMPI PUSH2 0x104F PUSH2 0xF8B JUMP JUMPDEST POP PUSH1 0x1 ADD SWAP1 JUMP JUMPDEST PUSH4 0x4E487B71 PUSH1 0xE0 SHL PUSH1 0x0 MSTORE PUSH1 0x32 PUSH1 0x4 MSTORE PUSH1 0x24 PUSH1 0x0 REVERT INVALID LOG2 PUSH5 0x6970667358 0x22 SLT KECCAK256 DUP12 0x27 0xD9 PUSH16 0xB6EEA768DCD363FAA4547AD90BC1DF85 0xB2 0xBF SSTORE 0xB4 0xEF STATICCALL 0xAC SWAP9 0xE5 0xDB DUP14 0xBC PUSH5 0x736F6C6343 STOP ADDMOD EQ STOP CALLER "},"methodIdentifiers":{"closeRound(uint256)":"88e01a98","computeScore(uint256,uint256,uint256,uint256,uint256)":"2efd5658","getWinner(uint256)":"4129b2c9","linkSC6(address)":"574d6423","openRound(uint256)":"bde22ae0","reputationScore(address)":"50d061cb","roundCount()":"127f0b3f","roundParticipants(uint256,uint256)":"de26eadf","rounds(uint256)":"8c65c81f","sc1()":"0c1f629d","sc6Address()":"07f3b426","submissions(uint256,address)":"0e4dbf5c","submitScore(uint256,uint256)":"8358ba08","updateReputation(address,int256)":"6a08b511"}}}}}