{"contracts/SC5_DeliveryOrders.sol":{"SC5_DeliveryOrders":{"abi":[{"inputs":[{"internalType":"address","name":"sc1Addr","type":"address"},{"internalType":"address","name":"sc7Addr","type":"address"}],"stateMutability":"nonpayable","type":"constructor"},{"anonymous":false,"inputs":[{"indexed":true,"internalType":"uint256","name":"orderId","type":"uint256"},{"indexed":false,"internalType":"enum SC5_DeliveryOrders.OrderStatus","name":"newStatus","type":"uint8"}],"name":"OrderStatusUpdated","type":"event"},{"anonymous":false,"inputs":[{"indexed":true,"internalType":"uint256","name":"orderId","type":"uint256"},{"indexed":true,"internalType":"address","name":"patient","type":"address"},{"indexed":false,"internalType":"uint8","name":"parsScore","type":"uint8"},{"indexed":false,"internalType":"bytes32","name":"rxHash","type":"bytes32"}],"name":"OrderSubmitted","type":"event"},{"anonymous":false,"inputs":[{"indexed":true,"internalType":"uint256","name":"orderId","type":"uint256"},{"indexed":false,"internalType":"address","name":"warehouse","type":"address"}],"name":"StockConfirmed","type":"event"},{"anonymous":false,"inputs":[{"indexed":true,"internalType":"uint256","name":"orderId","type":"uint256"},{"indexed":false,"internalType":"address","name":"uav","type":"address"}],"name":"UAVAssigned","type":"event"},{"inputs":[{"internalType":"uint256","name":"orderId","type":"uint256"},{"internalType":"address","name":"uav","type":"address"}],"name":"assignUAV","outputs":[],"stateMutability":"nonpayable","type":"function"},{"inputs":[{"internalType":"uint256","name":"orderId","type":"uint256"}],"name":"confirmStock","outputs":[],"stateMutability":"nonpayable","type":"function"},{"inputs":[{"internalType":"uint256","name":"orderId","type":"uint256"}],"name":"getOrder","outputs":[{"internalType":"address","name":"hp","type":"address"},{"internalType":"address","name":"patient","type":"address"},{"internalType":"uint8","name":"parsScore","type":"uint8"},{"internalType":"string","name":"drugList","type":"string"},{"internalType":"address","name":"assignedUAV","type":"address"},{"internalType":"enum SC5_DeliveryOrders.OrderStatus","name":"status","type":"uint8"},{"internalType":"uint256","name":"slaDeadline","type":"uint256"}],"stateMutability":"view","type":"function"},{"inputs":[{"internalType":"uint8","name":"score","type":"uint8"}],"name":"getParsLabel","outputs":[{"internalType":"string","name":"","type":"string"}],"stateMutability":"pure","type":"function"},{"inputs":[{"internalType":"uint8","name":"parsScore","type":"uint8"}],"name":"getSLASeconds","outputs":[{"internalType":"uint256","name":"","type":"uint256"}],"stateMutability":"pure","type":"function"},{"inputs":[],"name":"orderCount","outputs":[{"internalType":"uint256","name":"","type":"uint256"}],"stateMutability":"view","type":"function"},{"inputs":[{"internalType":"uint256","name":"","type":"uint256"}],"name":"orders","outputs":[{"internalType":"uint256","name":"orderId","type":"uint256"},{"internalType":"address","name":"hp","type":"address"},{"internalType":"address","name":"patient","type":"address"},{"internalType":"bytes32","name":"rxHash","type":"bytes32"},{"internalType":"uint8","name":"parsScore","type":"uint8"},{"internalType":"string","name":"drugList","type":"string"},{"internalType":"address","name":"warehouse","type":"address"},{"internalType":"address","name":"droneStation","type":"address"},{"internalType":"address","name":"assignedUAV","type":"address"},{"internalType":"enum SC5_DeliveryOrders.OrderStatus","name":"status","type":"uint8"},{"internalType":"uint256","name":"createdAt","type":"uint256"},{"internalType":"uint256","name":"slaDeadline","type":"uint256"}],"stateMutability":"view","type":"function"},{"inputs":[{"internalType":"address","name":"","type":"address"},{"internalType":"uint256","name":"","type":"uint256"}],"name":"patientOrders","outputs":[{"internalType":"uint256","name":"","type":"uint256"}],"stateMutability":"view","type":"function"},{"inputs":[],"name":"sc1","outputs":[{"internalType":"contract ISC1_v5","name":"","type":"address"}],"stateMutability":"view","type":"function"},{"inputs":[],"name":"sc7","outputs":[{"internalType":"contract ISC7_v5","name":"","type":"address"}],"stateMutability":"view","type":"function"},{"inputs":[{"internalType":"address","name":"patient","type":"address"},{"internalType":"bytes32","name":"rxHash","type":"bytes32"},{"internalType":"uint8","name":"parsScore","type":"uint8"},{"internalType":"string","name":"drugList","type":"string"},{"internalType":"address","name":"warehouse","type":"address"},{"internalType":"address","name":"droneStation","type":"address"}],"name":"submitOrder","outputs":[{"internalType":"uint256","name":"","type":"uint256"}],"stateMutability":"nonpayable","type":"function"},{"inputs":[{"internalType":"uint256","name":"orderId","type":"uint256"},{"internalType":"enum SC5_DeliveryOrders.OrderStatus","name":"newStatus","type":"uint8"}],"name":"updateStatus","outputs":[],"stateMutability":"nonpayable","type":"function"}],"evm":{"bytecode":{"linkReferences":{},"object":"608060405234801561001057600080fd5b50604051620017cd380380620017cd8339810160408190526100319161007e565b600080546001600160a01b039384166001600160a01b031991821617909155600180549290931691161790556100b1565b80516001600160a01b038116811461007957600080fd5b919050565b6000806040838503121561009157600080fd5b61009a83610062565b91506100a860208401610062565b90509250929050565b61170c80620000c16000396000f3fe608060405234801561001057600080fd5b50600436106100b45760003560e01c8063984e0fca11610071578063984e0fca1461015b578063a85c38ef1461016e578063d09ef24114610199578063e6fe9708146101bf578063ed56514c146101d2578063f6322bd6146101e557600080fd5b80630c1f629d146100b95780630cfcb07e146100e95780632453ffa81461010a578063293c6a13146101135780633a1b3d311461012857806357b732041461013b575b600080fd5b6000546100cc906001600160a01b031681565b6040516001600160a01b0390911681526020015b60405180910390f35b6100fc6100f73660046111b5565b6101f8565b6040519081526020016100e0565b6100fc60025481565b6101266101213660046111df565b610229565b005b61012661013636600461120b565b610450565b61014e610149366004611250565b6105ef565b6040516100e091906112b8565b6001546100cc906001600160a01b031681565b61018161017c3660046112cb565b6106c6565b6040516100e09c9b9a9998979695949392919061131c565b6101ac6101a73660046112cb565b6107d1565b6040516100e097969594939291906113a7565b6100fc6101cd366004611419565b61098e565b6100fc6101e0366004611250565b610ff1565b6101266101f33660046112cb565b611037565b6004602052816000526040600020818154811061021457600080fd5b90600052602060002001600091509150505481565b600082815260036020526040902060078101546001600160a01b031633146102985760405162461bcd60e51b815260206004820152601f60248201527f4f6e6c79207468652061737369676e65642064726f6e652073746174696f6e0060448201526064015b60405180910390fd5b60016008820154600160a01b900460ff1660058111156102ba576102ba6112e4565b146103075760405162461bcd60e51b815260206004820152601760248201527f4f72646572206e6f7420434f4e4649524d454420796574000000000000000000604482015260640161028f565b600054604051639f8a13d760e01b81526001600160a01b03848116600483015290911690639f8a13d790602401602060405180830381865afa158015610351573d6000803e3d6000fd5b505050506040513d601f19601f820116820180604052508101906103759190611515565b6103b65760405162461bcd60e51b8152602060048201526012602482015271155055881b9bdd081c9959da5cdd195c995960721b604482015260640161028f565b6008810180546001600160a01b0384166001600160a81b03199091168117600160a11b17909155604080519182525184917f85cc5db68e09751c486e29a5016ef3ff5f2eb672c656aef517cc17ee53c36dc7919081900360200190a2827fd9a86b644eb5f5b43cc8a700849852481080361c7a4b00ba646d1b46c5585f9560026040516104439190611537565b60405180910390a2505050565b600054604051639f8a13d760e01b81523360048201526001600160a01b0390911690639f8a13d790602401602060405180830381865afa158015610498573d6000803e3d6000fd5b505050506040513d601f19601f820116820180604052508101906104bc9190611515565b6105005760405162461bcd60e51b815260206004820152601560248201527410d85b1b195c881b9bdd081c9959da5cdd195c9959605a1b604482015260640161028f565b600082815260036020526040902060078101546001600160a01b0316331480610535575060088101546001600160a01b031633145b6105935760405162461bcd60e51b815260206004820152602960248201527f4f6e6c79204453206f722061737369676e6564205541562063616e207570646160448201526874652073746174757360b81b606482015260840161028f565b60088101805483919060ff60a01b1916600160a01b8360058111156105ba576105ba6112e4565b0217905550827fd9a86b644eb5f5b43cc8a700849852481080361c7a4b00ba646d1b46c5585f95836040516104439190611537565b6060605a8260ff161061062b575050604080518082019091526013815272435249544943414c202d20336d696e20534c4160681b602082015290565b60468260ff161061066257505060408051808201909152601081526f48494748202d2031306d696e20534c4160801b602082015290565b60288260ff161061069d5750506040805180820190915260148152734d4f444552415445202d2033306d696e20534c4160601b602082015290565b505060408051808201909152600d81526c4c4f57202d2032687220534c4160981b602082015290565b600360208190526000918252604090912080546001820154600283015493830154600484015460058501805494966001600160a01b0394851696941694929360ff909216926107149061154b565b80601f01602080910402602001604051908101604052809291908181526020018280546107409061154b565b801561078d5780601f106107625761010080835404028352916020019161078d565b820191906000526020600020905b81548152906001019060200180831161077057829003601f168201915b505050506006830154600784015460088501546009860154600a9096015494956001600160a01b0393841695928416945092811692600160a01b90910460ff16918c565b60008181526003602081815260408084208151610180810183528154815260018201546001600160a01b039081169482019490945260028201549093169183019190915291820154606082810191909152600483015460ff16608083015260058301805485948594859384938493849392909160a0840191906108539061154b565b80601f016020809104026020016040519081016040528092919081815260200182805461087f9061154b565b80156108cc5780601f106108a1576101008083540402835291602001916108cc565b820191906000526020600020905b8154815290600101906020018083116108af57829003601f168201915b505050918352505060068201546001600160a01b03908116602083015260078301548116604083015260088301549081166060830152608090910190600160a01b900460ff166005811115610923576109236112e4565b6005811115610934576109346112e4565b815260200160098201548152602001600a8201548152505090508060200151816040015182608001518360a00151846101000151856101200151866101600151975097509750975097509750975050919395979092949650565b60008054604051639f8a13d760e01b81523360048201526001600160a01b0390911690639f8a13d790602401602060405180830381865afa1580156109d7573d6000803e3d6000fd5b505050506040513d601f19601f820116820180604052508101906109fb9190611515565b610a3b5760405162461bcd60e51b81526020600482015260116024820152701214081b9bdd081c9959da5cdd195c9959607a1b604482015260640161028f565b600054604051639f8a13d760e01b81526001600160a01b03898116600483015290911690639f8a13d790602401602060405180830381865afa158015610a85573d6000803e3d6000fd5b505050506040513d601f19601f82011682018060405250810190610aa99190611515565b610aee5760405162461bcd60e51b815260206004820152601660248201527514185d1a595b9d081b9bdd081c9959da5cdd195c995960521b604482015260640161028f565b600054604051639f8a13d760e01b81526001600160a01b03858116600483015290911690639f8a13d790602401602060405180830381865afa158015610b38573d6000803e3d6000fd5b505050506040513d601f19601f82011682018060405250810190610b5c9190611515565b610ba85760405162461bcd60e51b815260206004820152601860248201527f57617265686f757365206e6f7420726567697374657265640000000000000000604482015260640161028f565b600054604051639f8a13d760e01b81526001600160a01b03848116600483015290911690639f8a13d790602401602060405180830381865afa158015610bf2573d6000803e3d6000fd5b505050506040513d601f19601f82011682018060405250810190610c169190611515565b610c625760405162461bcd60e51b815260206004820152601c60248201527f44726f6e652073746174696f6e206e6f74207265676973746572656400000000604482015260640161028f565b60648560ff161115610cb65760405162461bcd60e51b815260206004820152601760248201527f504152532073636f7265206f7574206f662072616e6765000000000000000000604482015260640161028f565b60015460405163778107a560e11b8152600481018890526000916001600160a01b03169063ef020f4a906024016020604051808303816000875af1158015610d02573d6000803e3d6000fd5b505050506040513d601f19601f82011682018060405250810190610d269190611515565b905080610d865760405162461bcd60e51b815260206004820152602860248201527f507265736372697074696f6e206e6f742076657269666965642062792053432d60448201526737206f7261636c6560c01b606482015260840161028f565b6000610d9187610ff1565b600280549192506000610da38361159b565b91905055506040518061018001604052806002548152602001336001600160a01b031681526020018a6001600160a01b031681526020018981526020018860ff168152602001878152602001866001600160a01b03168152602001856001600160a01b0316815260200160006001600160a01b0316815260200160006005811115610e3057610e306112e4565b81526020014281526020018242610e4791906115b4565b90526002805460009081526003602081815260409283902085518155908501516001820180546001600160a01b03199081166001600160a01b0393841617909155938601519482018054909416941693909317909155606083015190820155608082015160048201805460ff191660ff90921691909117905560a08201516005820190610ed49082611616565b5060c08201516006820180546001600160a01b03199081166001600160a01b039384161790915560e0840151600784018054831691841691909117905561010084015160088401805492831691909316908117835561012085015192916001600160a81b03191617600160a01b836005811115610f5357610f536112e4565b0217905550610140820151600982015561016090910151600a909101556001600160a01b038916600081815260046020908152604080832060028054825460018101845592865294849020909101939093559154825160ff8c1681529182018c9052917f2758fac40096ce82dadbcfbff5feaa5d4f187ebf879d98e431b2a6ab5728d2f7910160405180910390a35050600254979650505050505050565b6000605a8260ff1610611006575060b4919050565b60468260ff161061101a5750610258919050565b60288260ff161061102e5750610708919050565b50611c20919050565b600081815260036020526040902060068101546001600160a01b031633146110a15760405162461bcd60e51b815260206004820152601b60248201527f4f6e6c79207468652061737369676e65642077617265686f7573650000000000604482015260640161028f565b60006008820154600160a01b900460ff1660058111156110c3576110c36112e4565b146111105760405162461bcd60e51b815260206004820152601a60248201527f4f72646572206e6f7420696e2050454e44494e47207374617465000000000000604482015260640161028f565b600881018054600160a01b60ff60a01b1990911617905560405133815282907fffe4ac18338a3ca32687035316cfe7b1a8c65118eded2db32f11945b56ce6bac9060200160405180910390a2817fd9a86b644eb5f5b43cc8a700849852481080361c7a4b00ba646d1b46c5585f95600160405161118d9190611537565b60405180910390a25050565b80356001600160a01b03811681146111b057600080fd5b919050565b600080604083850312156111c857600080fd5b6111d183611199565b946020939093013593505050565b600080604083850312156111f257600080fd5b8235915061120260208401611199565b90509250929050565b6000806040838503121561121e57600080fd5b8235915060208301356006811061123457600080fd5b809150509250929050565b803560ff811681146111b057600080fd5b60006020828403121561126257600080fd5b61126b8261123f565b9392505050565b6000815180845260005b818110156112985760208185018101518683018201520161127c565b506000602082860101526020601f19601f83011685010191505092915050565b60208152600061126b6020830184611272565b6000602082840312156112dd57600080fd5b5035919050565b634e487b7160e01b600052602160045260246000fd5b6006811061131857634e487b7160e01b600052602160045260246000fd5b9052565b8c81526001600160a01b038c811660208301528b81166040830152606082018b905260ff8a16608083015261018060a083018190526000916113608483018c611272565b9250808a1660c085015280891660e0850152808816610100850152505061138b6101208301866112fa565b61014082019390935261016001529a9950505050505050505050565b600060018060a01b03808a168352808916602084015260ff8816604084015260e060608401526113da60e0840188611272565b908616608084015290506113f160a08301856112fa565b8260c083015298975050505050505050565b634e487b7160e01b600052604160045260246000fd5b60008060008060008060c0878903121561143257600080fd5b61143b87611199565b9550602087013594506114506040880161123f565b9350606087013567ffffffffffffffff8082111561146d57600080fd5b818901915089601f83011261148157600080fd5b81358181111561149357611493611403565b604051601f8201601f19908116603f011681019083821181831017156114bb576114bb611403565b816040528281528c60208487010111156114d457600080fd5b8260208601602083013760006020848301015280975050505050506114fb60808801611199565b915061150960a08801611199565b90509295509295509295565b60006020828403121561152757600080fd5b8151801515811461126b57600080fd5b6020810161154582846112fa565b92915050565b600181811c9082168061155f57607f821691505b60208210810361157f57634e487b7160e01b600052602260045260246000fd5b50919050565b634e487b7160e01b600052601160045260246000fd5b6000600182016115ad576115ad611585565b5060010190565b8082018082111561154557611545611585565b601f82111561161157600081815260208120601f850160051c810160208610156115ee5750805b601f850160051c820191505b8181101561160d578281556001016115fa565b5050505b505050565b815167ffffffffffffffff81111561163057611630611403565b6116448161163e845461154b565b846115c7565b602080601f83116001811461167957600084156116615750858301515b600019600386901b1c1916600185901b17855561160d565b600085815260208120601f198616915b828110156116a857888601518255948401946001909101908401611689565b50858210156116c65787850151600019600388901b60f8161c191681555b5050505050600190811b0190555056fea2646970667358221220223f27aeaa59a9a24bd0862bc18b7fc20d32567fccf66e4347378a6f5bb6d78a64736f6c63430008140033","opcodes":"PUSH1 0x80 PUSH1 0x40 MSTORE CALLVALUE DUP1 ISZERO PUSH2 0x10 JUMPI PUSH1 0x0 DUP1 REVERT JUMPDEST POP PUSH1 0x40 MLOAD PUSH3 0x17CD CODESIZE SUB DUP1 PUSH3 0x17CD DUP4 CODECOPY DUP2 ADD PUSH1 0x40 DUP2 SWAP1 MSTORE PUSH2 0x31 SWAP2 PUSH2 0x7E JUMP JUMPDEST PUSH1 0x0 DUP1 SLOAD PUSH1 0x1 PUSH1 0x1 PUSH1 0xA0 SHL SUB SWAP4 DUP5 AND PUSH1 0x1 PUSH1 0x1 PUSH1 0xA0 SHL SUB NOT SWAP2 DUP3 AND OR SWAP1 SWAP2 SSTORE PUSH1 0x1 DUP1 SLOAD SWAP3 SWAP1 SWAP4 AND SWAP2 AND OR SWAP1 SSTORE PUSH2 0xB1 JUMP JUMPDEST DUP1 MLOAD PUSH1 0x1 PUSH1 0x1 PUSH1 0xA0 SHL SUB DUP2 AND DUP2 EQ PUSH2 0x79 JUMPI PUSH1 0x0 DUP1 REVERT JUMPDEST SWAP2 SWAP1 POP JUMP JUMPDEST PUSH1 0x0 DUP1 PUSH1 0x40 DUP4 DUP6 SUB SLT ISZERO PUSH2 0x91 JUMPI PUSH1 0x0 DUP1 REVERT JUMPDEST PUSH2 0x9A DUP4 PUSH2 0x62 JUMP JUMPDEST SWAP2 POP PUSH2 0xA8 PUSH1 0x20 DUP5 ADD PUSH2 0x62 JUMP JUMPDEST SWAP1 POP SWAP3 POP SWAP3 SWAP1 POP JUMP JUMPDEST PUSH2 0x170C DUP1 PUSH3 0xC1 PUSH1 0x0 CODECOPY PUSH1 0x0 RETURN INVALID PUSH1 0x80 PUSH1 0x40 MSTORE CALLVALUE DUP1 ISZERO PUSH2 0x10 JUMPI PUSH1 0x0 DUP1 REVERT JUMPDEST POP PUSH1 0x4 CALLDATASIZE LT PUSH2 0xB4 JUMPI PUSH1 0x0 CALLDATALOAD PUSH1 0xE0 SHR DUP1 PUSH4 0x984E0FCA GT PUSH2 0x71 JUMPI DUP1 PUSH4 0x984E0FCA EQ PUSH2 0x15B JUMPI DUP1 PUSH4 0xA85C38EF EQ PUSH2 0x16E JUMPI DUP1 PUSH4 0xD09EF241 EQ PUSH2 0x199 JUMPI DUP1 PUSH4 0xE6FE9708 EQ PUSH2 0x1BF JUMPI DUP1 PUSH4 0xED56514C EQ PUSH2 0x1D2 JUMPI DUP1 PUSH4 0xF6322BD6 EQ PUSH2 0x1E5 JUMPI PUSH1 0x0 DUP1 REVERT JUMPDEST DUP1 PUSH4 0xC1F629D EQ PUSH2 0xB9 JUMPI DUP1 PUSH4 0xCFCB07E EQ PUSH2 0xE9 JUMPI DUP1 PUSH4 0x2453FFA8 EQ PUSH2 0x10A JUMPI DUP1 PUSH4 0x293C6A13 EQ PUSH2 0x113 JUMPI DUP1 PUSH4 0x3A1B3D31 EQ PUSH2 0x128 JUMPI DUP1 PUSH4 0x57B73204 EQ PUSH2 0x13B JUMPI JUMPDEST PUSH1 0x0 DUP1 REVERT JUMPDEST PUSH1 0x0 SLOAD PUSH2 0xCC SWAP1 PUSH1 0x1 PUSH1 0x1 PUSH1 0xA0 SHL SUB AND DUP2 JUMP JUMPDEST PUSH1 0x40 MLOAD PUSH1 0x1 PUSH1 0x1 PUSH1 0xA0 SHL SUB SWAP1 SWAP2 AND DUP2 MSTORE PUSH1 0x20 ADD JUMPDEST PUSH1 0x40 MLOAD DUP1 SWAP2 SUB SWAP1 RETURN JUMPDEST PUSH2 0xFC PUSH2 0xF7 CALLDATASIZE PUSH1 0x4 PUSH2 0x11B5 JUMP JUMPDEST PUSH2 0x1F8 JUMP JUMPDEST PUSH1 0x40 MLOAD SWAP1 DUP2 MSTORE PUSH1 0x20 ADD PUSH2 0xE0 JUMP JUMPDEST PUSH2 0xFC PUSH1 0x2 SLOAD DUP2 JUMP JUMPDEST PUSH2 0x126 PUSH2 0x121 CALLDATASIZE PUSH1 0x4 PUSH2 0x11DF JUMP JUMPDEST PUSH2 0x229 JUMP JUMPDEST STOP JUMPDEST PUSH2 0x126 PUSH2 0x136 CALLDATASIZE PUSH1 0x4 PUSH2 0x120B JUMP JUMPDEST PUSH2 0x450 JUMP JUMPDEST PUSH2 0x14E PUSH2 0x149 CALLDATASIZE PUSH1 0x4 PUSH2 0x1250 JUMP JUMPDEST PUSH2 0x5EF JUMP JUMPDEST PUSH1 0x40 MLOAD PUSH2 0xE0 SWAP2 SWAP1 PUSH2 0x12B8 JUMP JUMPDEST PUSH1 0x1 SLOAD PUSH2 0xCC SWAP1 PUSH1 0x1 PUSH1 0x1 PUSH1 0xA0 SHL SUB AND DUP2 JUMP JUMPDEST PUSH2 0x181 PUSH2 0x17C CALLDATASIZE PUSH1 0x4 PUSH2 0x12CB JUMP JUMPDEST PUSH2 0x6C6 JUMP JUMPDEST PUSH1 0x40 MLOAD PUSH2 0xE0 SWAP13 SWAP12 SWAP11 SWAP10 SWAP9 SWAP8 SWAP7 SWAP6 SWAP5 SWAP4 SWAP3 SWAP2 SWAP1 PUSH2 0x131C JUMP JUMPDEST PUSH2 0x1AC PUSH2 0x1A7 CALLDATASIZE PUSH1 0x4 PUSH2 0x12CB JUMP JUMPDEST PUSH2 0x7D1 JUMP JUMPDEST PUSH1 0x40 MLOAD PUSH2 0xE0 SWAP8 SWAP7 SWAP6 SWAP5 SWAP4 SWAP3 SWAP2 SWAP1 PUSH2 0x13A7 JUMP JUMPDEST PUSH2 0xFC PUSH2 0x1CD CALLDATASIZE PUSH1 0x4 PUSH2 0x1419 JUMP JUMPDEST PUSH2 0x98E JUMP JUMPDEST PUSH2 0xFC PUSH2 0x1E0 CALLDATASIZE PUSH1 0x4 PUSH2 0x1250 JUMP JUMPDEST PUSH2 0xFF1 JUMP JUMPDEST PUSH2 0x126 PUSH2 0x1F3 CALLDATASIZE PUSH1 0x4 PUSH2 0x12CB JUMP JUMPDEST PUSH2 0x1037 JUMP JUMPDEST PUSH1 0x4 PUSH1 0x20 MSTORE DUP2 PUSH1 0x0 MSTORE PUSH1 0x40 PUSH1 0x0 KECCAK256 DUP2 DUP2 SLOAD DUP2 LT PUSH2 0x214 JUMPI PUSH1 0x0 DUP1 REVERT JUMPDEST SWAP1 PUSH1 0x0 MSTORE PUSH1 0x20 PUSH1 0x0 KECCAK256 ADD PUSH1 0x0 SWAP2 POP SWAP2 POP POP SLOAD DUP2 JUMP JUMPDEST PUSH1 0x0 DUP3 DUP2 MSTORE PUSH1 0x3 PUSH1 0x20 MSTORE PUSH1 0x40 SWAP1 KECCAK256 PUSH1 0x7 DUP2 ADD SLOAD PUSH1 0x1 PUSH1 0x1 PUSH1 0xA0 SHL SUB AND CALLER EQ PUSH2 0x298 JUMPI PUSH1 0x40 MLOAD PUSH3 0x461BCD PUSH1 0xE5 SHL DUP2 MSTORE PUSH1 0x20 PUSH1 0x4 DUP3 ADD MSTORE PUSH1 0x1F PUSH1 0x24 DUP3 ADD MSTORE PUSH32 0x4F6E6C79207468652061737369676E65642064726F6E652073746174696F6E00 PUSH1 0x44 DUP3 ADD MSTORE PUSH1 0x64 ADD JUMPDEST PUSH1 0x40 MLOAD DUP1 SWAP2 SUB SWAP1 REVERT JUMPDEST PUSH1 0x1 PUSH1 0x8 DUP3 ADD SLOAD PUSH1 0x1 PUSH1 0xA0 SHL SWAP1 DIV PUSH1 0xFF AND PUSH1 0x5 DUP2 GT ISZERO PUSH2 0x2BA JUMPI PUSH2 0x2BA PUSH2 0x12E4 JUMP JUMPDEST EQ PUSH2 0x307 JUMPI PUSH1 0x40 MLOAD PUSH3 0x461BCD PUSH1 0xE5 SHL DUP2 MSTORE PUSH1 0x20 PUSH1 0x4 DUP3 ADD MSTORE PUSH1 0x17 PUSH1 0x24 DUP3 ADD MSTORE PUSH32 0x4F72646572206E6F7420434F4E4649524D454420796574000000000000000000 PUSH1 0x44 DUP3 ADD MSTORE PUSH1 0x64 ADD PUSH2 0x28F JUMP JUMPDEST PUSH1 0x0 SLOAD PUSH1 0x40 MLOAD PUSH4 0x9F8A13D7 PUSH1 0xE0 SHL DUP2 MSTORE PUSH1 0x1 PUSH1 0x1 PUSH1 0xA0 SHL SUB DUP5 DUP2 AND PUSH1 0x4 DUP4 ADD MSTORE SWAP1 SWAP2 AND SWAP1 PUSH4 0x9F8A13D7 SWAP1 PUSH1 0x24 ADD PUSH1 0x20 PUSH1 0x40 MLOAD DUP1 DUP4 SUB DUP2 DUP7 GAS STATICCALL ISZERO DUP1 ISZERO PUSH2 0x351 JUMPI RETURNDATASIZE PUSH1 0x0 DUP1 RETURNDATACOPY RETURNDATASIZE PUSH1 0x0 REVERT JUMPDEST POP POP POP POP PUSH1 0x40 MLOAD RETURNDATASIZE PUSH1 0x1F NOT PUSH1 0x1F DUP3 ADD AND DUP3 ADD DUP1 PUSH1 0x40 MSTORE POP DUP2 ADD SWAP1 PUSH2 0x375 SWAP2 SWAP1 PUSH2 0x1515 JUMP JUMPDEST PUSH2 0x3B6 JUMPI PUSH1 0x40 MLOAD PUSH3 0x461BCD PUSH1 0xE5 SHL DUP2 MSTORE PUSH1 0x20 PUSH1 0x4 DUP3 ADD MSTORE PUSH1 0x12 PUSH1 0x24 DUP3 ADD MSTORE PUSH18 0x155055881B9BDD081C9959DA5CDD195C9959 PUSH1 0x72 SHL PUSH1 0x44 DUP3 ADD MSTORE PUSH1 0x64 ADD PUSH2 0x28F JUMP JUMPDEST PUSH1 0x8 DUP2 ADD DUP1 SLOAD PUSH1 0x1 PUSH1 0x1 PUSH1 0xA0 SHL SUB DUP5 AND PUSH1 0x1 PUSH1 0x1 PUSH1 0xA8 SHL SUB NOT SWAP1 SWAP2 AND DUP2 OR PUSH1 0x1 PUSH1 0xA1 SHL OR SWAP1 SWAP2 SSTORE PUSH1 0x40 DUP1 MLOAD SWAP2 DUP3 MSTORE MLOAD DUP5 SWAP2 PUSH32 0x85CC5DB68E09751C486E29A5016EF3FF5F2EB672C656AEF517CC17EE53C36DC7 SWAP2 SWAP1 DUP2 SWAP1 SUB PUSH1 0x20 ADD SWAP1 LOG2 DUP3 PUSH32 0xD9A86B644EB5F5B43CC8A700849852481080361C7A4B00BA646D1B46C5585F95 PUSH1 0x2 PUSH1 0x40 MLOAD PUSH2 0x443 SWAP2 SWAP1 PUSH2 0x1537 JUMP JUMPDEST PUSH1 0x40 MLOAD DUP1 SWAP2 SUB SWAP1 LOG2 POP POP POP JUMP JUMPDEST PUSH1 0x0 SLOAD PUSH1 0x40 MLOAD PUSH4 0x9F8A13D7 PUSH1 0xE0 SHL DUP2 MSTORE CALLER PUSH1 0x4 DUP3 ADD MSTORE PUSH1 0x1 PUSH1 0x1 PUSH1 0xA0 SHL SUB SWAP1 SWAP2 AND SWAP1 PUSH4 0x9F8A13D7 SWAP1 PUSH1 0x24 ADD PUSH1 0x20 PUSH1 0x40 MLOAD DUP1 DUP4 SUB DUP2 DUP7 GAS STATICCALL ISZERO DUP1 ISZERO PUSH2 0x498 JUMPI RETURNDATASIZE PUSH1 0x0 DUP1 RETURNDATACOPY RETURNDATASIZE PUSH1 0x0 REVERT JUMPDEST POP POP POP POP PUSH1 0x40 MLOAD RETURNDATASIZE PUSH1 0x1F NOT PUSH1 0x1F DUP3 ADD AND DUP3 ADD DUP1 PUSH1 0x40 MSTORE POP DUP2 ADD SWAP1 PUSH2 0x4BC SWAP2 SWAP1 PUSH2 0x1515 JUMP JUMPDEST PUSH2 0x500 JUMPI PUSH1 0x40 MLOAD PUSH3 0x461BCD PUSH1 0xE5 SHL DUP2 MSTORE PUSH1 0x20 PUSH1 0x4 DUP3 ADD MSTORE PUSH1 0x15 PUSH1 0x24 DUP3 ADD MSTORE PUSH21 0x10D85B1B195C881B9BDD081C9959DA5CDD195C9959 PUSH1 0x5A SHL PUSH1 0x44 DUP3 ADD MSTORE PUSH1 0x64 ADD PUSH2 0x28F JUMP JUMPDEST PUSH1 0x0 DUP3 DUP2 MSTORE PUSH1 0x3 PUSH1 0x20 MSTORE PUSH1 0x40 SWAP1 KECCAK256 PUSH1 0x7 DUP2 ADD SLOAD PUSH1 0x1 PUSH1 0x1 PUSH1 0xA0 SHL SUB AND CALLER EQ DUP1 PUSH2 0x535 JUMPI POP PUSH1 0x8 DUP2 ADD SLOAD PUSH1 0x1 PUSH1 0x1 PUSH1 0xA0 SHL SUB AND CALLER EQ JUMPDEST PUSH2 0x593 JUMPI PUSH1 0x40 MLOAD PUSH3 0x461BCD PUSH1 0xE5 SHL DUP2 MSTORE PUSH1 0x20 PUSH1 0x4 DUP3 ADD MSTORE PUSH1 0x29 PUSH1 0x24 DUP3 ADD MSTORE PUSH32 0x4F6E6C79204453206F722061737369676E6564205541562063616E2075706461 PUSH1 0x44 DUP3 ADD MSTORE PUSH9 0x746520737461747573 PUSH1 0xB8 SHL PUSH1 0x64 DUP3 ADD MSTORE PUSH1 0x84 ADD PUSH2 0x28F JUMP JUMPDEST PUSH1 0x8 DUP2 ADD DUP1 SLOAD DUP4 SWAP2 SWAP1 PUSH1 0xFF PUSH1 0xA0 SHL NOT AND PUSH1 0x1 PUSH1 0xA0 SHL DUP4 PUSH1 0x5 DUP2 GT ISZERO PUSH2 0x5BA JUMPI PUSH2 0x5BA PUSH2 0x12E4 JUMP JUMPDEST MUL OR SWAP1 SSTORE POP DUP3 PUSH32 0xD9A86B644EB5F5B43CC8A700849852481080361C7A4B00BA646D1B46C5585F95 DUP4 PUSH1 0x40 MLOAD PUSH2 0x443 SWAP2 SWAP1 PUSH2 0x1537 JUMP JUMPDEST PUSH1 0x60 PUSH1 0x5A DUP3 PUSH1 0xFF AND LT PUSH2 0x62B JUMPI POP POP PUSH1 0x40 DUP1 MLOAD DUP1 DUP3 ADD SWAP1 SWAP2 MSTORE PUSH1 0x13 DUP2 MSTORE PUSH19 0x435249544943414C202D20336D696E20534C41 PUSH1 0x68 SHL PUSH1 0x20 DUP3 ADD MSTORE SWAP1 JUMP JUMPDEST PUSH1 0x46 DUP3 PUSH1 0xFF AND LT PUSH2 0x662 JUMPI POP POP PUSH1 0x40 DUP1 MLOAD DUP1 DUP3 ADD SWAP1 SWAP2 MSTORE PUSH1 0x10 DUP2 MSTORE PUSH16 0x48494748202D2031306D696E20534C41 PUSH1 0x80 SHL PUSH1 0x20 DUP3 ADD MSTORE SWAP1 JUMP JUMPDEST PUSH1 0x28 DUP3 PUSH1 0xFF AND LT PUSH2 0x69D JUMPI POP POP PUSH1 0x40 DUP1 MLOAD DUP1 DUP3 ADD SWAP1 SWAP2 MSTORE PUSH1 0x14 DUP2 MSTORE PUSH20 0x4D4F444552415445202D2033306D696E20534C41 PUSH1 0x60 SHL PUSH1 0x20 DUP3 ADD MSTORE SWAP1 JUMP JUMPDEST POP POP PUSH1 0x40 DUP1 MLOAD DUP1 DUP3 ADD SWAP1 SWAP2 MSTORE PUSH1 0xD DUP2 MSTORE PUSH13 0x4C4F57202D2032687220534C41 PUSH1 0x98 SHL PUSH1 0x20 DUP3 ADD MSTORE SWAP1 JUMP JUMPDEST PUSH1 0x3 PUSH1 0x20 DUP2 SWAP1 MSTORE PUSH1 0x0 SWAP2 DUP3 MSTORE PUSH1 0x40 SWAP1 SWAP2 KECCAK256 DUP1 SLOAD PUSH1 0x1 DUP3 ADD SLOAD PUSH1 0x2 DUP4 ADD SLOAD SWAP4 DUP4 ADD SLOAD PUSH1 0x4 DUP5 ADD SLOAD PUSH1 0x5 DUP6 ADD DUP1 SLOAD SWAP5 SWAP7 PUSH1 0x1 PUSH1 0x1 PUSH1 0xA0 SHL SUB SWAP5 DUP6 AND SWAP7 SWAP5 AND SWAP5 SWAP3 SWAP4 PUSH1 0xFF SWAP1 SWAP3 AND SWAP3 PUSH2 0x714 SWAP1 PUSH2 0x154B JUMP JUMPDEST DUP1 PUSH1 0x1F ADD PUSH1 0x20 DUP1 SWAP2 DIV MUL PUSH1 0x20 ADD PUSH1 0x40 MLOAD SWAP1 DUP2 ADD PUSH1 0x40 MSTORE DUP1 SWAP3 SWAP2 SWAP1 DUP2 DUP2 MSTORE PUSH1 0x20 ADD DUP3 DUP1 SLOAD PUSH2 0x740 SWAP1 PUSH2 0x154B JUMP JUMPDEST DUP1 ISZERO PUSH2 0x78D JUMPI DUP1 PUSH1 0x1F LT PUSH2 0x762 JUMPI PUSH2 0x100 DUP1 DUP4 SLOAD DIV MUL DUP4 MSTORE SWAP2 PUSH1 0x20 ADD SWAP2 PUSH2 0x78D JUMP JUMPDEST DUP3 ADD SWAP2 SWAP1 PUSH1 0x0 MSTORE PUSH1 0x20 PUSH1 0x0 KECCAK256 SWAP1 JUMPDEST DUP2 SLOAD DUP2 MSTORE SWAP1 PUSH1 0x1 ADD SWAP1 PUSH1 0x20 ADD DUP1 DUP4 GT PUSH2 0x770 JUMPI DUP3 SWAP1 SUB PUSH1 0x1F AND DUP3 ADD SWAP2 JUMPDEST POP POP POP POP PUSH1 0x6 DUP4 ADD SLOAD PUSH1 0x7 DUP5 ADD SLOAD PUSH1 0x8 DUP6 ADD SLOAD PUSH1 0x9 DUP7 ADD SLOAD PUSH1 0xA SWAP1 SWAP7 ADD SLOAD SWAP5 SWAP6 PUSH1 0x1 PUSH1 0x1 PUSH1 0xA0 SHL SUB SWAP4 DUP5 AND SWAP6 SWAP3 DUP5 AND SWAP5 POP SWAP3 DUP2 AND SWAP3 PUSH1 0x1 PUSH1 0xA0 SHL SWAP1 SWAP2 DIV PUSH1 0xFF AND SWAP2 DUP13 JUMP JUMPDEST PUSH1 0x0 DUP2 DUP2 MSTORE PUSH1 0x3 PUSH1 0x20 DUP2 DUP2 MSTORE PUSH1 0x40 DUP1 DUP5 KECCAK256 DUP2 MLOAD PUSH2 0x180 DUP2 ADD DUP4 MSTORE DUP2 SLOAD DUP2 MSTORE PUSH1 0x1 DUP3 ADD SLOAD PUSH1 0x1 PUSH1 0x1 PUSH1 0xA0 SHL SUB SWAP1 DUP2 AND SWAP5 DUP3 ADD SWAP5 SWAP1 SWAP5 MSTORE PUSH1 0x2 DUP3 ADD SLOAD SWAP1 SWAP4 AND SWAP2 DUP4 ADD SWAP2 SWAP1 SWAP2 MSTORE SWAP2 DUP3 ADD SLOAD PUSH1 0x60 DUP3 DUP2 ADD SWAP2 SWAP1 SWAP2 MSTORE PUSH1 0x4 DUP4 ADD SLOAD PUSH1 0xFF AND PUSH1 0x80 DUP4 ADD MSTORE PUSH1 0x5 DUP4 ADD DUP1 SLOAD DUP6 SWAP5 DUP6 SWAP5 DUP6 SWAP4 DUP5 SWAP4 DUP5 SWAP4 DUP5 SWAP4 SWAP3 SWAP1 SWAP2 PUSH1 0xA0 DUP5 ADD SWAP2 SWAP1 PUSH2 0x853 SWAP1 PUSH2 0x154B JUMP JUMPDEST DUP1 PUSH1 0x1F ADD PUSH1 0x20 DUP1 SWAP2 DIV MUL PUSH1 0x20 ADD PUSH1 0x40 MLOAD SWAP1 DUP2 ADD PUSH1 0x40 MSTORE DUP1 SWAP3 SWAP2 SWAP1 DUP2 DUP2 MSTORE PUSH1 0x20 ADD DUP3 DUP1 SLOAD PUSH2 0x87F SWAP1 PUSH2 0x154B JUMP JUMPDEST DUP1 ISZERO PUSH2 0x8CC JUMPI DUP1 PUSH1 0x1F LT PUSH2 0x8A1 JUMPI PUSH2 0x100 DUP1 DUP4 SLOAD DIV MUL DUP4 MSTORE SWAP2 PUSH1 0x20 ADD SWAP2 PUSH2 0x8CC JUMP JUMPDEST DUP3 ADD SWAP2 SWAP1 PUSH1 0x0 MSTORE PUSH1 0x20 PUSH1 0x0 KECCAK256 SWAP1 JUMPDEST DUP2 SLOAD DUP2 MSTORE SWAP1 PUSH1 0x1 ADD SWAP1 PUSH1 0x20 ADD DUP1 DUP4 GT PUSH2 0x8AF JUMPI DUP3 SWAP1 SUB PUSH1 0x1F AND DUP3 ADD SWAP2 JUMPDEST POP POP POP SWAP2 DUP4 MSTORE POP POP PUSH1 0x6 DUP3 ADD SLOAD PUSH1 0x1 PUSH1 0x1 PUSH1 0xA0 SHL SUB SWAP1 DUP2 AND PUSH1 0x20 DUP4 ADD MSTORE PUSH1 0x7 DUP4 ADD SLOAD DUP2 AND PUSH1 0x40 DUP4 ADD MSTORE PUSH1 0x8 DUP4 ADD SLOAD SWAP1 DUP2 AND PUSH1 0x60 DUP4 ADD MSTORE PUSH1 0x80 SWAP1 SWAP2 ADD SWAP1 PUSH1 0x1 PUSH1 0xA0 SHL SWAP1 DIV PUSH1 0xFF AND PUSH1 0x5 DUP2 GT ISZERO PUSH2 0x923 JUMPI PUSH2 0x923 PUSH2 0x12E4 JUMP JUMPDEST PUSH1 0x5 DUP2 GT ISZERO PUSH2 0x934 JUMPI PUSH2 0x934 PUSH2 0x12E4 JUMP JUMPDEST DUP2 MSTORE PUSH1 0x20 ADD PUSH1 0x9 DUP3 ADD SLOAD DUP2 MSTORE PUSH1 0x20 ADD PUSH1 0xA DUP3 ADD SLOAD DUP2 MSTORE POP POP SWAP1 POP DUP1 PUSH1 0x20 ADD MLOAD DUP2 PUSH1 0x40 ADD MLOAD DUP3 PUSH1 0x80 ADD MLOAD DUP4 PUSH1 0xA0 ADD MLOAD DUP5 PUSH2 0x100 ADD MLOAD DUP6 PUSH2 0x120 ADD MLOAD DUP7 PUSH2 0x160 ADD MLOAD SWAP8 POP SWAP8 POP SWAP8 POP SWAP8 POP SWAP8 POP SWAP8 POP SWAP8 POP POP SWAP2 SWAP4 SWAP6 SWAP8 SWAP1 SWAP3 SWAP5 SWAP7 POP JUMP JUMPDEST PUSH1 0x0 DUP1 SLOAD PUSH1 0x40 MLOAD PUSH4 0x9F8A13D7 PUSH1 0xE0 SHL DUP2 MSTORE CALLER PUSH1 0x4 DUP3 ADD MSTORE PUSH1 0x1 PUSH1 0x1 PUSH1 0xA0 SHL SUB SWAP1 SWAP2 AND SWAP1 PUSH4 0x9F8A13D7 SWAP1 PUSH1 0x24 ADD PUSH1 0x20 PUSH1 0x40 MLOAD DUP1 DUP4 SUB DUP2 DUP7 GAS STATICCALL ISZERO DUP1 ISZERO PUSH2 0x9D7 JUMPI RETURNDATASIZE PUSH1 0x0 DUP1 RETURNDATACOPY RETURNDATASIZE PUSH1 0x0 REVERT JUMPDEST POP POP POP POP PUSH1 0x40 MLOAD RETURNDATASIZE PUSH1 0x1F NOT PUSH1 0x1F DUP3 ADD AND DUP3 ADD DUP1 PUSH1 0x40 MSTORE POP DUP2 ADD SWAP1 PUSH2 0x9FB SWAP2 SWAP1 PUSH2 0x1515 JUMP JUMPDEST PUSH2 0xA3B JUMPI PUSH1 0x40 MLOAD PUSH3 0x461BCD PUSH1 0xE5 SHL DUP2 MSTORE PUSH1 0x20 PUSH1 0x4 DUP3 ADD MSTORE PUSH1 0x11 PUSH1 0x24 DUP3 ADD MSTORE PUSH17 0x1214081B9BDD081C9959DA5CDD195C9959 PUSH1 0x7A SHL PUSH1 0x44 DUP3 ADD MSTORE PUSH1 0x64 ADD PUSH2 0x28F JUMP JUMPDEST PUSH1 0x0 SLOAD PUSH1 0x40 MLOAD PUSH4 0x9F8A13D7 PUSH1 0xE0 SHL DUP2 MSTORE PUSH1 0x1 PUSH1 0x1 PUSH1 0xA0 SHL SUB DUP10 DUP2 AND PUSH1 0x4 DUP4 ADD MSTORE SWAP1 SWAP2 AND SWAP1 PUSH4 0x9F8A13D7 SWAP1 PUSH1 0x24 ADD PUSH1 0x20 PUSH1 0x40 MLOAD DUP1 DUP4 SUB DUP2 DUP7 GAS STATICCALL ISZERO DUP1 ISZERO PUSH2 0xA85 JUMPI RETURNDATASIZE PUSH1 0x0 DUP1 RETURNDATACOPY RETURNDATASIZE PUSH1 0x0 REVERT JUMPDEST POP POP POP POP PUSH1 0x40 MLOAD RETURNDATASIZE PUSH1 0x1F NOT PUSH1 0x1F DUP3 ADD AND DUP3 ADD DUP1 PUSH1 0x40 MSTORE POP DUP2 ADD SWAP1 PUSH2 0xAA9 SWAP2 SWAP1 PUSH2 0x1515 JUMP JUMPDEST PUSH2 0xAEE JUMPI PUSH1 0x40 MLOAD PUSH3 0x461BCD PUSH1 0xE5 SHL DUP2 MSTORE PUSH1 0x20 PUSH1 0x4 DUP3 ADD MSTORE PUSH1 0x16 PUSH1 0x24 DUP3 ADD MSTORE PUSH22 0x14185D1A595B9D081B9BDD081C9959DA5CDD195C9959 PUSH1 0x52 SHL PUSH1 0x44 DUP3 ADD MSTORE PUSH1 0x64 ADD PUSH2 0x28F JUMP JUMPDEST PUSH1 0x0 SLOAD PUSH1 0x40 MLOAD PUSH4 0x9F8A13D7 PUSH1 0xE0 SHL DUP2 MSTORE PUSH1 0x1 PUSH1 0x1 PUSH1 0xA0 SHL SUB DUP6 DUP2 AND PUSH1 0x4 DUP4 ADD MSTORE SWAP1 SWAP2 AND SWAP1 PUSH4 0x9F8A13D7 SWAP1 PUSH1 0x24 ADD PUSH1 0x20 PUSH1 0x40 MLOAD DUP1 DUP4 SUB DUP2 DUP7 GAS STATICCALL ISZERO DUP1 ISZERO PUSH2 0xB38 JUMPI RETURNDATASIZE PUSH1 0x0 DUP1 RETURNDATACOPY RETURNDATASIZE PUSH1 0x0 REVERT JUMPDEST POP POP POP POP PUSH1 0x40 MLOAD RETURNDATASIZE PUSH1 0x1F NOT PUSH1 0x1F DUP3 ADD AND DUP3 ADD DUP1 PUSH1 0x40 MSTORE POP DUP2 ADD SWAP1 PUSH2 0xB5C SWAP2 SWAP1 PUSH2 0x1515 JUMP JUMPDEST PUSH2 0xBA8 JUMPI PUSH1 0x40 MLOAD PUSH3 0x461BCD PUSH1 0xE5 SHL DUP2 MSTORE PUSH1 0x20 PUSH1 0x4 DUP3 ADD MSTORE PUSH1 0x18 PUSH1 0x24 DUP3 ADD MSTORE PUSH32 0x57617265686F757365206E6F7420726567697374657265640000000000000000 PUSH1 0x44 DUP3 ADD MSTORE PUSH1 0x64 ADD PUSH2 0x28F JUMP JUMPDEST PUSH1 0x0 SLOAD PUSH1 0x40 MLOAD PUSH4 0x9F8A13D7 PUSH1 0xE0 SHL DUP2 MSTORE PUSH1 0x1 PUSH1 0x1 PUSH1 0xA0 SHL SUB DUP5 DUP2 AND PUSH1 0x4 DUP4 ADD MSTORE SWAP1 SWAP2 AND SWAP1 PUSH4 0x9F8A13D7 SWAP1 PUSH1 0x24 ADD PUSH1 0x20 PUSH1 0x40 MLOAD DUP1 DUP4 SUB DUP2 DUP7 GAS STATICCALL ISZERO DUP1 ISZERO PUSH2 0xBF2 JUMPI RETURNDATASIZE PUSH1 0x0 DUP1 RETURNDATACOPY RETURNDATASIZE PUSH1 0x0 REVERT JUMPDEST POP POP POP POP PUSH1 0x40 MLOAD RETURNDATASIZE PUSH1 0x1F NOT PUSH1 0x1F DUP3 ADD AND DUP3 ADD DUP1 PUSH1 0x40 MSTORE POP DUP2 ADD SWAP1 PUSH2 0xC16 SWAP2 SWAP1 PUSH2 0x1515 JUMP JUMPDEST PUSH2 0xC62 JUMPI PUSH1 0x40 MLOAD PUSH3 0x461BCD PUSH1 0xE5 SHL DUP2 MSTORE PUSH1 0x20 PUSH1 0x4 DUP3 ADD MSTORE PUSH1 0x1C PUSH1 0x24 DUP3 ADD MSTORE PUSH32 0x44726F6E652073746174696F6E206E6F74207265676973746572656400000000 PUSH1 0x44 DUP3 ADD MSTORE PUSH1 0x64 ADD PUSH2 0x28F JUMP JUMPDEST PUSH1 0x64 DUP6 PUSH1 0xFF AND GT ISZERO PUSH2 0xCB6 JUMPI PUSH1 0x40 MLOAD PUSH3 0x461BCD PUSH1 0xE5 SHL DUP2 MSTORE PUSH1 0x20 PUSH1 0x4 DUP3 ADD MSTORE PUSH1 0x17 PUSH1 0x24 DUP3 ADD MSTORE PUSH32 0x504152532073636F7265206F7574206F662072616E6765000000000000000000 PUSH1 0x44 DUP3 ADD MSTORE PUSH1 0x64 ADD PUSH2 0x28F JUMP JUMPDEST PUSH1 0x1 SLOAD PUSH1 0x40 MLOAD PUSH4 0x778107A5 PUSH1 0xE1 SHL DUP2 MSTORE PUSH1 0x4 DUP2 ADD DUP9 SWAP1 MSTORE PUSH1 0x0 SWAP2 PUSH1 0x1 PUSH1 0x1 PUSH1 0xA0 SHL SUB AND SWAP1 PUSH4 0xEF020F4A SWAP1 PUSH1 0x24 ADD PUSH1 0x20 PUSH1 0x40 MLOAD DUP1 DUP4 SUB DUP2 PUSH1 0x0 DUP8 GAS CALL ISZERO DUP1 ISZERO PUSH2 0xD02 JUMPI RETURNDATASIZE PUSH1 0x0 DUP1 RETURNDATACOPY RETURNDATASIZE PUSH1 0x0 REVERT JUMPDEST POP POP POP POP PUSH1 0x40 MLOAD RETURNDATASIZE PUSH1 0x1F NOT PUSH1 0x1F DUP3 ADD AND DUP3 ADD DUP1 PUSH1 0x40 MSTORE POP DUP2 ADD SWAP1 PUSH2 0xD26 SWAP2 SWAP1 PUSH2 0x1515 JUMP JUMPDEST SWAP1 POP DUP1 PUSH2 0xD86 JUMPI PUSH1 0x40 MLOAD PUSH3 0x461BCD PUSH1 0xE5 SHL DUP2 MSTORE PUSH1 0x20 PUSH1 0x4 DUP3 ADD MSTORE PUSH1 0x28 PUSH1 0x24 DUP3 ADD MSTORE PUSH32 0x507265736372697074696F6E206E6F742076657269666965642062792053432D PUSH1 0x44 DUP3 ADD MSTORE PUSH8 0x37206F7261636C65 PUSH1 0xC0 SHL PUSH1 0x64 DUP3 ADD MSTORE PUSH1 0x84 ADD PUSH2 0x28F JUMP JUMPDEST PUSH1 0x0 PUSH2 0xD91 DUP8 PUSH2 0xFF1 JUMP JUMPDEST PUSH1 0x2 DUP1 SLOAD SWAP2 SWAP3 POP PUSH1 0x0 PUSH2 0xDA3 DUP4 PUSH2 0x159B JUMP JUMPDEST SWAP2 SWAP1 POP SSTORE POP PUSH1 0x40 MLOAD DUP1 PUSH2 0x180 ADD PUSH1 0x40 MSTORE DUP1 PUSH1 0x2 SLOAD DUP2 MSTORE PUSH1 0x20 ADD CALLER PUSH1 0x1 PUSH1 0x1 PUSH1 0xA0 SHL SUB AND DUP2 MSTORE PUSH1 0x20 ADD DUP11 PUSH1 0x1 PUSH1 0x1 PUSH1 0xA0 SHL SUB AND DUP2 MSTORE PUSH1 0x20 ADD DUP10 DUP2 MSTORE PUSH1 0x20 ADD DUP9 PUSH1 0xFF AND DUP2 MSTORE PUSH1 0x20 ADD DUP8 DUP2 MSTORE PUSH1 0x20 ADD DUP7 PUSH1 0x1 PUSH1 0x1 PUSH1 0xA0 SHL SUB AND DUP2 MSTORE PUSH1 0x20 ADD DUP6 PUSH1 0x1 PUSH1 0x1 PUSH1 0xA0 SHL SUB AND DUP2 MSTORE PUSH1 0x20 ADD PUSH1 0x0 PUSH1 0x1 PUSH1 0x1 PUSH1 0xA0 SHL SUB AND DUP2 MSTORE PUSH1 0x20 ADD PUSH1 0x0 PUSH1 0x5 DUP2 GT ISZERO PUSH2 0xE30 JUMPI PUSH2 0xE30 PUSH2 0x12E4 JUMP JUMPDEST DUP2 MSTORE PUSH1 0x20 ADD TIMESTAMP DUP2 MSTORE PUSH1 0x20 ADD DUP3 TIMESTAMP PUSH2 0xE47 SWAP2 SWAP1 PUSH2 0x15B4 JUMP JUMPDEST SWAP1 MSTORE PUSH1 0x2 DUP1 SLOAD PUSH1 0x0 SWAP1 DUP2 MSTORE PUSH1 0x3 PUSH1 0x20 DUP2 DUP2 MSTORE PUSH1 0x40 SWAP3 DUP4 SWAP1 KECCAK256 DUP6 MLOAD DUP2 SSTORE SWAP1 DUP6 ADD MLOAD PUSH1 0x1 DUP3 ADD DUP1 SLOAD PUSH1 0x1 PUSH1 0x1 PUSH1 0xA0 SHL SUB NOT SWAP1 DUP2 AND PUSH1 0x1 PUSH1 0x1 PUSH1 0xA0 SHL SUB SWAP4 DUP5 AND OR SWAP1 SWAP2 SSTORE SWAP4 DUP7 ADD MLOAD SWAP5 DUP3 ADD DUP1 SLOAD SWAP1 SWAP5 AND SWAP5 AND SWAP4 SWAP1 SWAP4 OR SWAP1 SWAP2 SSTORE PUSH1 0x60 DUP4 ADD MLOAD SWAP1 DUP3 ADD SSTORE PUSH1 0x80 DUP3 ADD MLOAD PUSH1 0x4 DUP3 ADD DUP1 SLOAD PUSH1 0xFF NOT AND PUSH1 0xFF SWAP1 SWAP3 AND SWAP2 SWAP1 SWAP2 OR SWAP1 SSTORE PUSH1 0xA0 DUP3 ADD MLOAD PUSH1 0x5 DUP3 ADD SWAP1 PUSH2 0xED4 SWAP1 DUP3 PUSH2 0x1616 JUMP JUMPDEST POP PUSH1 0xC0 DUP3 ADD MLOAD PUSH1 0x6 DUP3 ADD DUP1 SLOAD PUSH1 0x1 PUSH1 0x1 PUSH1 0xA0 SHL SUB NOT SWAP1 DUP2 AND PUSH1 0x1 PUSH1 0x1 PUSH1 0xA0 SHL SUB SWAP4 DUP5 AND OR SWAP1 SWAP2 SSTORE PUSH1 0xE0 DUP5 ADD MLOAD PUSH1 0x7 DUP5 ADD DUP1 SLOAD DUP4 AND SWAP2 DUP5 AND SWAP2 SWAP1 SWAP2 OR SWAP1 SSTORE PUSH2 0x100 DUP5 ADD MLOAD PUSH1 0x8 DUP5 ADD DUP1 SLOAD SWAP3 DUP4 AND SWAP2 SWAP1 SWAP4 AND SWAP1 DUP2 OR DUP4 SSTORE PUSH2 0x120 DUP6 ADD MLOAD SWAP3 SWAP2 PUSH1 0x1 PUSH1 0x1 PUSH1 0xA8 SHL SUB NOT AND OR PUSH1 0x1 PUSH1 0xA0 SHL DUP4 PUSH1 0x5 DUP2 GT ISZERO PUSH2 0xF53 JUMPI PUSH2 0xF53 PUSH2 0x12E4 JUMP JUMPDEST MUL OR SWAP1 SSTORE POP PUSH2 0x140 DUP3 ADD MLOAD PUSH1 0x9 DUP3 ADD SSTORE PUSH2 0x160 SWAP1 SWAP2 ADD MLOAD PUSH1 0xA SWAP1 SWAP2 ADD SSTORE PUSH1 0x1 PUSH1 0x1 PUSH1 0xA0 SHL SUB DUP10 AND PUSH1 0x0 DUP2 DUP2 MSTORE PUSH1 0x4 PUSH1 0x20 SWAP1 DUP2 MSTORE PUSH1 0x40 DUP1 DUP4 KECCAK256 PUSH1 0x2 DUP1 SLOAD DUP3 SLOAD PUSH1 0x1 DUP2 ADD DUP5 SSTORE SWAP3 DUP7 MSTORE SWAP5 DUP5 SWAP1 KECCAK256 SWAP1 SWAP2 ADD SWAP4 SWAP1 SWAP4 SSTORE SWAP2 SLOAD DUP3 MLOAD PUSH1 0xFF DUP13 AND DUP2 MSTORE SWAP2 DUP3 ADD DUP13 SWAP1 MSTORE SWAP2 PUSH32 0x2758FAC40096CE82DADBCFBFF5FEAA5D4F187EBF879D98E431B2A6AB5728D2F7 SWAP2 ADD PUSH1 0x40 MLOAD DUP1 SWAP2 SUB SWAP1 LOG3 POP POP PUSH1 0x2 SLOAD SWAP8 SWAP7 POP POP POP POP POP POP POP JUMP JUMPDEST PUSH1 0x0 PUSH1 0x5A DUP3 PUSH1 0xFF AND LT PUSH2 0x1006 JUMPI POP PUSH1 0xB4 SWAP2 SWAP1 POP JUMP JUMPDEST PUSH1 0x46 DUP3 PUSH1 0xFF AND LT PUSH2 0x101A JUMPI POP PUSH2 0x258 SWAP2 SWAP1 POP JUMP JUMPDEST PUSH1 0x28 DUP3 PUSH1 0xFF AND LT PUSH2 0x102E JUMPI POP PUSH2 0x708 SWAP2 SWAP1 POP JUMP JUMPDEST POP PUSH2 0x1C20 SWAP2 SWAP1 POP JUMP JUMPDEST PUSH1 0x0 DUP2 DUP2 MSTORE PUSH1 0x3 PUSH1 0x20 MSTORE PUSH1 0x40 SWAP1 KECCAK256 PUSH1 0x6 DUP2 ADD SLOAD PUSH1 0x1 PUSH1 0x1 PUSH1 0xA0 SHL SUB AND CALLER EQ PUSH2 0x10A1 JUMPI PUSH1 0x40 MLOAD PUSH3 0x461BCD PUSH1 0xE5 SHL DUP2 MSTORE PUSH1 0x20 PUSH1 0x4 DUP3 ADD MSTORE PUSH1 0x1B PUSH1 0x24 DUP3 ADD MSTORE PUSH32 0x4F6E6C79207468652061737369676E65642077617265686F7573650000000000 PUSH1 0x44 DUP3 ADD MSTORE PUSH1 0x64 ADD PUSH2 0x28F JUMP JUMPDEST PUSH1 0x0 PUSH1 0x8 DUP3 ADD SLOAD PUSH1 0x1 PUSH1 0xA0 SHL SWAP1 DIV PUSH1 0xFF AND PUSH1 0x5 DUP2 GT ISZERO PUSH2 0x10C3 JUMPI PUSH2 0x10C3 PUSH2 0x12E4 JUMP JUMPDEST EQ PUSH2 0x1110 JUMPI PUSH1 0x40 MLOAD PUSH3 0x461BCD PUSH1 0xE5 SHL DUP2 MSTORE PUSH1 0x20 PUSH1 0x4 DUP3 ADD MSTORE PUSH1 0x1A PUSH1 0x24 DUP3 ADD MSTORE PUSH32 0x4F72646572206E6F7420696E2050454E44494E47207374617465000000000000 PUSH1 0x44 DUP3 ADD MSTORE PUSH1 0x64 ADD PUSH2 0x28F JUMP JUMPDEST PUSH1 0x8 DUP2 ADD DUP1 SLOAD PUSH1 0x1 PUSH1 0xA0 SHL PUSH1 0xFF PUSH1 0xA0 SHL NOT SWAP1 SWAP2 AND OR SWAP1 SSTORE PUSH1 0x40 MLOAD CALLER DUP2 MSTORE DUP3 SWAP1 PUSH32 0xFFE4AC18338A3CA32687035316CFE7B1A8C65118EDED2DB32F11945B56CE6BAC SWAP1 PUSH1 0x20 ADD PUSH1 0x40 MLOAD DUP1 SWAP2 SUB SWAP1 LOG2 DUP2 PUSH32 0xD9A86B644EB5F5B43CC8A700849852481080361C7A4B00BA646D1B46C5585F95 PUSH1 0x1 PUSH1 0x40 MLOAD PUSH2 0x118D SWAP2 SWAP1 PUSH2 0x1537 JUMP JUMPDEST PUSH1 0x40 MLOAD DUP1 SWAP2 SUB SWAP1 LOG2 POP POP JUMP JUMPDEST DUP1 CALLDATALOAD PUSH1 0x1 PUSH1 0x1 PUSH1 0xA0 SHL SUB DUP2 AND DUP2 EQ PUSH2 0x11B0 JUMPI PUSH1 0x0 DUP1 REVERT JUMPDEST SWAP2 SWAP1 POP JUMP JUMPDEST PUSH1 0x0 DUP1 PUSH1 0x40 DUP4 DUP6 SUB SLT ISZERO PUSH2 0x11C8 JUMPI PUSH1 0x0 DUP1 REVERT JUMPDEST PUSH2 0x11D1 DUP4 PUSH2 0x1199 JUMP JUMPDEST SWAP5 PUSH1 0x20 SWAP4 SWAP1 SWAP4 ADD CALLDATALOAD SWAP4 POP POP POP JUMP JUMPDEST PUSH1 0x0 DUP1 PUSH1 0x40 DUP4 DUP6 SUB SLT ISZERO PUSH2 0x11F2 JUMPI PUSH1 0x0 DUP1 REVERT JUMPDEST DUP3 CALLDATALOAD SWAP2 POP PUSH2 0x1202 PUSH1 0x20 DUP5 ADD PUSH2 0x1199 JUMP JUMPDEST SWAP1 POP SWAP3 POP SWAP3 SWAP1 POP JUMP JUMPDEST PUSH1 0x0 DUP1 PUSH1 0x40 DUP4 DUP6 SUB SLT ISZERO PUSH2 0x121E JUMPI PUSH1 0x0 DUP1 REVERT JUMPDEST DUP3 CALLDATALOAD SWAP2 POP PUSH1 0x20 DUP4 ADD CALLDATALOAD PUSH1 0x6 DUP2 LT PUSH2 0x1234 JUMPI PUSH1 0x0 DUP1 REVERT JUMPDEST DUP1 SWAP2 POP POP SWAP3 POP SWAP3 SWAP1 POP JUMP JUMPDEST DUP1 CALLDATALOAD PUSH1 0xFF DUP2 AND DUP2 EQ PUSH2 0x11B0 JUMPI PUSH1 0x0 DUP1 REVERT JUMPDEST PUSH1 0x0 PUSH1 0x20 DUP3 DUP5 SUB SLT ISZERO PUSH2 0x1262 JUMPI PUSH1 0x0 DUP1 REVERT JUMPDEST PUSH2 0x126B DUP3 PUSH2 0x123F JUMP JUMPDEST SWAP4 SWAP3 POP POP POP JUMP JUMPDEST PUSH1 0x0 DUP2 MLOAD DUP1 DUP5 MSTORE PUSH1 0x0 JUMPDEST DUP2 DUP2 LT ISZERO PUSH2 0x1298 JUMPI PUSH1 0x20 DUP2 DUP6 ADD DUP2 ADD MLOAD DUP7 DUP4 ADD DUP3 ADD MSTORE ADD PUSH2 0x127C JUMP JUMPDEST POP PUSH1 0x0 PUSH1 0x20 DUP3 DUP7 ADD ADD MSTORE PUSH1 0x20 PUSH1 0x1F NOT PUSH1 0x1F DUP4 ADD AND DUP6 ADD ADD SWAP2 POP POP SWAP3 SWAP2 POP POP JUMP JUMPDEST PUSH1 0x20 DUP2 MSTORE PUSH1 0x0 PUSH2 0x126B PUSH1 0x20 DUP4 ADD DUP5 PUSH2 0x1272 JUMP JUMPDEST PUSH1 0x0 PUSH1 0x20 DUP3 DUP5 SUB SLT ISZERO PUSH2 0x12DD JUMPI PUSH1 0x0 DUP1 REVERT JUMPDEST POP CALLDATALOAD SWAP2 SWAP1 POP JUMP JUMPDEST PUSH4 0x4E487B71 PUSH1 0xE0 SHL PUSH1 0x0 MSTORE PUSH1 0x21 PUSH1 0x4 MSTORE PUSH1 0x24 PUSH1 0x0 REVERT JUMPDEST PUSH1 0x6 DUP2 LT PUSH2 0x1318 JUMPI PUSH4 0x4E487B71 PUSH1 0xE0 SHL PUSH1 0x0 MSTORE PUSH1 0x21 PUSH1 0x4 MSTORE PUSH1 0x24 PUSH1 0x0 REVERT JUMPDEST SWAP1 MSTORE JUMP JUMPDEST DUP13 DUP2 MSTORE PUSH1 0x1 PUSH1 0x1 PUSH1 0xA0 SHL SUB DUP13 DUP2 AND PUSH1 0x20 DUP4 ADD MSTORE DUP12 DUP2 AND PUSH1 0x40 DUP4 ADD MSTORE PUSH1 0x60 DUP3 ADD DUP12 SWAP1 MSTORE PUSH1 0xFF DUP11 AND PUSH1 0x80 DUP4 ADD MSTORE PUSH2 0x180 PUSH1 0xA0 DUP4 ADD DUP2 SWAP1 MSTORE PUSH1 0x0 SWAP2 PUSH2 0x1360 DUP5 DUP4 ADD DUP13 PUSH2 0x1272 JUMP JUMPDEST SWAP3 POP DUP1 DUP11 AND PUSH1 0xC0 DUP6 ADD MSTORE DUP1 DUP10 AND PUSH1 0xE0 DUP6 ADD MSTORE DUP1 DUP9 AND PUSH2 0x100 DUP6 ADD MSTORE POP POP PUSH2 0x138B PUSH2 0x120 DUP4 ADD DUP7 PUSH2 0x12FA JUMP JUMPDEST PUSH2 0x140 DUP3 ADD SWAP4 SWAP1 SWAP4 MSTORE PUSH2 0x160 ADD MSTORE SWAP11 SWAP10 POP POP POP POP POP POP POP POP POP POP JUMP JUMPDEST PUSH1 0x0 PUSH1 0x1 DUP1 PUSH1 0xA0 SHL SUB DUP1 DUP11 AND DUP4 MSTORE DUP1 DUP10 AND PUSH1 0x20 DUP5 ADD MSTORE PUSH1 0xFF DUP9 AND PUSH1 0x40 DUP5 ADD MSTORE PUSH1 0xE0 PUSH1 0x60 DUP5 ADD MSTORE PUSH2 0x13DA PUSH1 0xE0 DUP5 ADD DUP9 PUSH2 0x1272 JUMP JUMPDEST SWAP1 DUP7 AND PUSH1 0x80 DUP5 ADD MSTORE SWAP1 POP PUSH2 0x13F1 PUSH1 0xA0 DUP4 ADD DUP6 PUSH2 0x12FA JUMP JUMPDEST DUP3 PUSH1 0xC0 DUP4 ADD MSTORE SWAP9 SWAP8 POP POP POP POP POP POP POP POP JUMP JUMPDEST PUSH4 0x4E487B71 PUSH1 0xE0 SHL PUSH1 0x0 MSTORE PUSH1 0x41 PUSH1 0x4 MSTORE PUSH1 0x24 PUSH1 0x0 REVERT JUMPDEST PUSH1 0x0 DUP1 PUSH1 0x0 DUP1 PUSH1 0x0 DUP1 PUSH1 0xC0 DUP8 DUP10 SUB SLT ISZERO PUSH2 0x1432 JUMPI PUSH1 0x0 DUP1 REVERT JUMPDEST PUSH2 0x143B DUP8 PUSH2 0x1199 JUMP JUMPDEST SWAP6 POP PUSH1 0x20 DUP8 ADD CALLDATALOAD SWAP5 POP PUSH2 0x1450 PUSH1 0x40 DUP9 ADD PUSH2 0x123F JUMP JUMPDEST SWAP4 POP PUSH1 0x60 DUP8 ADD CALLDATALOAD PUSH8 0xFFFFFFFFFFFFFFFF DUP1 DUP3 GT ISZERO PUSH2 0x146D JUMPI PUSH1 0x0 DUP1 REVERT JUMPDEST DUP2 DUP10 ADD SWAP2 POP DUP10 PUSH1 0x1F DUP4 ADD SLT PUSH2 0x1481 JUMPI PUSH1 0x0 DUP1 REVERT JUMPDEST DUP2 CALLDATALOAD DUP2 DUP2 GT ISZERO PUSH2 0x1493 JUMPI PUSH2 0x1493 PUSH2 0x1403 JUMP JUMPDEST PUSH1 0x40 MLOAD PUSH1 0x1F DUP3 ADD PUSH1 0x1F NOT SWAP1 DUP2 AND PUSH1 0x3F ADD AND DUP2 ADD SWAP1 DUP4 DUP3 GT DUP2 DUP4 LT OR ISZERO PUSH2 0x14BB JUMPI PUSH2 0x14BB PUSH2 0x1403 JUMP JUMPDEST DUP2 PUSH1 0x40 MSTORE DUP3 DUP2 MSTORE DUP13 PUSH1 0x20 DUP5 DUP8 ADD ADD GT ISZERO PUSH2 0x14D4 JUMPI PUSH1 0x0 DUP1 REVERT JUMPDEST DUP3 PUSH1 0x20 DUP7 ADD PUSH1 0x20 DUP4 ADD CALLDATACOPY PUSH1 0x0 PUSH1 0x20 DUP5 DUP4 ADD ADD MSTORE DUP1 SWAP8 POP POP POP POP POP POP PUSH2 0x14FB PUSH1 0x80 DUP9 ADD PUSH2 0x1199 JUMP JUMPDEST SWAP2 POP PUSH2 0x1509 PUSH1 0xA0 DUP9 ADD PUSH2 0x1199 JUMP JUMPDEST SWAP1 POP SWAP3 SWAP6 POP SWAP3 SWAP6 POP SWAP3 SWAP6 JUMP JUMPDEST PUSH1 0x0 PUSH1 0x20 DUP3 DUP5 SUB SLT ISZERO PUSH2 0x1527 JUMPI PUSH1 0x0 DUP1 REVERT JUMPDEST DUP2 MLOAD DUP1 ISZERO ISZERO DUP2 EQ PUSH2 0x126B JUMPI PUSH1 0x0 DUP1 REVERT JUMPDEST PUSH1 0x20 DUP2 ADD PUSH2 0x1545 DUP3 DUP5 PUSH2 0x12FA JUMP JUMPDEST SWAP3 SWAP2 POP POP JUMP JUMPDEST PUSH1 0x1 DUP2 DUP2 SHR SWAP1 DUP3 AND DUP1 PUSH2 0x155F JUMPI PUSH1 0x7F DUP3 AND SWAP2 POP JUMPDEST PUSH1 0x20 DUP3 LT DUP2 SUB PUSH2 0x157F JUMPI PUSH4 0x4E487B71 PUSH1 0xE0 SHL PUSH1 0x0 MSTORE PUSH1 0x22 PUSH1 0x4 MSTORE PUSH1 0x24 PUSH1 0x0 REVERT JUMPDEST POP SWAP2 SWAP1 POP JUMP JUMPDEST PUSH4 0x4E487B71 PUSH1 0xE0 SHL PUSH1 0x0 MSTORE PUSH1 0x11 PUSH1 0x4 MSTORE PUSH1 0x24 PUSH1 0x0 REVERT JUMPDEST PUSH1 0x0 PUSH1 0x1 DUP3 ADD PUSH2 0x15AD JUMPI PUSH2 0x15AD PUSH2 0x1585 JUMP JUMPDEST POP PUSH1 0x1 ADD SWAP1 JUMP JUMPDEST DUP1 DUP3 ADD DUP1 DUP3 GT ISZERO PUSH2 0x1545 JUMPI PUSH2 0x1545 PUSH2 0x1585 JUMP JUMPDEST PUSH1 0x1F DUP3 GT ISZERO PUSH2 0x1611 JUMPI PUSH1 0x0 DUP2 DUP2 MSTORE PUSH1 0x20 DUP2 KECCAK256 PUSH1 0x1F DUP6 ADD PUSH1 0x5 SHR DUP2 ADD PUSH1 0x20 DUP7 LT ISZERO PUSH2 0x15EE JUMPI POP DUP1 JUMPDEST PUSH1 0x1F DUP6 ADD PUSH1 0x5 SHR DUP3 ADD SWAP2 POP JUMPDEST DUP2 DUP2 LT ISZERO PUSH2 0x160D JUMPI DUP3 DUP2 SSTORE PUSH1 0x1 ADD PUSH2 0x15FA JUMP JUMPDEST POP POP POP JUMPDEST POP POP POP JUMP JUMPDEST DUP2 MLOAD PUSH8 0xFFFFFFFFFFFFFFFF DUP2 GT ISZERO PUSH2 0x1630 JUMPI PUSH2 0x1630 PUSH2 0x1403 JUMP JUMPDEST PUSH2 0x1644 DUP2 PUSH2 0x163E DUP5 SLOAD PUSH2 0x154B JUMP JUMPDEST DUP5 PUSH2 0x15C7 JUMP JUMPDEST PUSH1 0x20 DUP1 PUSH1 0x1F DUP4 GT PUSH1 0x1 DUP2 EQ PUSH2 0x1679 JUMPI PUSH1 0x0 DUP5 ISZERO PUSH2 0x1661 JUMPI POP DUP6 DUP4 ADD MLOAD JUMPDEST PUSH1 0x0 NOT PUSH1 0x3 DUP7 SWAP1 SHL SHR NOT AND PUSH1 0x1 DUP6 SWAP1 SHL OR DUP6 SSTORE PUSH2 0x160D JUMP JUMPDEST PUSH1 0x0 DUP6 DUP2 MSTORE PUSH1 0x20 DUP2 KECCAK256 PUSH1 0x1F NOT DUP7 AND SWAP2 JUMPDEST DUP3 DUP2 LT ISZERO PUSH2 0x16A8 JUMPI DUP9 DUP7 ADD MLOAD DUP3 SSTORE SWAP5 DUP5 ADD SWAP5 PUSH1 0x1 SWAP1 SWAP2 ADD SWAP1 DUP5 ADD PUSH2 0x1689 JUMP JUMPDEST POP DUP6 DUP3 LT ISZERO PUSH2 0x16C6 JUMPI DUP8 DUP6 ADD MLOAD PUSH1 0x0 NOT PUSH1 0x3 DUP9 SWAP1 SHL PUSH1 0xF8 AND SHR NOT AND DUP2 SSTORE JUMPDEST POP POP POP POP POP PUSH1 0x1 SWAP1 DUP2 SHL ADD SWAP1 SSTORE POP JUMP INVALID LOG2 PUSH5 0x6970667358 0x22 SLT KECCAK256 0x22 EXTCODEHASH 0x27 0xAE 0xAA MSIZE 0xA9 LOG2 0x4B 0xD0 DUP7 0x2B 0xC1 DUP12 PUSH32 0xC20D32567FCCF66E4347378A6F5BB6D78A64736F6C6343000814003300000000 "},"methodIdentifiers":{"assignUAV(uint256,address)":"293c6a13","confirmStock(uint256)":"f6322bd6","getOrder(uint256)":"d09ef241","getParsLabel(uint8)":"57b73204","getSLASeconds(uint8)":"ed56514c","orderCount()":"2453ffa8","orders(uint256)":"a85c38ef","patientOrders(address,uint256)":"0cfcb07e","sc1()":"0c1f629d","sc7()":"984e0fca","submitOrder(address,bytes32,uint8,string,address,address)":"e6fe9708","updateStatus(uint256,uint8)":"3a1b3d31"}}}}}