{
  "_format": "hh-sol-artifact-1",
  "contractName": "SC6_DeliveryLifecycle",
  "sourceName": "contracts/SC6_DeliveryLifecycle.sol",
  "abi": [
    {
      "inputs": [
        {
          "internalType": "address",
          "name": "sc1Addr",
          "type": "address"
        },
        {
          "internalType": "address",
          "name": "sc4Addr",
          "type": "address"
        }
      ],
      "stateMutability": "nonpayable",
      "type": "constructor"
    },
    {
      "anonymous": false,
      "inputs": [
        {
          "indexed": true,
          "internalType": "uint256",
          "name": "orderId",
          "type": "uint256"
        },
        {
          "indexed": false,
          "internalType": "address",
          "name": "patient",
          "type": "address"
        },
        {
          "indexed": false,
          "internalType": "bool",
          "name": "withinSLA",
          "type": "bool"
        }
      ],
      "name": "DeliveryConfirmed",
      "type": "event"
    },
    {
      "anonymous": false,
      "inputs": [
        {
          "indexed": true,
          "internalType": "uint256",
          "name": "orderId",
          "type": "uint256"
        },
        {
          "indexed": true,
          "internalType": "address",
          "name": "uav",
          "type": "address"
        },
        {
          "indexed": true,
          "internalType": "address",
          "name": "patient",
          "type": "address"
        }
      ],
      "name": "DeliveryCreated",
      "type": "event"
    },
    {
      "anonymous": false,
      "inputs": [
        {
          "indexed": true,
          "internalType": "uint256",
          "name": "orderId",
          "type": "uint256"
        },
        {
          "indexed": false,
          "internalType": "address",
          "name": "droneStation",
          "type": "address"
        },
        {
          "indexed": false,
          "internalType": "string",
          "name": "reason",
          "type": "string"
        }
      ],
      "name": "DeviationFlagged",
      "type": "event"
    },
    {
      "anonymous": false,
      "inputs": [
        {
          "indexed": true,
          "internalType": "uint256",
          "name": "orderId",
          "type": "uint256"
        },
        {
          "indexed": false,
          "internalType": "string",
          "name": "ipfsHash",
          "type": "string"
        },
        {
          "indexed": false,
          "internalType": "uint256",
          "name": "timestamp",
          "type": "uint256"
        }
      ],
      "name": "GPSUpdated",
      "type": "event"
    },
    {
      "anonymous": false,
      "inputs": [
        {
          "indexed": true,
          "internalType": "uint256",
          "name": "orderId",
          "type": "uint256"
        },
        {
          "indexed": false,
          "internalType": "enum SC6_DeliveryLifecycle.DeliveryStatus",
          "name": "newStatus",
          "type": "uint8"
        }
      ],
      "name": "StatusUpdated",
      "type": "event"
    },
    {
      "inputs": [
        {
          "internalType": "uint256",
          "name": "orderId",
          "type": "uint256"
        }
      ],
      "name": "confirmDelivery",
      "outputs": [],
      "stateMutability": "nonpayable",
      "type": "function"
    },
    {
      "inputs": [
        {
          "internalType": "uint256",
          "name": "orderId",
          "type": "uint256"
        },
        {
          "internalType": "address",
          "name": "uav",
          "type": "address"
        },
        {
          "internalType": "address",
          "name": "patient",
          "type": "address"
        },
        {
          "internalType": "uint256",
          "name": "slaDeadline",
          "type": "uint256"
        }
      ],
      "name": "createDelivery",
      "outputs": [],
      "stateMutability": "nonpayable",
      "type": "function"
    },
    {
      "inputs": [
        {
          "internalType": "uint256",
          "name": "",
          "type": "uint256"
        }
      ],
      "name": "deliveries",
      "outputs": [
        {
          "internalType": "uint256",
          "name": "orderId",
          "type": "uint256"
        },
        {
          "internalType": "address",
          "name": "assignedUAV",
          "type": "address"
        },
        {
          "internalType": "address",
          "name": "patient",
          "type": "address"
        },
        {
          "internalType": "address",
          "name": "droneStation",
          "type": "address"
        },
        {
          "internalType": "enum SC6_DeliveryLifecycle.DeliveryStatus",
          "name": "status",
          "type": "uint8"
        },
        {
          "internalType": "uint256",
          "name": "startedAt",
          "type": "uint256"
        },
        {
          "internalType": "uint256",
          "name": "deliveredAt",
          "type": "uint256"
        },
        {
          "internalType": "bool",
          "name": "withinSLA",
          "type": "bool"
        },
        {
          "internalType": "uint256",
          "name": "slaDeadline",
          "type": "uint256"
        },
        {
          "internalType": "uint256",
          "name": "gpsUpdateCount",
          "type": "uint256"
        }
      ],
      "stateMutability": "view",
      "type": "function"
    },
    {
      "inputs": [
        {
          "internalType": "uint256",
          "name": "",
          "type": "uint256"
        }
      ],
      "name": "deviationFlagged",
      "outputs": [
        {
          "internalType": "bool",
          "name": "",
          "type": "bool"
        }
      ],
      "stateMutability": "view",
      "type": "function"
    },
    {
      "inputs": [
        {
          "internalType": "uint256",
          "name": "orderId",
          "type": "uint256"
        },
        {
          "internalType": "string",
          "name": "reason",
          "type": "string"
        }
      ],
      "name": "flagDeviation",
      "outputs": [],
      "stateMutability": "nonpayable",
      "type": "function"
    },
    {
      "inputs": [
        {
          "internalType": "uint256",
          "name": "orderId",
          "type": "uint256"
        }
      ],
      "name": "getDeliveryStatus",
      "outputs": [
        {
          "internalType": "enum SC6_DeliveryLifecycle.DeliveryStatus",
          "name": "status",
          "type": "uint8"
        },
        {
          "internalType": "address",
          "name": "uav",
          "type": "address"
        },
        {
          "internalType": "uint256",
          "name": "gpsUpdateCount",
          "type": "uint256"
        },
        {
          "internalType": "bool",
          "name": "withinSLA",
          "type": "bool"
        },
        {
          "internalType": "bool",
          "name": "deviated",
          "type": "bool"
        }
      ],
      "stateMutability": "view",
      "type": "function"
    },
    {
      "inputs": [
        {
          "internalType": "uint256",
          "name": "orderId",
          "type": "uint256"
        }
      ],
      "name": "getGPSLog",
      "outputs": [
        {
          "internalType": "string[]",
          "name": "hashes",
          "type": "string[]"
        },
        {
          "internalType": "uint256[]",
          "name": "timestamps",
          "type": "uint256[]"
        }
      ],
      "stateMutability": "view",
      "type": "function"
    },
    {
      "inputs": [
        {
          "internalType": "uint256",
          "name": "",
          "type": "uint256"
        },
        {
          "internalType": "uint256",
          "name": "",
          "type": "uint256"
        }
      ],
      "name": "gpsLogs",
      "outputs": [
        {
          "internalType": "string",
          "name": "ipfsHash",
          "type": "string"
        },
        {
          "internalType": "uint256",
          "name": "timestamp",
          "type": "uint256"
        }
      ],
      "stateMutability": "view",
      "type": "function"
    },
    {
      "inputs": [
        {
          "internalType": "uint256",
          "name": "orderId",
          "type": "uint256"
        },
        {
          "internalType": "string",
          "name": "ipfsHash",
          "type": "string"
        }
      ],
      "name": "logGPS",
      "outputs": [],
      "stateMutability": "nonpayable",
      "type": "function"
    },
    {
      "inputs": [],
      "name": "sc1",
      "outputs": [
        {
          "internalType": "contract ISC1_v6",
          "name": "",
          "type": "address"
        }
      ],
      "stateMutability": "view",
      "type": "function"
    },
    {
      "inputs": [],
      "name": "sc4",
      "outputs": [
        {
          "internalType": "contract ISC4",
          "name": "",
          "type": "address"
        }
      ],
      "stateMutability": "view",
      "type": "function"
    },
    {
      "inputs": [
        {
          "internalType": "uint256",
          "name": "orderId",
          "type": "uint256"
        }
      ],
      "name": "setInFlight",
      "outputs": [],
      "stateMutability": "nonpayable",
      "type": "function"
    }
  ],
  "bytecode": "0x608060405234801561001057600080fd5b50604051620016f7380380620016f78339810160408190526100319161007e565b600080546001600160a01b039384166001600160a01b031991821617909155600180549290931691161790556100b1565b80516001600160a01b038116811461007957600080fd5b919050565b6000806040838503121561009157600080fd5b61009a83610062565b91506100a860208401610062565b90509250929050565b61163680620000c16000396000f3fe608060405234801561001057600080fd5b50600436106100b45760003560e01c8063a9e4a32411610071578063a9e4a32414610186578063e25a875e14610210578063e785e34a14610234578063e87bb14a14610247578063ed708c551461025a578063fd84cb971461026d57600080fd5b80630c1f629d146100b9578063281b945a146100e957806349c13b901461010a57806375f3b0781461013d5780639a03580e14610152578063a5f5ed7914610165575b600080fd5b6000546100cc906001600160a01b031681565b6040516001600160a01b0390911681526020015b60405180910390f35b6100fc6100f73660046110ac565b610280565b6040516100e092919061110b565b61012d6101183660046110ac565b60046020526000908152604090205460ff1681565b60405190151581526020016100e0565b61015061014b3660046110ac565b6104c6565b005b6001546100cc906001600160a01b031681565b6101786101733660046111a6565b6105e0565b6040516100e09291906111c8565b6101fa6101943660046110ac565b600260208190526000918252604090912080546001820154928201546003830154600484015460058501546006860154600787015460089097015495976001600160a01b03908116979581169690851695600160a01b90950460ff90811695921691908a565b6040516100e09a99989796959493929190611222565b61022361021e3660046110ac565b6106a9565b6040516100e0959493929190611284565b6101506102423660046112dc565b6107b5565b610150610255366004611336565b610afb565b610150610268366004611336565b610cbf565b61015061027b3660046110ac565b610e27565b606080600060036000858152602001908152602001600020805480602002602001604051908101604052809291908181526020016000905b8282101561038657838290600052602060002090600202016040518060400160405290816000820180546102eb906113f1565b80601f0160208091040260200160405190810160405280929190818152602001828054610317906113f1565b80156103645780601f1061033957610100808354040283529160200191610364565b820191906000526020600020905b81548152906001019060200180831161034757829003601f168201915b50505050508152602001600182015481525050815260200190600101906102b8565b5050505090506000815167ffffffffffffffff8111156103a8576103a8611320565b6040519080825280602002602001820160405280156103db57816020015b60608152602001906001900390816103c65790505b5090506000825167ffffffffffffffff8111156103fa576103fa611320565b604051908082528060200260200182016040528015610423578160200160208202803683370190505b50905060005b83518110156104ba578381815181106104445761044461142b565b6020026020010151600001518382815181106104625761046261142b565b602002602001018190525083818151811061047f5761047f61142b565b60200260200101516020015182828151811061049d5761049d61142b565b6020908102919091010152806104b281611441565b915050610429565b50909590945092505050565b600081815260026020526040902060018101546001600160a01b0316331461052d5760405162461bcd60e51b815260206004820152601560248201527427b7363c903a34329030b9b9b4b3b732b2102aa0ab60591b60448201526064015b60405180910390fd5b60026003820154600160a01b900460ff16600681111561054f5761054f6111ea565b1461059c5760405162461bcd60e51b815260206004820152601760248201527f4e6f7420696e20444953504154434845442073746174650000000000000000006044820152606401610524565b6003818101805460ff60a01b1916600160a01b830217905550816000805160206115e183398151915260036040516105d49190611468565b60405180910390a25050565b600360205281600052604060002081815481106105fc57600080fd5b906000526020600020906002020160009150915050806000018054610620906113f1565b80601f016020809104026020016040519081016040528092919081815260200182805461064c906113f1565b80156106995780601f1061066e57610100808354040283529160200191610699565b820191906000526020600020905b81548152906001019060200180831161067c57829003601f168201915b5050505050908060010154905082565b60008181526002602081815260408084208151610140810183528154815260018201546001600160a01b03908116948201949094529381015483169184019190915260038101549182166060840152839283928392839283929091906080830190600160a01b900460ff166006811115610725576107256111ea565b6006811115610736576107366111ea565b81526004828101546020808401919091526005840154604080850191909152600685015460ff90811615156060860152600786015460808087019190915260089096015460a090950194909452938501518582015161012087015160e09097015160009e8f529390925293909b2054929b939950975016945092505050565b600054604051639f8a13d760e01b81523360048201526001600160a01b0390911690639f8a13d790602401602060405180830381865afa1580156107fd573d6000803e3d6000fd5b505050506040513d601f19601f82011682018060405250810190610821919061147c565b6108615760405162461bcd60e51b81526020600482015260116024820152701114c81b9bdd081c9959da5cdd195c9959607a1b6044820152606401610524565b600054604051639f8a13d760e01b81526001600160a01b03858116600483015290911690639f8a13d790602401602060405180830381865afa1580156108ab573d6000803e3d6000fd5b505050506040513d601f19601f820116820180604052508101906108cf919061147c565b6109105760405162461bcd60e51b8152602060048201526012602482015271155055881b9bdd081c9959da5cdd195c995960721b6044820152606401610524565b6000848152600260205260409020600401541561096f5760405162461bcd60e51b815260206004820152601860248201527f44656c697665727920616c7265616479206372656174656400000000000000006044820152606401610524565b60408051610140810182528581526001600160a01b03858116602080840191825286831684860190815233606086019081526002608087018181524260a0890152600060c0890181905260e0890181905261010089018b905261012089018190528d815294829052979093208651815593516001850180549187166001600160a01b031992831617905591519284018054938616938316939093179092559051600383018054919094169181168217845594519394919392916001600160a81b03191617600160a01b836006811115610a4a57610a4a6111ea565b021790555060a0820151600482015560c0820151600582015560e082015160068201805460ff19169115159190911790556101008201516007820155610120909101516008909101556040516001600160a01b03838116919085169086907f1092b421ed0121c8fe803583ee93e225c3cc63533b99978e661a36624037946590600090a4836000805160206115e18339815191526002604051610aed9190611468565b60405180910390a250505050565b600082815260026020526040902060038101546001600160a01b03163314610b585760405162461bcd60e51b815260206004820152601060248201526f4f6e6c792061737369676e656420445360801b6044820152606401610524565b600380820154600160a01b900460ff166006811115610b7957610b796111ea565b14610bba5760405162461bcd60e51b8152602060048201526011602482015270155055881b9bdd081a5b88199b1a59da1d607a1b6044820152606401610524565b60038101805460ff60a01b1916600560a01b1790556000838152600460208190526040808320805460ff191660019081179091558054908501548251636a08b51160e01b81526001600160a01b039182169481019490945260091960248501529151911692636a08b511926044808201939182900301818387803b158015610c4157600080fd5b505af1158015610c55573d6000803e3d6000fd5b50505050827fe2773da284a228351af9e62664cf151f754e06466d79ed0922b4a4b226e63a8f3384604051610c8b9291906114a5565b60405180910390a2826000805160206115e18339815191526005604051610cb29190611468565b60405180910390a2505050565b600082815260026020526040902060018101546001600160a01b03163314610d295760405162461bcd60e51b815260206004820152601d60248201527f4f6e6c792061737369676e6564205541562063616e206c6f67204750530000006044820152606401610524565b600380820154600160a01b900460ff166006811115610d4a57610d4a6111ea565b14610d8b5760405162461bcd60e51b8152602060048201526011602482015270155055881b9bdd081a5b88199b1a59da1d607a1b6044820152606401610524565b6000838152600360209081526040808320815180830190925285825242828401528054600181018255908452919092208251600290920201908190610dd09082611520565b5060209190910151600190910155600881018054906000610df083611441565b9190505550827f5470cd5f45a1af23a5d5ab13307345ecc9e294af289640f0bed06ce5845c20c78342604051610cb29291906111c8565b6000818152600260208190526040909120908101546001600160a01b03163314610ea15760405162461bcd60e51b815260206004820152602560248201527f4f6e6c79207468652070617469656e742063616e20636f6e6669726d2064656c604482015264697665727960d81b6064820152608401610524565b600380820154600160a01b900460ff166006811115610ec257610ec26111ea565b1480610eed575060026003820154600160a01b900460ff166006811115610eeb57610eeb6111ea565b145b610f395760405162461bcd60e51b815260206004820152601860248201527f44656c6976657279206e6f7420696e2070726f677265737300000000000000006044820152606401610524565b60038101805460ff60a01b1916600160a21b1790554260058201819055600782015460068301805460ff191691909211801591821790925590610fe5576001805490830154604051636a08b51160e01b81526001600160a01b03918216600482015260056024820152911690636a08b51190604401600060405180830381600087803b158015610fc857600080fd5b505af1158015610fdc573d6000803e3d6000fd5b50505050611051565b6001805490830154604051636a08b51160e01b81526001600160a01b0391821660048201526004196024820152911690636a08b51190604401600060405180830381600087803b15801561103857600080fd5b505af115801561104c573d6000803e3d6000fd5b505050505b60408051338152821515602082015284917f4e98168ee01f9ba12c4872c54973ff61e5fe06c7d7edf27903d41cf47830a646910160405180910390a2826000805160206115e18339815191526004604051610cb29190611468565b6000602082840312156110be57600080fd5b5035919050565b6000815180845260005b818110156110eb576020818501810151868301820152016110cf565b506000602082860101526020601f19601f83011685010191505092915050565b6000604082016040835280855180835260608501915060608160051b8601019250602080880160005b8381101561116257605f198887030185526111508683516110c5565b95509382019390820190600101611134565b50508584038187015286518085528782019482019350915060005b828110156111995784518452938101939281019260010161117d565b5091979650505050505050565b600080604083850312156111b957600080fd5b50508035926020909101359150565b6040815260006111db60408301856110c5565b90508260208301529392505050565b634e487b7160e01b600052602160045260246000fd5b6007811061121e57634e487b7160e01b600052602160045260246000fd5b9052565b8a81526001600160a01b038a8116602083015289811660408301528816606082015261014081016112566080830189611200565b60a082019690965260c081019490945291151560e08401526101008301526101209091015295945050505050565b60a081016112928288611200565b6001600160a01b03959095166020820152604081019390935290151560608301521515608090910152919050565b80356001600160a01b03811681146112d757600080fd5b919050565b600080600080608085870312156112f257600080fd5b84359350611302602086016112c0565b9250611310604086016112c0565b9396929550929360600135925050565b634e487b7160e01b600052604160045260246000fd5b6000806040838503121561134957600080fd5b82359150602083013567ffffffffffffffff8082111561136857600080fd5b818501915085601f83011261137c57600080fd5b81358181111561138e5761138e611320565b604051601f8201601f19908116603f011681019083821181831017156113b6576113b6611320565b816040528281528860208487010111156113cf57600080fd5b8260208601602083013760006020848301015280955050505050509250929050565b600181811c9082168061140557607f821691505b60208210810361142557634e487b7160e01b600052602260045260246000fd5b50919050565b634e487b7160e01b600052603260045260246000fd5b60006001820161146157634e487b7160e01b600052601160045260246000fd5b5060010190565b602081016114768284611200565b92915050565b60006020828403121561148e57600080fd5b8151801515811461149e57600080fd5b9392505050565b6001600160a01b03831681526040602082018190526000906114c9908301846110c5565b949350505050565b601f82111561151b57600081815260208120601f850160051c810160208610156114f85750805b601f850160051c820191505b8181101561151757828155600101611504565b5050505b505050565b815167ffffffffffffffff81111561153a5761153a611320565b61154e8161154884546113f1565b846114d1565b602080601f831160018114611583576000841561156b5750858301515b600019600386901b1c1916600185901b178555611517565b600085815260208120601f198616915b828110156115b257888601518255948401946001909101908401611593565b50858210156115d05787850151600019600388901b60f8161c191681555b5050505050600190811b0190555056fe2da7b23ca63c1eb969eee5fae4acb98186abecf5358b0354a82a5183ebca6b2aa2646970667358221220d18a48fd69ceb6c35a7c2852912e5e6618741663848f5f618724052e99f6ebfa64736f6c63430008140033",
  "linkReferences": {},
  "deployedLinkReferences": {}
}