{
  "_format": "hh-sol-artifact-1",
  "contractName": "SC3_MedicalRecords",
  "sourceName": "contracts/SC3_MedicalRecords.sol",
  "abi": [
    {
      "inputs": [
        {
          "internalType": "address",
          "name": "sc1Addr",
          "type": "address"
        },
        {
          "internalType": "address",
          "name": "sc2Addr",
          "type": "address"
        },
        {
          "internalType": "address",
          "name": "sc7Addr",
          "type": "address"
        }
      ],
      "stateMutability": "nonpayable",
      "type": "constructor"
    },
    {
      "anonymous": false,
      "inputs": [
        {
          "indexed": true,
          "internalType": "uint256",
          "name": "recordId",
          "type": "uint256"
        },
        {
          "indexed": true,
          "internalType": "address",
          "name": "hp",
          "type": "address"
        },
        {
          "indexed": true,
          "internalType": "address",
          "name": "patient",
          "type": "address"
        },
        {
          "indexed": false,
          "internalType": "bytes32",
          "name": "rxHash",
          "type": "bytes32"
        },
        {
          "indexed": false,
          "internalType": "uint8",
          "name": "parsScore",
          "type": "uint8"
        }
      ],
      "name": "RecordAdded",
      "type": "event"
    },
    {
      "inputs": [
        {
          "internalType": "address",
          "name": "patient",
          "type": "address"
        },
        {
          "internalType": "string",
          "name": "encryptedDataHash",
          "type": "string"
        },
        {
          "internalType": "uint8",
          "name": "parsScore",
          "type": "uint8"
        },
        {
          "internalType": "bytes32",
          "name": "rxHash",
          "type": "bytes32"
        }
      ],
      "name": "addRecord",
      "outputs": [],
      "stateMutability": "nonpayable",
      "type": "function"
    },
    {
      "inputs": [
        {
          "internalType": "uint8",
          "name": "score",
          "type": "uint8"
        }
      ],
      "name": "getParsLabel",
      "outputs": [
        {
          "internalType": "string",
          "name": "",
          "type": "string"
        }
      ],
      "stateMutability": "pure",
      "type": "function"
    },
    {
      "inputs": [
        {
          "internalType": "address",
          "name": "patient",
          "type": "address"
        }
      ],
      "name": "getPatientRecordIds",
      "outputs": [
        {
          "internalType": "uint256[]",
          "name": "",
          "type": "uint256[]"
        }
      ],
      "stateMutability": "view",
      "type": "function"
    },
    {
      "inputs": [
        {
          "internalType": "uint256",
          "name": "recordId",
          "type": "uint256"
        }
      ],
      "name": "getRecord",
      "outputs": [
        {
          "internalType": "address",
          "name": "hp",
          "type": "address"
        },
        {
          "internalType": "address",
          "name": "patient",
          "type": "address"
        },
        {
          "internalType": "string",
          "name": "encryptedDataHash",
          "type": "string"
        },
        {
          "internalType": "uint8",
          "name": "parsScore",
          "type": "uint8"
        },
        {
          "internalType": "bytes32",
          "name": "rxHash",
          "type": "bytes32"
        },
        {
          "internalType": "uint256",
          "name": "timestamp",
          "type": "uint256"
        }
      ],
      "stateMutability": "view",
      "type": "function"
    },
    {
      "inputs": [
        {
          "internalType": "address",
          "name": "",
          "type": "address"
        },
        {
          "internalType": "uint256",
          "name": "",
          "type": "uint256"
        }
      ],
      "name": "patientRecords",
      "outputs": [
        {
          "internalType": "uint256",
          "name": "",
          "type": "uint256"
        }
      ],
      "stateMutability": "view",
      "type": "function"
    },
    {
      "inputs": [],
      "name": "recordCount",
      "outputs": [
        {
          "internalType": "uint256",
          "name": "",
          "type": "uint256"
        }
      ],
      "stateMutability": "view",
      "type": "function"
    },
    {
      "inputs": [
        {
          "internalType": "uint256",
          "name": "",
          "type": "uint256"
        }
      ],
      "name": "records",
      "outputs": [
        {
          "internalType": "address",
          "name": "hp",
          "type": "address"
        },
        {
          "internalType": "address",
          "name": "patient",
          "type": "address"
        },
        {
          "internalType": "string",
          "name": "encryptedDataHash",
          "type": "string"
        },
        {
          "internalType": "uint8",
          "name": "parsScore",
          "type": "uint8"
        },
        {
          "internalType": "bytes32",
          "name": "rxHash",
          "type": "bytes32"
        },
        {
          "internalType": "uint256",
          "name": "timestamp",
          "type": "uint256"
        }
      ],
      "stateMutability": "view",
      "type": "function"
    },
    {
      "inputs": [],
      "name": "sc1",
      "outputs": [
        {
          "internalType": "contract ISC1_v3",
          "name": "",
          "type": "address"
        }
      ],
      "stateMutability": "view",
      "type": "function"
    },
    {
      "inputs": [],
      "name": "sc2",
      "outputs": [
        {
          "internalType": "contract ISC2",
          "name": "",
          "type": "address"
        }
      ],
      "stateMutability": "view",
      "type": "function"
    },
    {
      "inputs": [],
      "name": "sc7",
      "outputs": [
        {
          "internalType": "contract ISC7",
          "name": "",
          "type": "address"
        }
      ],
      "stateMutability": "view",
      "type": "function"
    }
  ],
  "bytecode": "0x608060405234801561001057600080fd5b50604051610e6d380380610e6d83398101604081905261002f9161008d565b600080546001600160a01b039485166001600160a01b0319918216179091556001805493851693821693909317909255600280549190931691161790556100d0565b80516001600160a01b038116811461008857600080fd5b919050565b6000806000606084860312156100a257600080fd5b6100ab84610071565b92506100b960208501610071565b91506100c760408501610071565b90509250925092565b610d8e806100df6000396000f3fe608060405234801561001057600080fd5b506004361061009e5760003560e01c80637d2856e5116100665780637d2856e51461014f578063900407bc1461016257806394f0df6114610179578063984e0fca1461018c578063fe6ced411461019f57600080fd5b806303e9e609146100a35780630c1f629d146100d157806334461067146100fc57806357b732041461010f5780636248204e1461012f575b600080fd5b6100b66100b136600461093f565b6101b4565b6040516100c89695949392919061099e565b60405180910390f35b6000546100e4906001600160a01b031681565b6040516001600160a01b0390911681526020016100c8565b6100b661010a36600461093f565b610332565b61012261011d366004610a01565b610402565b6040516100c89190610a23565b61014261013d366004610a4d565b6104ac565b6040516100c89190610a68565b6001546100e4906001600160a01b031681565b61016b60035481565b6040519081526020016100c8565b61016b610187366004610aac565b610518565b6002546100e4906001600160a01b031681565b6101b26101ad366004610aec565b610549565b005b6000818152600460209081526040808320815160c08101835281546001600160a01b0390811682526001830154169381019390935260028101805485946060948694859485948594938401919061020a90610bc6565b80601f016020809104026020016040519081016040528092919081815260200182805461023690610bc6565b80156102835780601f1061025857610100808354040283529160200191610283565b820191906000526020600020905b81548152906001019060200180831161026657829003601f168201915b5050509183525050600382015460ff1660208201526004820154604082015260059091015460609091015260a08101519091506000036103025760405162461bcd60e51b8152602060048201526015602482015274149958dbdc9908191bd95cc81b9bdd08195e1a5cdd605a1b60448201526064015b60405180910390fd5b8051602082015160408301516060840151608085015160a090950151939c929b5090995097509195509350915050565b6004602052600090815260409020805460018201546002830180546001600160a01b0393841694929093169261036790610bc6565b80601f016020809104026020016040519081016040528092919081815260200182805461039390610bc6565b80156103e05780601f106103b5576101008083540402835291602001916103e0565b820191906000526020600020905b8154815290600101906020018083116103c357829003601f168201915b5050505060038301546004840154600590940154929360ff9091169290915086565b6060605a8260ff161061043357505060408051808201909152600881526710d492551250d05360c21b602082015290565b60468260ff161061045e575050604080518082019091526004815263090928e960e31b602082015290565b60288260ff161061048d5750506040805180820190915260088152674d4f44455241544560c01b602082015290565b50506040805180820190915260038152624c4f5760e81b602082015290565b6001600160a01b03811660009081526005602090815260409182902080548351818402810184019094528084526060939283018282801561050c57602002820191906000526020600020905b8154815260200190600101908083116104f8575b50505050509050919050565b6005602052816000526040600020818154811061053457600080fd5b90600052602060002001600091509150505481565b600054604051639f8a13d760e01b81523360048201526001600160a01b0390911690639f8a13d790602401602060405180830381865afa158015610591573d6000803e3d6000fd5b505050506040513d601f19601f820116820180604052508101906105b59190610c00565b6106015760405162461bcd60e51b815260206004820152601960248201527f4850206e6f74207265676973746572656420696e2053432d310000000000000060448201526064016102f9565b600154604051631709ef0760e01b81523360048201526001600160a01b03868116602483015290911690631709ef0790604401602060405180830381865afa158015610651573d6000803e3d6000fd5b505050506040513d601f19601f820116820180604052508101906106759190610c00565b6106e75760405162461bcd60e51b815260206004820152603c60248201527f4e6f2070617469656e7420636f6e73656e74202d2070617469656e74206d757360448201527f742063616c6c205343322e6772616e744163636573732066697273740000000060648201526084016102f9565b60648260ff1611156107475760405162461bcd60e51b8152602060048201526024808201527f504152532073636f7265206d757374206265206265747765656e203020616e646044820152630203130360e41b60648201526084016102f9565b8061078d5760405162461bcd60e51b81526020600482015260166024820152757278486173682063616e6e6f7420626520656d70747960501b60448201526064016102f9565b6003805490600061079d83610c22565b90915550506040805160c0810182523381526001600160a01b03868116602080840191825283850188815260ff88166060860152608085018790524260a086015260035460009081526004909252949020835181549084166001600160a01b03199182161782559151600182018054919094169216919091179091559151909190600282019061082d9082610c98565b5060608201516003828101805460ff191660ff90931692909217909155608083015160048084019190915560a0909301516005928301556001600160a01b038781166000908152602093845260408082209354845460018101865594835294909120909201929092556002549051637a23a57360e01b81529283018490523360248401521690637a23a57390604401600060405180830381600087803b1580156108d657600080fd5b505af11580156108ea573d6000803e3d6000fd5b50506003546040805185815260ff871660208201526001600160a01b03891694503393507fbf36824750fb1bff3e89f01894572d5cc633f33e5f74d482c65af7e8af884a5d910160405180910390a450505050565b60006020828403121561095157600080fd5b5035919050565b6000815180845260005b8181101561097e57602081850181015186830182015201610962565b506000602082860101526020601f19601f83011685010191505092915050565b6001600160a01b0387811682528616602082015260c0604082018190526000906109ca90830187610958565b60ff95909516606083015250608081019290925260a0909101529392505050565b803560ff811681146109fc57600080fd5b919050565b600060208284031215610a1357600080fd5b610a1c826109eb565b9392505050565b602081526000610a1c6020830184610958565b80356001600160a01b03811681146109fc57600080fd5b600060208284031215610a5f57600080fd5b610a1c82610a36565b6020808252825182820181905260009190848201906040850190845b81811015610aa057835183529284019291840191600101610a84565b50909695505050505050565b60008060408385031215610abf57600080fd5b610ac883610a36565b946020939093013593505050565b634e487b7160e01b600052604160045260246000fd5b60008060008060808587031215610b0257600080fd5b610b0b85610a36565b9350602085013567ffffffffffffffff80821115610b2857600080fd5b818701915087601f830112610b3c57600080fd5b813581811115610b4e57610b4e610ad6565b604051601f8201601f19908116603f01168101908382118183101715610b7657610b76610ad6565b816040528281528a6020848701011115610b8f57600080fd5b826020860160208301376000602084830101528097505050505050610bb6604086016109eb565b9396929550929360600135925050565b600181811c90821680610bda57607f821691505b602082108103610bfa57634e487b7160e01b600052602260045260246000fd5b50919050565b600060208284031215610c1257600080fd5b81518015158114610a1c57600080fd5b600060018201610c4257634e487b7160e01b600052601160045260246000fd5b5060010190565b601f821115610c9357600081815260208120601f850160051c81016020861015610c705750805b601f850160051c820191505b81811015610c8f57828155600101610c7c565b5050505b505050565b815167ffffffffffffffff811115610cb257610cb2610ad6565b610cc681610cc08454610bc6565b84610c49565b602080601f831160018114610cfb5760008415610ce35750858301515b600019600386901b1c1916600185901b178555610c8f565b600085815260208120601f198616915b82811015610d2a57888601518255948401946001909101908401610d0b565b5085821015610d485787850151600019600388901b60f8161c191681555b5050505050600190811b0190555056fea26469706673582212207821e032af926b99c43a4b48ee0d2f0955c0f684f2d5d79a43b6ee7d30b010d864736f6c63430008140033",
  "linkReferences": {},
  "deployedLinkReferences": {}
}