{
  "_format": "hh-sol-artifact-1",
  "contractName": "SC7_OracleBridge",
  "sourceName": "contracts/SC7_OracleBridge.sol",
  "abi": [
    {
      "inputs": [],
      "stateMutability": "nonpayable",
      "type": "constructor"
    },
    {
      "anonymous": false,
      "inputs": [
        {
          "indexed": true,
          "internalType": "bytes32",
          "name": "rxHash",
          "type": "bytes32"
        },
        {
          "indexed": true,
          "internalType": "address",
          "name": "hp",
          "type": "address"
        }
      ],
      "name": "HashRegistered",
      "type": "event"
    },
    {
      "anonymous": false,
      "inputs": [
        {
          "indexed": true,
          "internalType": "bytes32",
          "name": "rxHash",
          "type": "bytes32"
        },
        {
          "indexed": false,
          "internalType": "bool",
          "name": "valid",
          "type": "bool"
        }
      ],
      "name": "HashVerified",
      "type": "event"
    },
    {
      "inputs": [
        {
          "internalType": "bytes32",
          "name": "rxHash",
          "type": "bytes32"
        }
      ],
      "name": "checkHash",
      "outputs": [
        {
          "internalType": "uint8",
          "name": "",
          "type": "uint8"
        }
      ],
      "stateMutability": "view",
      "type": "function"
    },
    {
      "inputs": [
        {
          "internalType": "bytes32",
          "name": "",
          "type": "bytes32"
        }
      ],
      "name": "prescriptions",
      "outputs": [
        {
          "internalType": "enum SC7_OracleBridge.HashStatus",
          "name": "status",
          "type": "uint8"
        },
        {
          "internalType": "uint256",
          "name": "registeredAt",
          "type": "uint256"
        },
        {
          "internalType": "uint256",
          "name": "usedAt",
          "type": "uint256"
        },
        {
          "internalType": "address",
          "name": "registeredBy",
          "type": "address"
        }
      ],
      "stateMutability": "view",
      "type": "function"
    },
    {
      "inputs": [
        {
          "internalType": "bytes32",
          "name": "rxHash",
          "type": "bytes32"
        },
        {
          "internalType": "address",
          "name": "hp",
          "type": "address"
        }
      ],
      "name": "registerHash",
      "outputs": [],
      "stateMutability": "nonpayable",
      "type": "function"
    },
    {
      "inputs": [],
      "name": "sc3Address",
      "outputs": [
        {
          "internalType": "address",
          "name": "",
          "type": "address"
        }
      ],
      "stateMutability": "view",
      "type": "function"
    },
    {
      "inputs": [
        {
          "internalType": "address",
          "name": "_sc3",
          "type": "address"
        }
      ],
      "name": "setSC3Address",
      "outputs": [],
      "stateMutability": "nonpayable",
      "type": "function"
    },
    {
      "inputs": [],
      "name": "trustedAuthority",
      "outputs": [
        {
          "internalType": "address",
          "name": "",
          "type": "address"
        }
      ],
      "stateMutability": "view",
      "type": "function"
    },
    {
      "inputs": [
        {
          "internalType": "bytes32",
          "name": "rxHash",
          "type": "bytes32"
        }
      ],
      "name": "verifyHash",
      "outputs": [
        {
          "internalType": "bool",
          "name": "",
          "type": "bool"
        }
      ],
      "stateMutability": "nonpayable",
      "type": "function"
    }
  ],
  "bytecode": "0x608060405234801561001057600080fd5b50600080546001600160a01b03191633179055610592806100326000396000f3fe608060405234801561001057600080fd5b506004361061007d5760003560e01c8063b57914fe1161005b578063b57914fe1461011f578063d604d8d114610132578063d937008b14610157578063ef020f4a1461016a57600080fd5b80637a23a573146100825780637b464e93146100975780638594c5cf146100f4575b600080fd5b610095610090366004610498565b61018d565b005b6100db6100a53660046104c4565b6002602081905260009182526040909120805460018201549282015460039092015460ff9091169291906001600160a01b031684565b6040516100eb94939291906104f3565b60405180910390f35b600054610107906001600160a01b031681565b6040516001600160a01b0390911681526020016100eb565b61009561012d36600461053a565b610331565b6101456101403660046104c4565b610397565b60405160ff90911681526020016100eb565b600154610107906001600160a01b031681565b61017d6101783660046104c4565b6103c1565b60405190151581526020016100eb565b6001546001600160a01b031633146101e55760405162461bcd60e51b815260206004820152601660248201527527b7363c9029a196999031b0b7103932b3b4b9ba32b960511b60448201526064015b60405180910390fd5b600082815260026020819052604082205460ff1690811115610209576102096104dd565b146102565760405162461bcd60e51b815260206004820152601760248201527f4861736820616c7265616479207265676973746572656400000000000000000060448201526064016101dc565b6040805160808101909152806001815260200142815260200160008152602001826001600160a01b03168152506002600084815260200190815260200160002060008201518160000160006101000a81548160ff021916908360028111156102c0576102c06104dd565b0217905550602082015160018201556040808301516002830155606090920151600390910180546001600160a01b0319166001600160a01b0392831617905590519082169083907fc8efa9c8172e551d5b2e8b2df8f9e923e17b6df51ddb25093c4cdcd91a8a0a5790600090a35050565b6000546001600160a01b031633146103755760405162461bcd60e51b81526020600482015260076024820152664f6e6c7920544160c81b60448201526064016101dc565b600180546001600160a01b0319166001600160a01b0392909216919091179055565b600081815260026020819052604082205460ff16908111156103bb576103bb6104dd565b92915050565b60008181526002602052604081206001815460ff1660028111156103e7576103e76104dd565b1461042b576040516000815283907f1ea35447227ae9078caafc1d8e7e67be0b29463deced8184569dc0ac002c1d319060200160405180910390a250600092915050565b805460ff19166002908117825542908201556040516001815283907f1ea35447227ae9078caafc1d8e7e67be0b29463deced8184569dc0ac002c1d319060200160405180910390a250600192915050565b80356001600160a01b038116811461049357600080fd5b919050565b600080604083850312156104ab57600080fd5b823591506104bb6020840161047c565b90509250929050565b6000602082840312156104d657600080fd5b5035919050565b634e487b7160e01b600052602160045260246000fd5b608081016003861061051557634e487b7160e01b600052602160045260246000fd5b948152602081019390935260408301919091526001600160a01b031660609091015290565b60006020828403121561054c57600080fd5b6105558261047c565b939250505056fea26469706673582212206918bc4e31933ef0c280505673727397b5a7d67f97bc3b332c6cfb18b263876964736f6c63430008140033",
  "linkReferences": {},
  "deployedLinkReferences": {}
}