{
  "_format": "hh-sol-artifact-1",
  "contractName": "SC2_PatientConsent",
  "sourceName": "contracts/SC2_PatientConsent.sol",
  "abi": [
    {
      "inputs": [
        {
          "internalType": "address",
          "name": "sc1Address",
          "type": "address"
        }
      ],
      "stateMutability": "nonpayable",
      "type": "constructor"
    },
    {
      "anonymous": false,
      "inputs": [
        {
          "indexed": true,
          "internalType": "address",
          "name": "patient",
          "type": "address"
        },
        {
          "indexed": true,
          "internalType": "address",
          "name": "hp",
          "type": "address"
        },
        {
          "indexed": false,
          "internalType": "uint256",
          "name": "expiresAt",
          "type": "uint256"
        }
      ],
      "name": "AccessGranted",
      "type": "event"
    },
    {
      "anonymous": false,
      "inputs": [
        {
          "indexed": true,
          "internalType": "address",
          "name": "patient",
          "type": "address"
        },
        {
          "indexed": true,
          "internalType": "address",
          "name": "hp",
          "type": "address"
        }
      ],
      "name": "AccessRevoked",
      "type": "event"
    },
    {
      "inputs": [
        {
          "internalType": "address",
          "name": "",
          "type": "address"
        },
        {
          "internalType": "address",
          "name": "",
          "type": "address"
        }
      ],
      "name": "consents",
      "outputs": [
        {
          "internalType": "bool",
          "name": "active",
          "type": "bool"
        },
        {
          "internalType": "uint256",
          "name": "grantedAt",
          "type": "uint256"
        },
        {
          "internalType": "uint256",
          "name": "expiresAt",
          "type": "uint256"
        }
      ],
      "stateMutability": "view",
      "type": "function"
    },
    {
      "inputs": [
        {
          "internalType": "address",
          "name": "patient",
          "type": "address"
        },
        {
          "internalType": "address",
          "name": "hp",
          "type": "address"
        }
      ],
      "name": "getConsentInfo",
      "outputs": [
        {
          "internalType": "bool",
          "name": "active",
          "type": "bool"
        },
        {
          "internalType": "uint256",
          "name": "grantedAt",
          "type": "uint256"
        },
        {
          "internalType": "uint256",
          "name": "expiresAt",
          "type": "uint256"
        }
      ],
      "stateMutability": "view",
      "type": "function"
    },
    {
      "inputs": [
        {
          "internalType": "address",
          "name": "hp",
          "type": "address"
        },
        {
          "internalType": "uint256",
          "name": "durationDays",
          "type": "uint256"
        }
      ],
      "name": "grantAccess",
      "outputs": [],
      "stateMutability": "nonpayable",
      "type": "function"
    },
    {
      "inputs": [
        {
          "internalType": "address",
          "name": "hp",
          "type": "address"
        },
        {
          "internalType": "address",
          "name": "patient",
          "type": "address"
        }
      ],
      "name": "hasAccess",
      "outputs": [
        {
          "internalType": "bool",
          "name": "",
          "type": "bool"
        }
      ],
      "stateMutability": "view",
      "type": "function"
    },
    {
      "inputs": [
        {
          "internalType": "address",
          "name": "hp",
          "type": "address"
        }
      ],
      "name": "revokeAccess",
      "outputs": [],
      "stateMutability": "nonpayable",
      "type": "function"
    },
    {
      "inputs": [],
      "name": "sc1",
      "outputs": [
        {
          "internalType": "contract ISC1",
          "name": "",
          "type": "address"
        }
      ],
      "stateMutability": "view",
      "type": "function"
    }
  ],
  "bytecode": "0x608060405234801561001057600080fd5b506040516106ee3803806106ee83398101604081905261002f91610054565b600080546001600160a01b0319166001600160a01b0392909216919091179055610084565b60006020828403121561006657600080fd5b81516001600160a01b038116811461007d57600080fd5b9392505050565b61065b806100936000396000f3fe608060405234801561001057600080fd5b50600436106100625760003560e01c80630c1f629d146100675780631709ef071461009757806385e68531146100ba5780639df89256146100cf578063ae83af55146100e2578063f6f62c5e1461013b575b600080fd5b60005461007a906001600160a01b031681565b6040516001600160a01b0390911681526020015b60405180910390f35b6100aa6100a5366004610544565b61019f565b604051901515815260200161008e565b6100cd6100c8366004610577565b610230565b005b6100cd6100dd366004610599565b6102fe565b61011e6100f0366004610544565b6001602081815260009384526040808520909152918352912080549181015460029091015460ff9092169183565b60408051931515845260208401929092529082015260600161008e565b61011e610149366004610544565b6001600160a01b039182166000908152600160208181526040808420949095168352928352908390208351606081018552815460ff16151580825292820154938101849052600290910154930183905292909190565b6001600160a01b03808216600090815260016020818152604080842094871684529381528383208451606081018652815460ff161515808252938201549281019290925260020154938101939093529091906101ff57600091505061022a565b6040810151158015906102155750806040015142115b1561022457600091505061022a565b60019150505b92915050565b3360009081526001602090815260408083206001600160a01b038516845290915290205460ff166102a85760405162461bcd60e51b815260206004820152601b60248201527f4e6f2061637469766520636f6e73656e7420746f207265766f6b65000000000060448201526064015b60405180910390fd5b3360008181526001602090815260408083206001600160a01b0386168085529252808320805460ff19169055519092917f825c8be24eb0df19500f63e86c29e7d0d951e73056b889b891d85e40938d9b6e91a350565b600054604051639f8a13d760e01b81523360048201526001600160a01b0390911690639f8a13d790602401602060405180830381865afa158015610346573d6000803e3d6000fd5b505050506040513d601f19601f8201168201806040525081019061036a91906105c3565b6103b65760405162461bcd60e51b815260206004820152601e60248201527f50617469656e74206e6f74207265676973746572656420696e2053432d310000604482015260640161029f565b600054604051639f8a13d760e01b81526001600160a01b03848116600483015290911690639f8a13d790602401602060405180830381865afa158015610400573d6000803e3d6000fd5b505050506040513d601f19601f8201168201806040525081019061042491906105c3565b6104705760405162461bcd60e51b815260206004820152601960248201527f4850206e6f74207265676973746572656420696e2053432d3100000000000000604482015260640161029f565b600081156104925761048582620151806105fb565b61048f9042610612565b90505b6040805160608101825260018082524260208084019182528385018681523360008181528584528781206001600160a01b038c16808352908552908890209651875460ff191690151517875593519486019490945551600290940193909355925184815290917f65d0cc1e52d49938ca4ad9f423c79c1b84d914b9a683fbc5d3f93ac3cc5635f5910160405180910390a3505050565b80356001600160a01b038116811461053f57600080fd5b919050565b6000806040838503121561055757600080fd5b61056083610528565b915061056e60208401610528565b90509250929050565b60006020828403121561058957600080fd5b61059282610528565b9392505050565b600080604083850312156105ac57600080fd5b6105b583610528565b946020939093013593505050565b6000602082840312156105d557600080fd5b8151801515811461059257600080fd5b634e487b7160e01b600052601160045260246000fd5b808202811582820484141761022a5761022a6105e5565b8082018082111561022a5761022a6105e556fea2646970667358221220e89536ff8c49f756ff87193b18a6618c6235aa1c43cabbb29fe0f31d8aa1f8f364736f6c63430008140033",
  "linkReferences": {},
  "deployedLinkReferences": {}
}