{
  "_format": "hh-sol-artifact-1",
  "contractName": "SC1_IdentityRegistry",
  "sourceName": "contracts/SC1_IdentityRegistry.sol",
  "abi": [
    {
      "inputs": [],
      "stateMutability": "nonpayable",
      "type": "constructor"
    },
    {
      "anonymous": false,
      "inputs": [
        {
          "indexed": true,
          "internalType": "address",
          "name": "who",
          "type": "address"
        },
        {
          "indexed": false,
          "internalType": "string",
          "name": "role",
          "type": "string"
        },
        {
          "indexed": false,
          "internalType": "string",
          "name": "publicKeyHash",
          "type": "string"
        }
      ],
      "name": "ActorRegistered",
      "type": "event"
    },
    {
      "anonymous": false,
      "inputs": [
        {
          "indexed": true,
          "internalType": "address",
          "name": "who",
          "type": "address"
        },
        {
          "indexed": false,
          "internalType": "string",
          "name": "reason",
          "type": "string"
        }
      ],
      "name": "ActorRevoked",
      "type": "event"
    },
    {
      "inputs": [
        {
          "internalType": "address",
          "name": "",
          "type": "address"
        }
      ],
      "name": "actors",
      "outputs": [
        {
          "internalType": "string",
          "name": "role",
          "type": "string"
        },
        {
          "internalType": "string",
          "name": "publicKeyHash",
          "type": "string"
        },
        {
          "internalType": "bool",
          "name": "isActive",
          "type": "bool"
        },
        {
          "internalType": "uint256",
          "name": "registeredAt",
          "type": "uint256"
        }
      ],
      "stateMutability": "view",
      "type": "function"
    },
    {
      "inputs": [
        {
          "internalType": "address",
          "name": "who",
          "type": "address"
        }
      ],
      "name": "getRole",
      "outputs": [
        {
          "internalType": "string",
          "name": "",
          "type": "string"
        }
      ],
      "stateMutability": "view",
      "type": "function"
    },
    {
      "inputs": [
        {
          "internalType": "address",
          "name": "who",
          "type": "address"
        }
      ],
      "name": "isActive",
      "outputs": [
        {
          "internalType": "bool",
          "name": "",
          "type": "bool"
        }
      ],
      "stateMutability": "view",
      "type": "function"
    },
    {
      "inputs": [
        {
          "internalType": "address",
          "name": "who",
          "type": "address"
        },
        {
          "internalType": "string",
          "name": "role",
          "type": "string"
        },
        {
          "internalType": "string",
          "name": "pubKeyHash",
          "type": "string"
        }
      ],
      "name": "register",
      "outputs": [],
      "stateMutability": "nonpayable",
      "type": "function"
    },
    {
      "inputs": [
        {
          "internalType": "address",
          "name": "who",
          "type": "address"
        },
        {
          "internalType": "string",
          "name": "reason",
          "type": "string"
        }
      ],
      "name": "revoke",
      "outputs": [],
      "stateMutability": "nonpayable",
      "type": "function"
    },
    {
      "inputs": [
        {
          "internalType": "address",
          "name": "newTA",
          "type": "address"
        }
      ],
      "name": "transferTA",
      "outputs": [],
      "stateMutability": "nonpayable",
      "type": "function"
    },
    {
      "inputs": [],
      "name": "trustedAuthority",
      "outputs": [
        {
          "internalType": "address",
          "name": "",
          "type": "address"
        }
      ],
      "stateMutability": "view",
      "type": "function"
    }
  ],
  "bytecode": "0x608060405234801561001057600080fd5b50600080546001600160a01b03191633179055610a95806100326000396000f3fe608060405234801561001057600080fd5b506004361061007d5760003560e01c80638d59cc021161005b5780638d59cc02146100eb5780639f8a13d7146100fe578063afd0224b1461013d578063eaa66a3c1461015057600080fd5b80634427673314610082578063502d986a146100ab5780638594c5cf146100c0575b600080fd5b6100956100903660046106a2565b610173565b6040516100a2919061070a565b60405180910390f35b6100be6100b93660046106a2565b61021f565b005b6000546100d3906001600160a01b031681565b6040516001600160a01b0390911681526020016100a2565b6100be6100f93660046107c0565b6102bc565b61012d61010c3660046106a2565b6001600160a01b031660009081526001602052604090206002015460ff1690565b60405190151581526020016100a2565b6100be61014b366004610834565b610463565b61016361015e3660046106a2565b61054a565b6040516100a29493929190610882565b6001600160a01b038116600090815260016020526040902080546060919061019a906108bb565b80601f01602080910402602001604051908101604052809291908181526020018280546101c6906108bb565b80156102135780601f106101e857610100808354040283529160200191610213565b820191906000526020600020905b8154815290600101906020018083116101f657829003601f168201915b50505050509050919050565b6000546001600160a01b031633146102525760405162461bcd60e51b8152600401610249906108f5565b60405180910390fd5b6001600160a01b03811661029a5760405162461bcd60e51b815260206004820152600f60248201526e496e76616c6964206164647265737360881b6044820152606401610249565b600080546001600160a01b0319166001600160a01b0392909216919091179055565b6000546001600160a01b031633146102e65760405162461bcd60e51b8152600401610249906108f5565b6001600160a01b03831661032e5760405162461bcd60e51b815260206004820152600f60248201526e496e76616c6964206164647265737360881b6044820152606401610249565b6001600160a01b03831660009081526001602052604090206002015460ff161561039a5760405162461bcd60e51b815260206004820152601d60248201527f416c7265616479207265676973746572656420616e64206163746976650000006044820152606401610249565b60408051608081018252838152602080820184905260018284018190524260608401526001600160a01b0387166000908152915291909120815181906103e09082610971565b50602082015160018201906103f59082610971565b5060408281015160028301805460ff1916911515919091179055606090920151600390910155516001600160a01b038416907f1d34bb903252bf77da396eadf6a332e7302eec0eca3687f9c2142bbd69e831d1906104569085908590610a31565b60405180910390a2505050565b6000546001600160a01b0316331461048d5760405162461bcd60e51b8152600401610249906108f5565b6001600160a01b03821660009081526001602052604090206002015460ff166104eb5760405162461bcd60e51b815260206004820152601060248201526f4163746f72206e6f742061637469766560801b6044820152606401610249565b6001600160a01b03821660008181526001602052604090819020600201805460ff19169055517fe8ca935612f0b5030665a9a404f778c7e9ce06fdabb2c241291abb051e4bc9ca9061053e90849061070a565b60405180910390a25050565b600160205260009081526040902080548190610565906108bb565b80601f0160208091040260200160405190810160405280929190818152602001828054610591906108bb565b80156105de5780601f106105b3576101008083540402835291602001916105de565b820191906000526020600020905b8154815290600101906020018083116105c157829003601f168201915b5050505050908060010180546105f3906108bb565b80601f016020809104026020016040519081016040528092919081815260200182805461061f906108bb565b801561066c5780601f106106415761010080835404028352916020019161066c565b820191906000526020600020905b81548152906001019060200180831161064f57829003601f168201915b505050506002830154600390930154919260ff1691905084565b80356001600160a01b038116811461069d57600080fd5b919050565b6000602082840312156106b457600080fd5b6106bd82610686565b9392505050565b6000815180845260005b818110156106ea576020818501810151868301820152016106ce565b506000602082860101526020601f19601f83011685010191505092915050565b6020815260006106bd60208301846106c4565b634e487b7160e01b600052604160045260246000fd5b600082601f83011261074457600080fd5b813567ffffffffffffffff8082111561075f5761075f61071d565b604051601f8301601f19908116603f011681019082821181831017156107875761078761071d565b816040528381528660208588010111156107a057600080fd5b836020870160208301376000602085830101528094505050505092915050565b6000806000606084860312156107d557600080fd5b6107de84610686565b9250602084013567ffffffffffffffff808211156107fb57600080fd5b61080787838801610733565b9350604086013591508082111561081d57600080fd5b5061082a86828701610733565b9150509250925092565b6000806040838503121561084757600080fd5b61085083610686565b9150602083013567ffffffffffffffff81111561086c57600080fd5b61087885828601610733565b9150509250929050565b60808152600061089560808301876106c4565b82810360208401526108a781876106c4565b941515604084015250506060015292915050565b600181811c908216806108cf57607f821691505b6020821081036108ef57634e487b7160e01b600052602260045260246000fd5b50919050565b6020808252601390820152724f6e6c792054412063616e20646f207468697360681b604082015260600190565b601f82111561096c57600081815260208120601f850160051c810160208610156109495750805b601f850160051c820191505b8181101561096857828155600101610955565b5050505b505050565b815167ffffffffffffffff81111561098b5761098b61071d565b61099f8161099984546108bb565b84610922565b602080601f8311600181146109d457600084156109bc5750858301515b600019600386901b1c1916600185901b178555610968565b600085815260208120601f198616915b82811015610a03578886015182559484019460019091019084016109e4565b5085821015610a215787850151600019600388901b60f8161c191681555b5050505050600190811b01905550565b604081526000610a4460408301856106c4565b8281036020840152610a5681856106c4565b9594505050505056fea2646970667358221220b523046908275b2328e4cb044ef8bbea9eeaf86746c6df668094f394d1ddc14864736f6c63430008140033",
  "linkReferences": {},
  "deployedLinkReferences": {}
}