{
  "_format": "hh-sol-artifact-1",
  "contractName": "SC4_DCSScoring",
  "sourceName": "contracts/SC4_DCSScoring.sol",
  "abi": [
    {
      "inputs": [
        {
          "internalType": "address",
          "name": "sc1Addr",
          "type": "address"
        }
      ],
      "stateMutability": "nonpayable",
      "type": "constructor"
    },
    {
      "anonymous": false,
      "inputs": [
        {
          "indexed": true,
          "internalType": "address",
          "name": "uav",
          "type": "address"
        },
        {
          "indexed": false,
          "internalType": "int256",
          "name": "delta",
          "type": "int256"
        },
        {
          "indexed": false,
          "internalType": "int256",
          "name": "newScore",
          "type": "int256"
        }
      ],
      "name": "ReputationUpdated",
      "type": "event"
    },
    {
      "anonymous": false,
      "inputs": [
        {
          "indexed": true,
          "internalType": "uint256",
          "name": "roundId",
          "type": "uint256"
        },
        {
          "indexed": false,
          "internalType": "uint256",
          "name": "orderId",
          "type": "uint256"
        },
        {
          "indexed": false,
          "internalType": "address",
          "name": "droneStation",
          "type": "address"
        }
      ],
      "name": "RoundOpened",
      "type": "event"
    },
    {
      "anonymous": false,
      "inputs": [
        {
          "indexed": true,
          "internalType": "uint256",
          "name": "roundId",
          "type": "uint256"
        },
        {
          "indexed": true,
          "internalType": "address",
          "name": "uav",
          "type": "address"
        },
        {
          "indexed": false,
          "internalType": "uint256",
          "name": "score",
          "type": "uint256"
        }
      ],
      "name": "ScoreSubmitted",
      "type": "event"
    },
    {
      "anonymous": false,
      "inputs": [
        {
          "indexed": true,
          "internalType": "uint256",
          "name": "roundId",
          "type": "uint256"
        },
        {
          "indexed": true,
          "internalType": "address",
          "name": "winner",
          "type": "address"
        },
        {
          "indexed": false,
          "internalType": "uint256",
          "name": "score",
          "type": "uint256"
        }
      ],
      "name": "WinnerSelected",
      "type": "event"
    },
    {
      "inputs": [
        {
          "internalType": "uint256",
          "name": "roundId",
          "type": "uint256"
        }
      ],
      "name": "closeRound",
      "outputs": [],
      "stateMutability": "nonpayable",
      "type": "function"
    },
    {
      "inputs": [
        {
          "internalType": "uint256",
          "name": "speed",
          "type": "uint256"
        },
        {
          "internalType": "uint256",
          "name": "payload",
          "type": "uint256"
        },
        {
          "internalType": "uint256",
          "name": "battery",
          "type": "uint256"
        },
        {
          "internalType": "uint256",
          "name": "cpu",
          "type": "uint256"
        },
        {
          "internalType": "uint256",
          "name": "ram",
          "type": "uint256"
        }
      ],
      "name": "computeScore",
      "outputs": [
        {
          "internalType": "uint256",
          "name": "",
          "type": "uint256"
        }
      ],
      "stateMutability": "pure",
      "type": "function"
    },
    {
      "inputs": [
        {
          "internalType": "uint256",
          "name": "roundId",
          "type": "uint256"
        }
      ],
      "name": "getWinner",
      "outputs": [
        {
          "internalType": "address",
          "name": "winner",
          "type": "address"
        },
        {
          "internalType": "uint256",
          "name": "score",
          "type": "uint256"
        }
      ],
      "stateMutability": "view",
      "type": "function"
    },
    {
      "inputs": [
        {
          "internalType": "address",
          "name": "_sc6",
          "type": "address"
        }
      ],
      "name": "linkSC6",
      "outputs": [],
      "stateMutability": "nonpayable",
      "type": "function"
    },
    {
      "inputs": [
        {
          "internalType": "uint256",
          "name": "orderId",
          "type": "uint256"
        }
      ],
      "name": "openRound",
      "outputs": [
        {
          "internalType": "uint256",
          "name": "roundId",
          "type": "uint256"
        }
      ],
      "stateMutability": "nonpayable",
      "type": "function"
    },
    {
      "inputs": [
        {
          "internalType": "address",
          "name": "",
          "type": "address"
        }
      ],
      "name": "reputationScore",
      "outputs": [
        {
          "internalType": "int256",
          "name": "",
          "type": "int256"
        }
      ],
      "stateMutability": "view",
      "type": "function"
    },
    {
      "inputs": [],
      "name": "roundCount",
      "outputs": [
        {
          "internalType": "uint256",
          "name": "",
          "type": "uint256"
        }
      ],
      "stateMutability": "view",
      "type": "function"
    },
    {
      "inputs": [
        {
          "internalType": "uint256",
          "name": "",
          "type": "uint256"
        },
        {
          "internalType": "uint256",
          "name": "",
          "type": "uint256"
        }
      ],
      "name": "roundParticipants",
      "outputs": [
        {
          "internalType": "address",
          "name": "",
          "type": "address"
        }
      ],
      "stateMutability": "view",
      "type": "function"
    },
    {
      "inputs": [
        {
          "internalType": "uint256",
          "name": "",
          "type": "uint256"
        }
      ],
      "name": "rounds",
      "outputs": [
        {
          "internalType": "uint256",
          "name": "orderId",
          "type": "uint256"
        },
        {
          "internalType": "address",
          "name": "droneStation",
          "type": "address"
        },
        {
          "internalType": "bool",
          "name": "isOpen",
          "type": "bool"
        },
        {
          "internalType": "address",
          "name": "winner",
          "type": "address"
        },
        {
          "internalType": "uint256",
          "name": "winnerScore",
          "type": "uint256"
        },
        {
          "internalType": "uint256",
          "name": "submissionCount",
          "type": "uint256"
        }
      ],
      "stateMutability": "view",
      "type": "function"
    },
    {
      "inputs": [],
      "name": "sc1",
      "outputs": [
        {
          "internalType": "contract ISC1_v4",
          "name": "",
          "type": "address"
        }
      ],
      "stateMutability": "view",
      "type": "function"
    },
    {
      "inputs": [],
      "name": "sc6Address",
      "outputs": [
        {
          "internalType": "address",
          "name": "",
          "type": "address"
        }
      ],
      "stateMutability": "view",
      "type": "function"
    },
    {
      "inputs": [
        {
          "internalType": "uint256",
          "name": "",
          "type": "uint256"
        },
        {
          "internalType": "address",
          "name": "",
          "type": "address"
        }
      ],
      "name": "submissions",
      "outputs": [
        {
          "internalType": "address",
          "name": "uavAddress",
          "type": "address"
        },
        {
          "internalType": "uint256",
          "name": "score",
          "type": "uint256"
        },
        {
          "internalType": "uint256",
          "name": "submittedAt",
          "type": "uint256"
        },
        {
          "internalType": "bool",
          "name": "verified",
          "type": "bool"
        }
      ],
      "stateMutability": "view",
      "type": "function"
    },
    {
      "inputs": [
        {
          "internalType": "uint256",
          "name": "roundId",
          "type": "uint256"
        },
        {
          "internalType": "uint256",
          "name": "score",
          "type": "uint256"
        }
      ],
      "name": "submitScore",
      "outputs": [],
      "stateMutability": "nonpayable",
      "type": "function"
    },
    {
      "inputs": [
        {
          "internalType": "address",
          "name": "uav",
          "type": "address"
        },
        {
          "internalType": "int256",
          "name": "delta",
          "type": "int256"
        }
      ],
      "name": "updateReputation",
      "outputs": [],
      "stateMutability": "nonpayable",
      "type": "function"
    }
  ],
  "bytecode": "0x608060405234801561001057600080fd5b5060405161113538038061113583398101604081905261002f91610054565b600080546001600160a01b0319166001600160a01b0392909216919091179055610084565b60006020828403121561006657600080fd5b81516001600160a01b038116811461007d57600080fd5b9392505050565b6110a2806100936000396000f3fe608060405234801561001057600080fd5b50600436106100ea5760003560e01c8063574d64231161008c57806388e01a981161006657806388e01a98146102615780638c65c81f14610274578063bde22ae014610306578063de26eadf1461031957600080fd5b8063574d6423146102265780636a08b5111461023b5780638358ba081461024e57600080fd5b8063127f0b3f116100c8578063127f0b3f146101aa5780632efd5658146101c15780634129b2c9146101d457806350d061cb1461020657600080fd5b806307f3b426146100ef5780630c1f629d1461011f5780630e4dbf5c14610132575b600080fd5b600154610102906001600160a01b031681565b6040516001600160a01b0390911681526020015b60405180910390f35b600054610102906001600160a01b031681565b61017e610140366004610e9d565b6003602081815260009384526040808520909152918352912080546001820154600283015492909301546001600160a01b0390911692919060ff1684565b604080516001600160a01b03909516855260208501939093529183015215156060820152608001610116565b6101b360065481565b604051908152602001610116565b6101b36101cf366004610ec9565b61032c565b6101e76101e2366004610f04565b610465565b604080516001600160a01b039093168352602083019190915201610116565b6101b3610214366004610f1d565b60056020526000908152604090205481565b610239610234366004610f1d565b6104ee565b005b610239610249366004610f3f565b6105a6565b61023961025c366004610f69565b61070d565b61023961026f366004610f04565b6109c4565b6102c9610282366004610f04565b60026020819052600091825260409091208054600182015492820154600383015460049093015491936001600160a01b0380821694600160a01b90920460ff169392169186565b604080519687526001600160a01b0395861660208801529315159386019390935292166060840152608083019190915260a082015260c001610116565b6101b3610314366004610f04565b610c80565b610102610327366004610f69565b610e49565b600060648611158015610340575060648511155b801561034d575060648411155b6103965760405162461bcd60e51b815260206004820152601560248201527404d657472696373206d75737420626520302d31303605c1b60448201526064015b60405180910390fd5b606483111580156103a8575060648211155b6103ec5760405162461bcd60e51b815260206004820152601560248201527404d657472696373206d75737420626520302d31303605c1b604482015260640161038d565b60006103f983600a610fa1565b61040485600f610fa1565b61040f876014610fa1565b61041a896019610fa1565b6104258b601e610fa1565b61042f9190610fbe565b6104399190610fbe565b6104439190610fbe565b61044d9190610fbe565b905061045a606482610fd1565b979650505050505050565b6000818152600260205260408120600101548190600160a01b900460ff16156104c35760405162461bcd60e51b815260206004820152601060248201526f2937bab7321039ba34b6361037b832b760811b604482015260640161038d565b50506000908152600260208190526040909120908101546003909101546001600160a01b0390911691565b6001546001600160a01b03161561053c5760405162461bcd60e51b815260206004820152601260248201527114d0cd88185b1c9958591e481b1a5b9ad95960721b604482015260640161038d565b6001600160a01b0381166105845760405162461bcd60e51b815260206004820152600f60248201526e496e76616c6964206164647265737360881b604482015260640161038d565b600180546001600160a01b0319166001600160a01b0392909216919091179055565b600054604051639f8a13d760e01b81523360048201526001600160a01b0390911690639f8a13d790602401602060405180830381865afa1580156105ee573d6000803e3d6000fd5b505050506040513d601f19601f820116820180604052508101906106129190610ff3565b8061062757506001546001600160a01b031633145b61068b5760405162461bcd60e51b815260206004820152602f60248201527f43616c6c6572206e6f7420617574686f72697a656420286e6f7420696e20534360448201526e2d3120616e64206e6f74205343362960881b606482015260840161038d565b6001600160a01b038216600090815260056020526040812080548392906106b3908490611015565b90915550506001600160a01b038216600081815260056020908152604091829020548251858152918201527f16d27e2cff7b6c62796ec35e40b30e11f94675cc9fded1762c7c11aaa15cb220910160405180910390a25050565b600054604051639f8a13d760e01b81523360048201526001600160a01b0390911690639f8a13d790602401602060405180830381865afa158015610755573d6000803e3d6000fd5b505050506040513d601f19601f820116820180604052508101906107799190610ff3565b6107c55760405162461bcd60e51b815260206004820152601a60248201527f554156206e6f74207265676973746572656420696e2053432d31000000000000604482015260640161038d565b600082815260026020526040902060010154600160a01b900460ff1661081f5760405162461bcd60e51b815260206004820152600f60248201526e149bdd5b99081a5cc818db1bdcd959608a1b604482015260640161038d565b60648111156108665760405162461bcd60e51b8152602060048201526013602482015272053636f7265206d75737420626520302d31303606c1b604482015260640161038d565b6000828152600360209081526040808320338452909152902060020154156108c45760405162461bcd60e51b8152602060048201526011602482015270105b1c9958591e481cdd589b5a5d1d1959607a1b604482015260640161038d565b604080516080810182523380825260208083018581524284860190815260016060860181815260008a815260038087528982208883528752898220985189546001600160a01b03919091166001600160a01b0319918216178a5595518985015593516002808a0191909155915197909301805497151560ff1990981697909717909655888252600480855287832080549283018155835284832090910180549093169094179091558681529290529181209091018054916109848361103d565b9091555050604051818152339083907ffdeaad9f62c24dd107d87ba2c0b144114dec62d178cad522394390f1d233a62c9060200160405180910390a35050565b600081815260026020526040902060018101546001600160a01b03163314610a395760405162461bcd60e51b815260206004820152602260248201527f4f6e6c79207468652044532074686174206f70656e6564207468697320726f756044820152611b9960f21b606482015260840161038d565b6001810154600160a01b900460ff16610a8b5760405162461bcd60e51b8152602060048201526014602482015273149bdd5b9908185b1c9958591e4818db1bdcd95960621b604482015260640161038d565b6000816004015411610ad55760405162461bcd60e51b8152602060048201526013602482015272139bc81cd8dbdc995cc81cdd589b5a5d1d1959606a1b604482015260640161038d565b6000828152600460209081526040808320805482518185028101850190935280835284938493929190830182828015610b3757602002820191906000526020600020905b81546001600160a01b03168152600190910190602001808311610b19575b5050505050905060005b8151811015610c0d57600086815260036020526040812083518290859085908110610b6e57610b6e611056565b6020908102919091018101516001600160a01b039081168352828201939093526040918201600020825160808101845281549094168452600181015491840182905260028101549284019290925260039091015460ff1615156060830152909150841015610bfa5780602001519350828281518110610bef57610bef611056565b602002602001015194505b5080610c058161103d565b915050610b41565b5060018401805460ff60a01b191690556002840180546001600160a01b0319166001600160a01b0385169081179091556003850183905560405183815286907ffee5b04775e1cd2311ed22cd00f5d2403aff38ff6f71d6d393f51854ed6bc9869060200160405180910390a35050505050565b60008054604051639f8a13d760e01b81523360048201526001600160a01b0390911690639f8a13d790602401602060405180830381865afa158015610cc9573d6000803e3d6000fd5b505050506040513d601f19601f82011682018060405250810190610ced9190610ff3565b610d395760405162461bcd60e51b815260206004820152601d60248201527f43616c6c6572206e6f74207265676973746572656420696e2053432d31000000604482015260640161038d565b60068054906000610d498361103d565b90915550506040805160c08101825283815233602080830182815260018486018181526000606087018181526080880182815260a08901838152600680548552600298899052938b902099518a559551948901805494511515600160a01b026001600160a81b03199095166001600160a01b039687161794909417909355519487018054959093166001600160a01b0319959095169490941790915551600385015551600490930192909255905491517f0a6ee14496bdbd5dffe8d949d4f0a1d6e4065975b72515af71629623acb8e56c91610e39918691909182526001600160a01b0316602082015260400190565b60405180910390a2505060065490565b60046020528160005260406000208181548110610e6557600080fd5b6000918252602090912001546001600160a01b03169150829050565b80356001600160a01b0381168114610e9857600080fd5b919050565b60008060408385031215610eb057600080fd5b82359150610ec060208401610e81565b90509250929050565b600080600080600060a08688031215610ee157600080fd5b505083359560208501359550604085013594606081013594506080013592509050565b600060208284031215610f1657600080fd5b5035919050565b600060208284031215610f2f57600080fd5b610f3882610e81565b9392505050565b60008060408385031215610f5257600080fd5b610f5b83610e81565b946020939093013593505050565b60008060408385031215610f7c57600080fd5b50508035926020909101359150565b634e487b7160e01b600052601160045260246000fd5b8082028115828204841417610fb857610fb8610f8b565b92915050565b80820180821115610fb857610fb8610f8b565b600082610fee57634e487b7160e01b600052601260045260246000fd5b500490565b60006020828403121561100557600080fd5b81518015158114610f3857600080fd5b808201828112600083128015821682158216171561103557611035610f8b565b505092915050565b60006001820161104f5761104f610f8b565b5060010190565b634e487b7160e01b600052603260045260246000fdfea26469706673582212208b27d96fb6eea768dcd363faa4547ad90bc1df85b2bf55b4effaac98e5db8dbc64736f6c63430008140033",
  "linkReferences": {},
  "deployedLinkReferences": {}
}