{
  "_format": "hh-sol-artifact-1",
  "contractName": "SC5_DeliveryOrders",
  "sourceName": "contracts/SC5_DeliveryOrders.sol",
  "abi": [
    {
      "inputs": [
        {
          "internalType": "address",
          "name": "sc1Addr",
          "type": "address"
        },
        {
          "internalType": "address",
          "name": "sc7Addr",
          "type": "address"
        }
      ],
      "stateMutability": "nonpayable",
      "type": "constructor"
    },
    {
      "anonymous": false,
      "inputs": [
        {
          "indexed": true,
          "internalType": "uint256",
          "name": "orderId",
          "type": "uint256"
        },
        {
          "indexed": false,
          "internalType": "enum SC5_DeliveryOrders.OrderStatus",
          "name": "newStatus",
          "type": "uint8"
        }
      ],
      "name": "OrderStatusUpdated",
      "type": "event"
    },
    {
      "anonymous": false,
      "inputs": [
        {
          "indexed": true,
          "internalType": "uint256",
          "name": "orderId",
          "type": "uint256"
        },
        {
          "indexed": true,
          "internalType": "address",
          "name": "patient",
          "type": "address"
        },
        {
          "indexed": false,
          "internalType": "uint8",
          "name": "parsScore",
          "type": "uint8"
        },
        {
          "indexed": false,
          "internalType": "bytes32",
          "name": "rxHash",
          "type": "bytes32"
        }
      ],
      "name": "OrderSubmitted",
      "type": "event"
    },
    {
      "anonymous": false,
      "inputs": [
        {
          "indexed": true,
          "internalType": "uint256",
          "name": "orderId",
          "type": "uint256"
        },
        {
          "indexed": false,
          "internalType": "address",
          "name": "warehouse",
          "type": "address"
        }
      ],
      "name": "StockConfirmed",
      "type": "event"
    },
    {
      "anonymous": false,
      "inputs": [
        {
          "indexed": true,
          "internalType": "uint256",
          "name": "orderId",
          "type": "uint256"
        },
        {
          "indexed": false,
          "internalType": "address",
          "name": "uav",
          "type": "address"
        }
      ],
      "name": "UAVAssigned",
      "type": "event"
    },
    {
      "inputs": [
        {
          "internalType": "uint256",
          "name": "orderId",
          "type": "uint256"
        },
        {
          "internalType": "address",
          "name": "uav",
          "type": "address"
        }
      ],
      "name": "assignUAV",
      "outputs": [],
      "stateMutability": "nonpayable",
      "type": "function"
    },
    {
      "inputs": [
        {
          "internalType": "uint256",
          "name": "orderId",
          "type": "uint256"
        }
      ],
      "name": "confirmStock",
      "outputs": [],
      "stateMutability": "nonpayable",
      "type": "function"
    },
    {
      "inputs": [
        {
          "internalType": "uint256",
          "name": "orderId",
          "type": "uint256"
        }
      ],
      "name": "getOrder",
      "outputs": [
        {
          "internalType": "address",
          "name": "hp",
          "type": "address"
        },
        {
          "internalType": "address",
          "name": "patient",
          "type": "address"
        },
        {
          "internalType": "uint8",
          "name": "parsScore",
          "type": "uint8"
        },
        {
          "internalType": "string",
          "name": "drugList",
          "type": "string"
        },
        {
          "internalType": "address",
          "name": "assignedUAV",
          "type": "address"
        },
        {
          "internalType": "enum SC5_DeliveryOrders.OrderStatus",
          "name": "status",
          "type": "uint8"
        },
        {
          "internalType": "uint256",
          "name": "slaDeadline",
          "type": "uint256"
        }
      ],
      "stateMutability": "view",
      "type": "function"
    },
    {
      "inputs": [
        {
          "internalType": "uint8",
          "name": "score",
          "type": "uint8"
        }
      ],
      "name": "getParsLabel",
      "outputs": [
        {
          "internalType": "string",
          "name": "",
          "type": "string"
        }
      ],
      "stateMutability": "pure",
      "type": "function"
    },
    {
      "inputs": [
        {
          "internalType": "uint8",
          "name": "parsScore",
          "type": "uint8"
        }
      ],
      "name": "getSLASeconds",
      "outputs": [
        {
          "internalType": "uint256",
          "name": "",
          "type": "uint256"
        }
      ],
      "stateMutability": "pure",
      "type": "function"
    },
    {
      "inputs": [],
      "name": "orderCount",
      "outputs": [
        {
          "internalType": "uint256",
          "name": "",
          "type": "uint256"
        }
      ],
      "stateMutability": "view",
      "type": "function"
    },
    {
      "inputs": [
        {
          "internalType": "uint256",
          "name": "",
          "type": "uint256"
        }
      ],
      "name": "orders",
      "outputs": [
        {
          "internalType": "uint256",
          "name": "orderId",
          "type": "uint256"
        },
        {
          "internalType": "address",
          "name": "hp",
          "type": "address"
        },
        {
          "internalType": "address",
          "name": "patient",
          "type": "address"
        },
        {
          "internalType": "bytes32",
          "name": "rxHash",
          "type": "bytes32"
        },
        {
          "internalType": "uint8",
          "name": "parsScore",
          "type": "uint8"
        },
        {
          "internalType": "string",
          "name": "drugList",
          "type": "string"
        },
        {
          "internalType": "address",
          "name": "warehouse",
          "type": "address"
        },
        {
          "internalType": "address",
          "name": "droneStation",
          "type": "address"
        },
        {
          "internalType": "address",
          "name": "assignedUAV",
          "type": "address"
        },
        {
          "internalType": "enum SC5_DeliveryOrders.OrderStatus",
          "name": "status",
          "type": "uint8"
        },
        {
          "internalType": "uint256",
          "name": "createdAt",
          "type": "uint256"
        },
        {
          "internalType": "uint256",
          "name": "slaDeadline",
          "type": "uint256"
        }
      ],
      "stateMutability": "view",
      "type": "function"
    },
    {
      "inputs": [
        {
          "internalType": "address",
          "name": "",
          "type": "address"
        },
        {
          "internalType": "uint256",
          "name": "",
          "type": "uint256"
        }
      ],
      "name": "patientOrders",
      "outputs": [
        {
          "internalType": "uint256",
          "name": "",
          "type": "uint256"
        }
      ],
      "stateMutability": "view",
      "type": "function"
    },
    {
      "inputs": [],
      "name": "sc1",
      "outputs": [
        {
          "internalType": "contract ISC1_v5",
          "name": "",
          "type": "address"
        }
      ],
      "stateMutability": "view",
      "type": "function"
    },
    {
      "inputs": [],
      "name": "sc7",
      "outputs": [
        {
          "internalType": "contract ISC7_v5",
          "name": "",
          "type": "address"
        }
      ],
      "stateMutability": "view",
      "type": "function"
    },
    {
      "inputs": [
        {
          "internalType": "address",
          "name": "patient",
          "type": "address"
        },
        {
          "internalType": "bytes32",
          "name": "rxHash",
          "type": "bytes32"
        },
        {
          "internalType": "uint8",
          "name": "parsScore",
          "type": "uint8"
        },
        {
          "internalType": "string",
          "name": "drugList",
          "type": "string"
        },
        {
          "internalType": "address",
          "name": "warehouse",
          "type": "address"
        },
        {
          "internalType": "address",
          "name": "droneStation",
          "type": "address"
        }
      ],
      "name": "submitOrder",
      "outputs": [
        {
          "internalType": "uint256",
          "name": "",
          "type": "uint256"
        }
      ],
      "stateMutability": "nonpayable",
      "type": "function"
    },
    {
      "inputs": [
        {
          "internalType": "uint256",
          "name": "orderId",
          "type": "uint256"
        },
        {
          "internalType": "enum SC5_DeliveryOrders.OrderStatus",
          "name": "newStatus",
          "type": "uint8"
        }
      ],
      "name": "updateStatus",
      "outputs": [],
      "stateMutability": "nonpayable",
      "type": "function"
    }
  ],
  "bytecode": "0x608060405234801561001057600080fd5b50604051620017cd380380620017cd8339810160408190526100319161007e565b600080546001600160a01b039384166001600160a01b031991821617909155600180549290931691161790556100b1565b80516001600160a01b038116811461007957600080fd5b919050565b6000806040838503121561009157600080fd5b61009a83610062565b91506100a860208401610062565b90509250929050565b61170c80620000c16000396000f3fe608060405234801561001057600080fd5b50600436106100b45760003560e01c8063984e0fca11610071578063984e0fca1461015b578063a85c38ef1461016e578063d09ef24114610199578063e6fe9708146101bf578063ed56514c146101d2578063f6322bd6146101e557600080fd5b80630c1f629d146100b95780630cfcb07e146100e95780632453ffa81461010a578063293c6a13146101135780633a1b3d311461012857806357b732041461013b575b600080fd5b6000546100cc906001600160a01b031681565b6040516001600160a01b0390911681526020015b60405180910390f35b6100fc6100f73660046111b5565b6101f8565b6040519081526020016100e0565b6100fc60025481565b6101266101213660046111df565b610229565b005b61012661013636600461120b565b610450565b61014e610149366004611250565b6105ef565b6040516100e091906112b8565b6001546100cc906001600160a01b031681565b61018161017c3660046112cb565b6106c6565b6040516100e09c9b9a9998979695949392919061131c565b6101ac6101a73660046112cb565b6107d1565b6040516100e097969594939291906113a7565b6100fc6101cd366004611419565b61098e565b6100fc6101e0366004611250565b610ff1565b6101266101f33660046112cb565b611037565b6004602052816000526040600020818154811061021457600080fd5b90600052602060002001600091509150505481565b600082815260036020526040902060078101546001600160a01b031633146102985760405162461bcd60e51b815260206004820152601f60248201527f4f6e6c79207468652061737369676e65642064726f6e652073746174696f6e0060448201526064015b60405180910390fd5b60016008820154600160a01b900460ff1660058111156102ba576102ba6112e4565b146103075760405162461bcd60e51b815260206004820152601760248201527f4f72646572206e6f7420434f4e4649524d454420796574000000000000000000604482015260640161028f565b600054604051639f8a13d760e01b81526001600160a01b03848116600483015290911690639f8a13d790602401602060405180830381865afa158015610351573d6000803e3d6000fd5b505050506040513d601f19601f820116820180604052508101906103759190611515565b6103b65760405162461bcd60e51b8152602060048201526012602482015271155055881b9bdd081c9959da5cdd195c995960721b604482015260640161028f565b6008810180546001600160a01b0384166001600160a81b03199091168117600160a11b17909155604080519182525184917f85cc5db68e09751c486e29a5016ef3ff5f2eb672c656aef517cc17ee53c36dc7919081900360200190a2827fd9a86b644eb5f5b43cc8a700849852481080361c7a4b00ba646d1b46c5585f9560026040516104439190611537565b60405180910390a2505050565b600054604051639f8a13d760e01b81523360048201526001600160a01b0390911690639f8a13d790602401602060405180830381865afa158015610498573d6000803e3d6000fd5b505050506040513d601f19601f820116820180604052508101906104bc9190611515565b6105005760405162461bcd60e51b815260206004820152601560248201527410d85b1b195c881b9bdd081c9959da5cdd195c9959605a1b604482015260640161028f565b600082815260036020526040902060078101546001600160a01b0316331480610535575060088101546001600160a01b031633145b6105935760405162461bcd60e51b815260206004820152602960248201527f4f6e6c79204453206f722061737369676e6564205541562063616e207570646160448201526874652073746174757360b81b606482015260840161028f565b60088101805483919060ff60a01b1916600160a01b8360058111156105ba576105ba6112e4565b0217905550827fd9a86b644eb5f5b43cc8a700849852481080361c7a4b00ba646d1b46c5585f95836040516104439190611537565b6060605a8260ff161061062b575050604080518082019091526013815272435249544943414c202d20336d696e20534c4160681b602082015290565b60468260ff161061066257505060408051808201909152601081526f48494748202d2031306d696e20534c4160801b602082015290565b60288260ff161061069d5750506040805180820190915260148152734d4f444552415445202d2033306d696e20534c4160601b602082015290565b505060408051808201909152600d81526c4c4f57202d2032687220534c4160981b602082015290565b600360208190526000918252604090912080546001820154600283015493830154600484015460058501805494966001600160a01b0394851696941694929360ff909216926107149061154b565b80601f01602080910402602001604051908101604052809291908181526020018280546107409061154b565b801561078d5780601f106107625761010080835404028352916020019161078d565b820191906000526020600020905b81548152906001019060200180831161077057829003601f168201915b505050506006830154600784015460088501546009860154600a9096015494956001600160a01b0393841695928416945092811692600160a01b90910460ff16918c565b60008181526003602081815260408084208151610180810183528154815260018201546001600160a01b039081169482019490945260028201549093169183019190915291820154606082810191909152600483015460ff16608083015260058301805485948594859384938493849392909160a0840191906108539061154b565b80601f016020809104026020016040519081016040528092919081815260200182805461087f9061154b565b80156108cc5780601f106108a1576101008083540402835291602001916108cc565b820191906000526020600020905b8154815290600101906020018083116108af57829003601f168201915b505050918352505060068201546001600160a01b03908116602083015260078301548116604083015260088301549081166060830152608090910190600160a01b900460ff166005811115610923576109236112e4565b6005811115610934576109346112e4565b815260200160098201548152602001600a8201548152505090508060200151816040015182608001518360a00151846101000151856101200151866101600151975097509750975097509750975050919395979092949650565b60008054604051639f8a13d760e01b81523360048201526001600160a01b0390911690639f8a13d790602401602060405180830381865afa1580156109d7573d6000803e3d6000fd5b505050506040513d601f19601f820116820180604052508101906109fb9190611515565b610a3b5760405162461bcd60e51b81526020600482015260116024820152701214081b9bdd081c9959da5cdd195c9959607a1b604482015260640161028f565b600054604051639f8a13d760e01b81526001600160a01b03898116600483015290911690639f8a13d790602401602060405180830381865afa158015610a85573d6000803e3d6000fd5b505050506040513d601f19601f82011682018060405250810190610aa99190611515565b610aee5760405162461bcd60e51b815260206004820152601660248201527514185d1a595b9d081b9bdd081c9959da5cdd195c995960521b604482015260640161028f565b600054604051639f8a13d760e01b81526001600160a01b03858116600483015290911690639f8a13d790602401602060405180830381865afa158015610b38573d6000803e3d6000fd5b505050506040513d601f19601f82011682018060405250810190610b5c9190611515565b610ba85760405162461bcd60e51b815260206004820152601860248201527f57617265686f757365206e6f7420726567697374657265640000000000000000604482015260640161028f565b600054604051639f8a13d760e01b81526001600160a01b03848116600483015290911690639f8a13d790602401602060405180830381865afa158015610bf2573d6000803e3d6000fd5b505050506040513d601f19601f82011682018060405250810190610c169190611515565b610c625760405162461bcd60e51b815260206004820152601c60248201527f44726f6e652073746174696f6e206e6f74207265676973746572656400000000604482015260640161028f565b60648560ff161115610cb65760405162461bcd60e51b815260206004820152601760248201527f504152532073636f7265206f7574206f662072616e6765000000000000000000604482015260640161028f565b60015460405163778107a560e11b8152600481018890526000916001600160a01b03169063ef020f4a906024016020604051808303816000875af1158015610d02573d6000803e3d6000fd5b505050506040513d601f19601f82011682018060405250810190610d269190611515565b905080610d865760405162461bcd60e51b815260206004820152602860248201527f507265736372697074696f6e206e6f742076657269666965642062792053432d60448201526737206f7261636c6560c01b606482015260840161028f565b6000610d9187610ff1565b600280549192506000610da38361159b565b91905055506040518061018001604052806002548152602001336001600160a01b031681526020018a6001600160a01b031681526020018981526020018860ff168152602001878152602001866001600160a01b03168152602001856001600160a01b0316815260200160006001600160a01b0316815260200160006005811115610e3057610e306112e4565b81526020014281526020018242610e4791906115b4565b90526002805460009081526003602081815260409283902085518155908501516001820180546001600160a01b03199081166001600160a01b0393841617909155938601519482018054909416941693909317909155606083015190820155608082015160048201805460ff191660ff90921691909117905560a08201516005820190610ed49082611616565b5060c08201516006820180546001600160a01b03199081166001600160a01b039384161790915560e0840151600784018054831691841691909117905561010084015160088401805492831691909316908117835561012085015192916001600160a81b03191617600160a01b836005811115610f5357610f536112e4565b0217905550610140820151600982015561016090910151600a909101556001600160a01b038916600081815260046020908152604080832060028054825460018101845592865294849020909101939093559154825160ff8c1681529182018c9052917f2758fac40096ce82dadbcfbff5feaa5d4f187ebf879d98e431b2a6ab5728d2f7910160405180910390a35050600254979650505050505050565b6000605a8260ff1610611006575060b4919050565b60468260ff161061101a5750610258919050565b60288260ff161061102e5750610708919050565b50611c20919050565b600081815260036020526040902060068101546001600160a01b031633146110a15760405162461bcd60e51b815260206004820152601b60248201527f4f6e6c79207468652061737369676e65642077617265686f7573650000000000604482015260640161028f565b60006008820154600160a01b900460ff1660058111156110c3576110c36112e4565b146111105760405162461bcd60e51b815260206004820152601a60248201527f4f72646572206e6f7420696e2050454e44494e47207374617465000000000000604482015260640161028f565b600881018054600160a01b60ff60a01b1990911617905560405133815282907fffe4ac18338a3ca32687035316cfe7b1a8c65118eded2db32f11945b56ce6bac9060200160405180910390a2817fd9a86b644eb5f5b43cc8a700849852481080361c7a4b00ba646d1b46c5585f95600160405161118d9190611537565b60405180910390a25050565b80356001600160a01b03811681146111b057600080fd5b919050565b600080604083850312156111c857600080fd5b6111d183611199565b946020939093013593505050565b600080604083850312156111f257600080fd5b8235915061120260208401611199565b90509250929050565b6000806040838503121561121e57600080fd5b8235915060208301356006811061123457600080fd5b809150509250929050565b803560ff811681146111b057600080fd5b60006020828403121561126257600080fd5b61126b8261123f565b9392505050565b6000815180845260005b818110156112985760208185018101518683018201520161127c565b506000602082860101526020601f19601f83011685010191505092915050565b60208152600061126b6020830184611272565b6000602082840312156112dd57600080fd5b5035919050565b634e487b7160e01b600052602160045260246000fd5b6006811061131857634e487b7160e01b600052602160045260246000fd5b9052565b8c81526001600160a01b038c811660208301528b81166040830152606082018b905260ff8a16608083015261018060a083018190526000916113608483018c611272565b9250808a1660c085015280891660e0850152808816610100850152505061138b6101208301866112fa565b61014082019390935261016001529a9950505050505050505050565b600060018060a01b03808a168352808916602084015260ff8816604084015260e060608401526113da60e0840188611272565b908616608084015290506113f160a08301856112fa565b8260c083015298975050505050505050565b634e487b7160e01b600052604160045260246000fd5b60008060008060008060c0878903121561143257600080fd5b61143b87611199565b9550602087013594506114506040880161123f565b9350606087013567ffffffffffffffff8082111561146d57600080fd5b818901915089601f83011261148157600080fd5b81358181111561149357611493611403565b604051601f8201601f19908116603f011681019083821181831017156114bb576114bb611403565b816040528281528c60208487010111156114d457600080fd5b8260208601602083013760006020848301015280975050505050506114fb60808801611199565b915061150960a08801611199565b90509295509295509295565b60006020828403121561152757600080fd5b8151801515811461126b57600080fd5b6020810161154582846112fa565b92915050565b600181811c9082168061155f57607f821691505b60208210810361157f57634e487b7160e01b600052602260045260246000fd5b50919050565b634e487b7160e01b600052601160045260246000fd5b6000600182016115ad576115ad611585565b5060010190565b8082018082111561154557611545611585565b601f82111561161157600081815260208120601f850160051c810160208610156115ee5750805b601f850160051c820191505b8181101561160d578281556001016115fa565b5050505b505050565b815167ffffffffffffffff81111561163057611630611403565b6116448161163e845461154b565b846115c7565b602080601f83116001811461167957600084156116615750858301515b600019600386901b1c1916600185901b17855561160d565b600085815260208120601f198616915b828110156116a857888601518255948401946001909101908401611689565b50858210156116c65787850151600019600388901b60f8161c191681555b5050505050600190811b0190555056fea2646970667358221220223f27aeaa59a9a24bd0862bc18b7fc20d32567fccf66e4347378a6f5bb6d78a64736f6c63430008140033",
  "linkReferences": {},
  "deployedLinkReferences": {}
}